:020000040800F2
:10000000700E00209D01000825180008910C0008C2
:1000100001180008FD030008513800080000000026
:100020000000000000000000000000003D32000859
:10003000F509000800000000CD180008553300083D
:10004000B7010008B7010008B7010008B7010008B0
:10005000B7010008B7010008B7010008B7010008A0
:10006000B7010008B7010008B7010008B701000890
:10007000B7010008B7010008B7010008B701000880
:10008000B7010008B701000861030008B7010008C4
:10009000B7010008B7010008B7010008B701000860
:1000A000B7010008B7010008B7010008B701000850
:1000B000B7010008C13300083D340008B70100084B
:1000C000B7010008B7010008B7010008B701000830
:1000D000B701000821360008B7010008B701000881
:1000E000B7010008B7010008B7010008B701000810
:1000F000B7010008B7010008B7010008B701000800
:10010000B701000889200008B7010008B7010008FE
:10011000B7010008B7010008B7010008B7010008DF
:10012000ED060008B7010008B7010008B701000894
:10013000B7010008B7010008B7010008B7010008BF
:10014000B7010008B7010008B7010008B7010008AF
:10015000B7010008B7010008B7010008B70100089F
:10016000B7010008B7010008B7010008B70100088F
:10017000B7010008B7010008B7010008B70100087F
:10018000B7010008B7010008DFF80CD000F07EF8D6
:1001900000480047414F0008700E00200648804785
:1001A00006480047FEE7FEE7FEE7FEE7FEE7FEE75C
:1001B000FEE7FEE7FEE7FEE7593300088901000885
:1001C0002DE9F05F0546002092469B46884606468C
:1001D000814640241BE0284641464746224600F01F
:1001E00045F853465A46C01A914110D31146184655
:1001F000224600F02CF82D1A67EB01084F462246E4
:100200000120002100F023F817EB00094E41201EC9
:10021000A4F10104DFDC484631462A464346BDE8E6
:10022000F09F30B50B46014600202022012409E052
:1002300021FA02F59D4205D303FA02F5491B04FA9F
:1002400002F52844151EA2F10102F1DC30BD202A7E
:1002500004DB203A00FA02F1002070479140C2F11D
:10026000200320FA03F3194390407047202A04DB4F
:10027000203A21FA02F00021704721FA02F3D0401F
:10028000C2F120029140084319467047064C074DC1
:1002900006E0E06840F0010394E807009847103456
:1002A000AC42F6D3FFF774FF4055000860550008D4
:1002B00010B5012003F02EFF8021074800F0DAFC82
:1002C0004021054800F0D8FC2021034800F0D4FC70
:1002D000012003F01FFF10BD0004024010B50121F2
:1002E0000C4800F0C7FC012003F030FF0121094851
:1002F00000F0C2FC012003F029FF0121054800F0B5
:10030000B9FC012003F022FF4FF48061014800F0A6
:10031000B3FC10BD0004024000220A12D343036064
:10032000704721B1826842F00102826003E0826876
:1003300022F001028260704770B50246002000235F
:1003400000240B12556801268E4005EA0604156844
:100350001D4015B10CB1012000E0002070BD00006F
:1003600010B54FF483710948FFF7E6FF01280BD160
:100370004FF483710548FFF7CFFF00210348FFF7D3
:10038000D0FF03A003F076FA10BD00000022014068
:10039000496E707574206973206F7574206F6620C4
:1003A0007468726572642121000000001CB501218F
:1003B000022001F0E5FB40F2F350009001208DF89F
:1003C000040000208DF8060002208DF80500694623
:1003D000094800F0DBFB0420009000208DF80400A9
:1003E0008DF806008DF8070002208DF8050069469B
:1003F000014800F0CBFB1CBD0004024002A003F04A
:1004000039FA00BFFEE700000A0D2042757346610D
:10041000756C745F48616E646C657220000000004A
:1004200070B500254FF4803400E0641E24B18020B4
:1004300001F0FEFD0028F8D014B90325284670BD50
:1004400040F2FF5001F0B0FD2846F8E72DE9F041F9
:10045000064600274848056801E04748056805F05A
:1004600045000028F9D005F0040030B1032704202E
:1004700001F09AFD3846BDE8F08105F0010028B191
:100480000127012001F090FD3846F4E701F0CAFD94
:10049000B04202D010273846EDE740F2FF5001F09D
:1004A00083FD002001F0E4FD04463448204008B9F3
:1004B0003846E0E704F0004008B11C20DBE704F018
:1004C000804008B10920D6E704F0005008B10A20A6
:1004D000D1E704F0805008B10B20CCE704F00060B5
:1004E00008B10C20C7E704F0806008B10D20C2E716
:1004F00004F0807008B10E20BDE704F4000008B1DC
:100500000F20B8E704F4800008B11020B3E704F42A
:10051000001008B11120AEE704F4801008B11220D9
:10052000A9E704F4002008B11320A4E704F4802014
:1005300008B114209FE704F4003008B115209AE7B1
:1005400004F4803008B1162095E704F4004008B1A7
:10055000172090E704F4804008B118208BE704F4DA
:10056000005008B1192086E704F0080008B11A20ED
:1005700081E738467FE70000342C014008E0FFFDAA
:1005800070B500251048046801E00F48046804F0C5
:1005900045000028F9D004F0040028B10325042008
:1005A00001F002FD284670BD04F0010028B10125CC
:1005B000012001F0F9FC2846F5E740F2FF5001F078
:1005C000F3FC2846EFE70000342C014070B500250D
:1005D0000B48046801E00A48046804F0450000285C
:1005E000F9D004F0040028B10325042001F0DCFC5C
:1005F000284670BD40F2FF5001F0D6FC2846F8E7CF
:10060000342C01402DE9F04106460F464FF000081A
:100610002248056801E02148056805F045000028EA
:10062000F9D005F0040038B14FF00308042001F0C0
:10063000BBFC4046BDE8F08105F0010030B14FF051
:100640000108012001F0B0FC4046F3E701F0EAFCAC
:10065000B04203D04FF010084046EBE740F2FF50A5
:1006600001F0A2FC002001F003FD044604F4604008
:1006700018B9200C38804046DCE704F4005008B17B
:100680001320D7E704F4804008B11020D2E704F427
:10069000004008B10F20CDE74046CBE7342C0140A5
:1006A00070B500264FF480350F48046802E06D1ED7
:1006B0000D48046804F0450008B9002DF7D115B1C4
:1006C00004F0040028B10326042001F06DFC30463C
:1006D00070BD04F0400028B10026402001F064FC09
:1006E0003046F5E73046F3E7342C014010B50549B4
:1006F000054800F003F918B10249034800F020F85A
:1007000010BD000020800010106402400246094B1A
:100710009A4201D2084801E00648103801F000531F
:100720001BB1064B0B40C36002E0044B0B408360DF
:100730007047000010640240006002407D0F7D0F92
:100740000246094B9A4201D2084801E00648103897
:1007500001F000531BB1064B0B40C36002E0044B99
:100760000B4083607047000010640240006002404C
:100770007D0F7D0F21B1026842F00102026003E0AB
:10078000026822F00102026070470000016821F057
:10079000010101600021016041608160C16001616F
:1007A000212141614A49884204D13D21484A103AF9
:1007B00091608CE046491831884205D14FF474614C
:1007C000434A103A916082E041493031884205D174
:1007D0004FF474113E4A103A916078E03C49483138
:1007E000884205D14FF07461394A103A91606EE049
:1007F00037496031884204D13649354A103AD160D0
:1008000065E033497831884204D13349304A103A9F
:10081000D1605CE02E499031884204D12F492C4AA6
:10082000103AD16053E02A49A831884205D14FF0EF
:100830003D51274A103AD16049E02949884204D104
:100840003D21274A083A116041E025491831884284
:1008500005D14FF47461224A083A116037E020490B
:100860003031884205D14FF474111D4A083A1160A5
:100870002DE01B494831884205D14FF07461184A78
:10088000083A116023E016496031884204D11149C9
:10089000134A121F11601AE011497831884204D1BD
:1008A0000D490F4A121F116011E00D499031884225
:1008B00004D10A490A4A121F116008E00849A83108
:1008C000884204D14FF03D51054A121F1160704714
:1008D000106002403D000020400F002000003D203D
:1008E0001064024021B1026842F02002026003E07D
:1008F000026822F0200202607047000070B50246D4
:10090000002000240025124EB24201D2114B01E01A
:100910000F4B103B104E0E4036B11E2606EAD12476
:10092000166806EA040502E0566906F0800501F043
:1009300000560EB15C6800E01C68084E344004EAC2
:10094000010616B10DB1012000E0002070BD0000CD
:1009500010640240006002403C0F3C0F7D0F7D0F91
:1009600010B501F080034BB122B1436943F080031D
:10097000436103E0436923F08003436180290BD086
:100980002AB1036801F01E042343036004E00368F6
:1009900001F01E04A343036010BD000010B5002247
:1009A0000268134B1A40CC680B6823434C692343FD
:1009B0008C692343CC6923430C6A23434C6A234349
:1009C0008C6A23434C6B23438C6B23431A43026092
:1009D000426922F00702D1E90B3423431A434261F2
:1009E0000B6943604B6883608B68C36010BD000077
:1009F0003F801CF0704700002DE9FC4107460D4682
:100A00000026002400200090019008205B49086027
:100A100010204860402088600020C8604FF480604B
:100A20000861084601F070FB1020FFF70FFD044637
:100A300014B12046BDE8FC815148008800044F49AC
:100A4000086037204860402088600020C8604FF46C
:100A500080600861084601F057FB3720FFF7F6FC7D
:100A600004460CB12046E5E74FF0FF3045490860E9
:100A700008204860302088600220C860002008619B
:100A800001204861084601F0A7FA00203B490860B0
:100A900033204860402088600020C8604FF48060A8
:100AA0000861084601F030FB3320FFF7CFFC044615
:100AB0000CB12046BEE709E04FF4001001F0B8FA8F
:100AC00020B101F01BFB4DF82600761C2E48006873
:100AD00040F22A6108400028EED0082001F0A8FA70
:100AE00028B1082001F060FA04242046A2E7022081
:100AF00001F09EFA28B1022001F056FA02242046A5
:100B000098E7202001F094FA28B1202001F04CFA57
:100B1000062420468EE74FF4007001F089FA30B1C8
:100B20004FF4007001F040FA0724204682E740F2BB
:100B3000FF5001F039FA00980006009901F47F4156
:100B400040EA0120009901F47F0140EA1120009958
:100B500040EA1160686001980006019901F47F4144
:100B600040EA0120019901F47F0140EA1120019936
:100B700040EA1160286020465CE70000400A00203F
:100B800060000020540A0020342C0140F0B50A46D1
:100B900000210023002400BF3DE0012505FA01F3F8
:100BA000156805EA03049C4234D105684F0003260A
:100BB000BE40B543056015794E00B5400668354323
:100BC00005601579012D02D01579022D16D18568A1
:100BD0004F000326BE40B543856055794E00B540B1
:100BE000866835438560456801268E40B54345607B
:100BF000456896798E40B6B235434560C5684F006A
:100C00000326BE40B543C560D5794E00B540C668E1
:100C10003543C560491C1029BFD3F0BDF0B5002392
:100C200000244D07ED0E02FA05F3CE1000F1200569
:100C300055F826504E07F70E0F26BE40B543CF108D
:100C400000F1200646F82750CE1000F1200555F897
:100C5000265045EA0304CE1000F1200545F8264051
:100C6000F0BD0246002013690B400BB1012000E0EB
:100C70000020704741837047018370474FF6FF7132
:100C800001600021017141718171C17170470000E3
:100C900002A002F0EFFD00BFFEE700000A0D2048B1
:100CA0006172644661756C745F48616E646C6572F4
:100CB0002000000010B500200F4908600F480068B0
:100CC00020F040700D4908600846006840F08070D0
:100CD000086000200A49C1F8B002022003F036FA89
:100CE000012005490860022003F030FA0020044981
:100CF000C1F8AC0210BD0000AC82404200040240CA
:100D0000008040421CB50121022000F039FF4FF461
:100D1000C050009001208DF8040000208DF80600DE
:100D200003208DF8050000208DF80700694605486E
:100D3000FFF72CFF0120044908600449C1F8B00204
:100D40001CBD000000040240AC82404200804042D2
:100D500010B500200F4908600F48006820F040706F
:100D60000D4908600846006840F080700860012066
:100D70000A49C1F8B002022003F0E8F90120054950
:100D80000860022003F0E2F900200449C1F8AC0237
:100D900010BD0000AC82404200040240008040428E
:100DA00070B5054600241648006820F040701449CC
:100DB0000860084600680860002616E00020114917
:100DC0000860022003F0C2F901200F49C1F8AC020B
:100DD0006006040E0B487C38006808B1601CC4B281
:100DE000012003F0B3F9701CC6B2082EE6DB15B97A
:100DF000FFF7AEFF01E0FFF75DFF204670BD00008A
:100E000000040240AC8240420080404270B504467B
:100E10001548006820F040701349086008460068D3
:100E200040F080700860002010490860002517E03D
:100E3000E0090E49091D08606006040E022003F057
:100E400085F901200A49C1F8AC02022003F07EF9BD
:100E5000002006490860022003F078F9681CC5B23A
:100E6000082DE5DB70BD000000040240AC8240426A
:100E70000080404210B50F48006820F040700D49D6
:100E800008600846006840F08070086001200A4948
:100E900008600A49C1F8AC02042003F057F90020A9
:100EA00005490860042003F051F900200349C1F806
:100EB000AC0210BD00040240B082404200804042BB
:100EC00010B50F48006820F040700D4908600846D2
:100ED000006840F08070086000200A4908600A49F4
:100EE000C1F8B002042003F031F90120054908607F
:100EF0000549C1F8B002042003F028F910BD000034
:100F000000040240AC8240420080404210B5002400
:100F10001348006820F040701149086008460068D6
:100F2000086001200F49086003F010F901200E4904
:100F3000C1F8AC0203F00AF907E0601CC4B2FA2C55
:100F400003DDFFF7BDFF012010BD064880380068B3
:100F50000028F2D10349091F086000BFF4E7000030
:100F600000040240B08240420080404210B50020A0
:100F70000F4908600F48006820F440700D49086070
:100F80000846006840F48070086000200A49C1F8F3
:100F90009002022003F0DAF80120054908600220DF
:100FA00003F0D4F800200449C1F88C0210BD000001
:100FB0008C02414200080240000041421CB5012160
:100FC000042000F0DDFD1820009001208DF80400C1
:100FD00000208DF8060003208DF8050000208DF814
:100FE000070069460448FFF7D1FD01200349086066
:100FF0000349C1F890021CBD000802408C02414226
:101000000000414210B500200F4908600F480068F9
:1010100020F440700D4908600846006840F4807074
:10102000086001200A49C1F89002022003F08EF8FE
:10103000012005490860022003F088F800200449D7
:10104000C1F88C0210BD00008C0241420008024031
:101050000000414270B5054600241648006820F49F
:10106000407014490860084600680860002616E0D1
:10107000002011490860022003F068F801200F49A0
:10108000C1F88C026006040E0B487C38006808B179
:10109000601CC4B2012003F059F8701CC6B2082EBF
:1010A000E6DB15B9FFF7AEFF01E0FFF75FFF204673
:1010B00070BD0000000802408C0241420000414225
:1010C00070B504461548006820F440701349086064
:1010D0000846006840F480700860002010490860ED
:1010E000002517E0E0090E49091D08606006040E9E
:1010F000022003F02BF801200A49C1F88C020220DB
:1011000003F024F8002006490860022003F01EF8CE
:10111000681CC5B2082DE5DB70BD00000008024068
:101120008C0241420000414210B50F48006820F493
:1011300040700D4908600846006840F480700860FF
:1011400001200A4908600A49C1F88C02042002F013
:10115000FDFF002005490860042002F0F7FF002091
:101160000349C1F88C0210BD0008024090024142C0
:101170000000414210B50F48006820F440700D494E
:1011800008600846006840F48070086000200A4942
:1011900008600A49C1F89002042002F0D7FF01203C
:1011A000054908600549C1F89002042002F0CEFF0D
:1011B00010BD0000000802408C0241420000414284
:1011C00010B500241348006820F4407011490860ED
:1011D00008460068086001200F49086002F0B6FF69
:1011E00001200E49C1F88C0202F0B0FF07E0601C3C
:1011F000C4B2FA2C03DDFFF7BDFF012010BD064885
:10120000803800680028F2D10349091F086000BF38
:10121000F4E7000000080240900241420000414211
:1012200010B500200F4908600F48006820F030001A
:101230000D4908600846006840F010000860002072
:101240000A49C1F88802022002F080FF0120054906
:101250000860022002F07AFF00200449C1F88402ED
:1012600010BD0000840241420008024000004142DB
:101270001CB50121042000F083FC02200090012015
:101280008DF8040000208DF8060003208DF805007D
:1012900001208DF8070069460448FFF777FC01201C
:1012A000034908600349C1F888021CBD00080240D8
:1012B000840241420000414210B500200F490860FD
:1012C0000F48006820F030000D49086008460068AB
:1012D00040F01000086001200A49C1F8880202208D
:1012E00002F034FF012005490860022002F02EFFC1
:1012F00000200449C1F8840210BD0000840241426C
:10130000000802400000414270B50546002416481E
:10131000006820F030001449086008460068086042
:10132000002616E0002011490860022002F00EFF9E
:1013300001200F49C1F884026006040E0B487C3876
:10134000006808B1601CC4B2012002F0FFFE701CEE
:10135000C6B2082EE6DB15B9FFF7AEFF01E0FFF7D6
:101360005FFF204670BD0000000802408402414239
:101370000000414270B504461548006820F0300076
:10138000134908600846006840F01000086000201B
:1013900010490860002517E0E0090E49091D0860A2
:1013A0006006040E022002F0D1FE01200A49C1F8B5
:1013B0008402022002F0CAFE0020064908600220D2
:1013C00002F0C4FE681CC5B2082DE5DB70BD00004C
:1013D00000080240840241420000414210B50F481B
:1013E000006820F030000D4908600846006840F0B1
:1013F0001000086001200A4908600A49C1F8840207
:10140000042002F0A3FE002005490860042002F039
:101410009DFE00200349C1F8840210BD000802406F
:10142000880241420000414210B50F48006820F098
:1014300030000D4908600846006840F01000086060
:1014400000200A4908600A49C1F88802042002F015
:101450007DFE0120054908600549C1F88802042085
:1014600002F074FE10BD00000008024084024142F8
:101470000000414210B500241348006820F03000FD
:101480001149086008460068086001200F4908609B
:1014900002F05CFE01200E49C1F8840202F056FE03
:1014A00007E0601CC4B2FA2C03DDFFF7BDFF01208A
:1014B00010BD0648803800680028F2D10349091F92
:1014C000086000BFF4E700000008024088024142C3
:1014D0000000414210B500247521D02000F049F8E9
:1014E0000446712C01D1012010BD0020FCE710B58D
:1014F00080226B21D02000F05CF8642002F00AFE0C
:1015000003226B21D02000F054F8012002F002FEEB
:10151000C0226C21D02000F04CF8012002F0FAFD2E
:1015200000221921D02000F044F8012002F0F2FD41
:1015300018221B21D02000F03CF8012002F0EAFD27
:1015400000221C21D02000F034F8012002F0E2FD3E
:1015500008221D21D02000F02CF8012002F0DAFD35
:1015600003221A21D02000F024F8012002F0D2FD3D
:1015700010BD70B504460D460026FFF77BFC2046E3
:10158000FFF744FCFFF7C2FC2846FFF73FFCFFF7DC
:10159000BDFCFFF76FFC611CC8B2FFF737FCFFF71B
:1015A000B5FC0020FFF7FCFB0646FFF789FC304640
:1015B00070BD70B506460C461546FFF75BFC30461D
:1015C000FFF724FCFFF7A2FC2046FFF71FFCFFF704
:1015D0009DFC2846FFF71AFCFFF798FCFFF770FC0C
:1015E00070BD10B500247521D02000F049F80446E4
:1015F000712C01D1012010BD0020FCE710B5802224
:101600006B21D02000F05CF8642002F083FD0322FF
:101610006B21D02000F054F8012002F07BFDC022A5
:101620006C21D02000F04CF8012002F073FD002264
:101630001921D02000F044F8012002F06BFD18229F
:101640001B21D02000F03CF8012002F063FD0022B5
:101650001C21D02000F034F8012002F05BFD0822AC
:101660001D21D02000F02CF8012002F053FD0322B0
:101670001A21D02000F024F8012002F04BFD10BD0B
:1016800070B504460D460026FFF74EFD2046FFF7D5
:1016900017FDFFF795FD2846FFF712FDFFF790FDB8
:1016A000FFF742FD611CC8B2FFF70AFDFFF788FD96
:1016B0000020FFF7CFFC0646FFF75CFD304670BD0B
:1016C00070B506460C461546FFF72EFD3046FFF76F
:1016D000F7FCFFF775FD2046FFF7F2FCFFF770FD02
:1016E0002846FFF7EDFCFFF76BFDFFF743FD70BDEC
:1016F00010B500247521D02000F049F80446712C63
:1017000001D1012010BD0020FCE710B580226B2123
:10171000D02000F05CF8642002F0FCFC03226B2176
:10172000D02000F054F8012002F0F4FCC0226C211B
:10173000D02000F04CF8012002F0ECFC002219212E
:10174000D02000F044F8012002F0E4FC18221B2114
:10175000D02000F03CF8012002F0DCFC00221C212B
:10176000D02000F034F8012002F0D4FC08221D2122
:10177000D02000F02CF8012002F0CCFC03221A212A
:10178000D02000F024F8012002F0C4FC10BD70B598
:1017900004460D460026FFF721FE2046FFF7EAFD2E
:1017A000FFF768FE2846FFF7E5FDFFF763FEFFF74A
:1017B00015FE611CC8B2FFF7DDFDFFF75BFE0020E0
:1017C000FFF7A2FD0646FFF72FFE304670BD70B54D
:1017D00006460C461546FFF701FE3046FFF7CAFDE8
:1017E000FFF748FE2046FFF7C5FDFFF743FE2846FA
:1017F000FFF7C0FDFFF73EFEFFF716FE70BD0000CD
:1018000002A002F037F800BFFEE700000A0D204DED
:10181000656D4D616E6167655F48616E646C657290
:101820002000000010B502A002F024F810BD000056
:101830000A0D204E4D495F48616E646C6572200050
:1018400070B5002100230F22C4781CB3174C246804
:1018500004F4E064C4F5E064C4F30721C1F10404B6
:10186000E3B20A4144789C40E1B2847814402143B9
:101870000C07210E0E4C05786155047804F01F0505
:101880000124AC4005786D11AD0005F1E025C5F8E7
:10189000004109E0047804F01F050124AC40054D27
:1018A0000678761145F8264070BD00000CED00E08A
:1018B00000E400E080E100E002490143024A1160D7
:1018C000704700000000FA050CED00E070470000D2
:1018D0001CB50121022000F053F901208DF804000D
:1018E00000208DF806008DF8070003208DF8050014
:1018F0004FF40070009069460B48FFF747F901214B
:10190000102000F03DF900208DF804008DF806004D
:101910008DF8070003208DF805000120009069462E
:101920000248FFF733F91CBD0004024000100240DA
:1019300000B589B00121102000F042F901210846CC
:1019400000F01EF9072209214E48FFF767F9072228
:101950000A214C48FFF762F907A8FFF78FF94FF407
:101960000070079002208DF820008DF8210007A953
:101970004448FFF70BF94FF48060079002208DF880
:1019800020008DF8210007A93E48FFF7FFF803A8C3
:1019900001F051FF4FF4E13003900020ADF810004A
:1019A000ADF81200ADF81400ADF818000C20ADF839
:1019B000160003A9344801F0CBFE01A801F05AFE3D
:1019C00001A9314801F046FE012240F225512E487E
:1019D00001F099FE01212C4801F052FE0121202046
:1019E00000F0EEF80121042000F0CAF808220621D8
:1019F0002648FFF713F9082207212448FFF70EF9BC
:101A000007A8FFF73BF94020079002208DF820003F
:101A10008DF8210007A91D48FFF7B8F8802007902E
:101A200002208DF820008DF8210007A91748FFF744
:101A3000ADF803A801F0FFFE4FF4E1300390002061
:101A4000ADF81000ADF81200ADF81400ADF81800B4
:101A50000C20ADF8160003A90D4801F079FE01A88D
:101A600001F008FE01A90A4801F0F4FD012240F24C
:101A70002551074801F047FE0121054801F000FE0D
:101A800009B000BD00000240001001400008024003
:101A90000014014003460BB90020704709B900202B
:101AA000FBE70AB90020F8E71A60D960596099602D
:101AB0000020F2E770B50346144609B9002070BD56
:101AC0000BB90020FBE7586808B90020F7E79868D1
:101AD00008B90020F3E720E0087800B91DE011F80C
:101AE000015B9E68701C986035701D68D86828443A
:101AF0009D68A84201D8D8689860D3E90150A842EF
:101B00000AD15868401C58601D68D86828445D6830
:101B1000A84201D8D868586000BF2000A4F1010491
:101B2000DAD11046CBE770B503460C4600210CB95C
:101B3000002070BD0BB90020FBE7586808B90020F1
:101B4000F7E7986808B90020F3E70EE05D68681CC5
:101B500058602E780846491C26541D68D8682844C9
:101B60005D68A84201D8D8685860D3E90105A84249
:101B700004D0914202D218688842E7D80846D8E7D4
:101B800029B1064A12680243044B1A6004E0034A72
:101B900012688243014B1A607047000030380240DF
:101BA00029B1064A12680243044B1A6004E0034A52
:101BB00012688243014B1A607047000040380240AF
:101BC00029B1064A12680243044B1A6004E0034A32
:101BD00012688243014B1A6070470000443802408B
:101BE00029B1064A12680243044B1A6004E0034A12
:101BF00012688243014B1A6070470000243802408B
:101C0000F0B5002100220024022500260223324FD5
:101C10003F6807F00C0121B1042905D0082937D10C
:101C200005E02E4F076036E02D4F076033E02A4F66
:101C30003F1F3F68C7F38056274F3F1F3F6807F09D
:101C40003F036EB1264FB7FBF3F7DFF88CC0ACF162
:101C5000040CDCF800C0CCF3881C07FB0CF40CE08F
:101C60001E4FB7FBF3F7DFF870C0ACF1040CDCF8E3
:101C700000C0CCF3881C07FB0CF4174F3F1F3F68D4
:101C8000C7F301477F1C7D00B4FBF5F7076002E056
:101C9000124F076000BF00BF0F4F3F6807F0F00111
:101CA0000909104F7A5C0768D74047600A4F3F68C0
:101CB00007F4E051890A0B4F7A5C4768D740876088
:101CC000054F3F6807F46041490B064F7A5C47684F
:101CD000D740C760F0BD0000083802400024F4007F
:101CE00040787D013E0000203EB50546012D04D020
:101CF000022D15D0032D39D125E03C21D020FFF74E
:101D000038FC8DF800003B21D020FFF732FC8DF825
:101D100001009DF800009DF8011040EA012426E032
:101D20003E21D020FFF725FC8DF802003D21D02078
:101D3000FFF71FFC8DF803009DF802009DF80310CB
:101D400040EA012413E04021D020FFF712FC8DF877
:101D500004003F21D020FFF70CFC8DF805009DF812
:101D600004009DF8051040EA012400BF00BF00BF39
:101D700020B23EBD3EB50546012D04D0022D15D042
:101D8000032D39D125E03C21D020FFF779FC8DF8D7
:101D900000003B21D020FFF773FC8DF801009DF877
:101DA00000009DF8011040EA012426E03E21D020E9
:101DB000FFF766FC8DF802003D21D020FFF760FCA4
:101DC0008DF803009DF802009DF8031040EA0124FD
:101DD00013E04021D020FFF753FC8DF804003F2191
:101DE000D020FFF74DFC8DF805009DF804009DF80C
:101DF000051040EA012400BF00BF00BF20B23EBD75
:101E00003EB50546012D04D0022D15D0032D39D144
:101E100025E03C21D020FFF7BAFC8DF800003B21E3
:101E2000D020FFF7B4FC8DF801009DF800009DF86C
:101E3000011040EA012426E03E21D020FFF7A7FC54
:101E40008DF802003D21D020FFF7A1FC8DF80300A2
:101E50009DF802009DF8031040EA012413E04021A0
:101E6000D020FFF794FC8DF804003F21D020FFF72D
:101E70008EFC8DF805009DF804009DF8051040EAE1
:101E8000012400BF00BF00BF20B23EBD7CB50546A7
:101E9000002400200090019000F0EAF800F00070AB
:101EA00010B10E2420467CBD3D49098888B26946A0
:101EB000FEF7A2FD04460CB12046F4E7012D36D111
:101EC000019800F4802000282ED0354800880004B6
:101ED0003449086037204860402088600020C8608E
:101EE000A8020861084600F00FF93720FEF7AEFAA5
:101EF00004460CB12046D6E702202A490860062095
:101F00004860402088600020C8604FF4806008610D
:101F1000084600F0F9F80620FEF798FA04460CB1DE
:101F20002046C0E72046BEE725242046BBE70198AF
:101F300000F4803078B31A4800880004194908601A
:101F400037204860402088600020C8604FF48060DF
:101F50000861084600F0D8F83720FEF777FA044603
:101F60000CB120469FE700200E490860062048601B
:101F7000402088600020C8604FF4806008610846F7
:101F800000F0C2F80620FEF761FA04460CB12046C4
:101F900089E7204687E7FFE72524204683E70000FE
:101FA00060000020400A00200149086070470000DE
:101FB000382C01400149086070470000382C01406E
:101FC0000149086070470000A0802542014908606F
:101FD000704700008C85254200210B4B02681A6077
:101FE0001B1D42681A601A1D116821F0F701D0E923
:101FF00002231A4303691A4343691A431143024AED
:102000000832116070470000242C014010B50121F6
:10201000C802FFF7E5FD00214FF40060FFF7E0FD87
:1020200010BD000001480068C0B27047102C01408C
:1020300001460020034A12680A400AB1012000E06C
:1020400000207047342C014001460020034A1268EA
:102050000A400AB1012000E000207047342C014002
:102060000248006800F0030070470000002C0140A7
:1020700008B50146002000900248084400900098EE
:10208000006808BD142C014010B503A001F0F2FB5C
:1020900000F014FD10BD000053445F50726F636583
:1020A0007373495251537263210A000029B1064AE1
:1020B00012680243044B1A6004E0034A1268824328
:1020C000014B1A60704700003C2C014000210A4A75
:1020D000116847F6FF629143027D83681A434368A3
:1020E0001A43C3681A4303681A4303691A43114326
:1020F000014A116070470000042C0140014800684B
:1021000070470000802C01400021094B02681A60D2
:102110001A1D11686FF30A01D0E901231A43C3683D
:102120001A4303691A431143014A121D1160704793
:10213000082C01400149086070470000002C014054
:1021400008B50120009041030448FEF78AFD08B15C
:10215000002000909DF8000008BD0000001C024017
:1021600070B50446002520480068032802D12725C1
:10217000284670BD1C48006838B11B48006801281B
:1021800003D01948006802282CD1B4F5805F02D131
:1021900027252846EDE7B4F5006F13D10120FFF79E
:1021A00075FE0546F5B900201049087508604860BD
:1021B00088604FF40060C860002008610846FFF79F
:1021C00085FF0FE00020FFF761FE054655B90020AE
:1021D00006490875086048608860C860086108465C
:1021E000FFF774FF2846C4E75C000020280A00209F
:1021F000F0B5014600200022C04B1B7881F8563014
:10220000BF4B1B88A1F85430BE4B1B681A0E9309B4
:102210000B70C2F383034B7002F003038B70B94B56
:102220001B68C3F30742CA70B64B1B88C3F307226F
:102230000A71B44B1A784A715B681A0E1301CB808D
:10224000B04B5B68C3F30742CB8843EA1213CB80E1
:1022500002F00F030B72AB4B9B88C3F30722D30929
:102260004B72C2F380138B72C2F34013CB72C2F372
:1022700000130B7300234B73A04B1B681BB19F4BC8
:102280001B68012B4FD193071B0D0B619D4B1A79D6
:102290000B6943EA82030B619A4B9B681A0E0B6928
:1022A00043EA92130B61C2F3C2030B7502F00703FA
:1022B0004B75944B9B68C3F3074253098B75C2F36C
:1022C0008203CB7593075B0F0B768E4B1B89C3F391
:1022D00007220B7E43EAD2130B760B695B1C0024AA
:1022E000C1E912340B7ED1E912469B1C012505FA87
:1022F00003F3DF17A4FB035C06FB03C304FB0733F4
:10230000C1E912530C7A0123A3400B650027D1E9E0
:1023100012560B6DA5FB034C06FB03C305FB0733ED
:10232000C1E9124336E0754B1B68022B32D1754B65
:102330001A7993069B0A0B61724B9B681A0E0B6904
:1023400043EA02230B616F4B9B68C3F307420B699F
:1023500013430B616B4B1B89C3F307220B690024EA
:102360005B1C44EB04074FF400760025A3FB064CEE
:1023700007FB06C603FB05664FF480650027A4FB38
:10238000053C06FB05C504FB0754C1E912344FF4B4
:1023900000730B65C2F3801301F8193F93065B0EBF
:1023A0004B70584B1A7A4B7843EAD2134B7002F0B9
:1023B0007F038B70534BDB681A0ED309CB70C2F3CB
:1023C00041130B71C2F382034B7193071B0F8B7187
:1023D0004C4BDB68C3F307428B7943EA92138B7152
:1023E000C2F34013CB7100230B7202F001034B7256
:1023F000444B9B89C3F30722D3098B72C2F380132A
:10240000CB72C2F340130B73C2F300134B73C2F3CE
:1024100081038B7302F00303CB733A4B1A7B53088F
:102420000B7401234B74384B1B681A0ECA7419398C
:10243000354B1B68C3F307421402CC85324B1B8813
:10244000C3F30722CB8D1343CB852F4B1A78140689
:102450000C635B681A0E0B6B43EA02440C632A4B55
:102460005B68C3F307420B6B43EA02240C63264B01
:102470009B88C3F307220B6B13430B63224B1A7920
:1024800034235A54204B9B681A0E35235A541E4B42
:102490009B68C3F3074214068C631B4B1B89C3F371
:1024A00007228B6B43EA02448C63174B1A7A8B6BBF
:1024B00043EA02248C63144BDB681A0E8B6B1343C4
:1024C0008B63114BDB68C3F307423C235B5C43EA3D
:1024D00012143C235C5413071C0DCC870A4B9B89B8
:1024E000C3F30722CB8F1343CB87074B1A7B5408C8
:1024F00040235C54012441235C54F0BD5C00002067
:1025000060000020A0090020B009002008B50020CC
:102510000090FFF715FE012809D1684600F02EFC57
:1025200008B1FF2008BD0098C0F34320FAE7FF2060
:10253000F8E710B50424FFF7E9FF0446042C01D1A5
:10254000002010BDFF2C01D10220FAE70120F8E79E
:1025500008B50020009000F06BF9FFF757FD00F080
:10256000DDF900909DF8000010B19DF8000008BD55
:1025700000F032F800909DF8000010B19DF80000C6
:10258000F5E7002012490875086048608860C86057
:1025900008610846FFF79AFD0E48FFF729FE0090F4
:1025A0009DF8000040B90B48B0F8540002041046F2
:1025B000002100F0C7FB00909DF8000020B94FF407
:1025C0000060FFF7CDFD00909DF80000CFE7000010
:1025D000280A0020D009002038B5002401200090EE
:1025E000FFF73EFD10B92524204638BD4448006859
:1025F000042828D000204349086002204860C020F9
:1026000088600020C8604FF4806008610846FFF7CA
:102610007BFDFDF7B5FF04460CB12046E5E7002041
:10262000FFF726FD384908600420FFF721FD3649F1
:1026300048600820FFF71CFD334988600C20FFF735
:1026400017FD3149C8602E48006858B12C48006811
:10265000012807D02A480068062803D028480068C7
:10266000022816D100202749086003204860402036
:1026700088600020C8604FF4806008610846FFF75A
:1026800043FD69460320FDF7BDFF04460CB120461B
:10269000ABE71B48006804282ED0BDF800001B499A
:1026A0000860BDF800000004164908600920486071
:1026B000C02088600020C8604FF480600861084630
:1026C000FFF722FDFDF75CFF04460CB120468CE7C6
:1026D0000020FFF7CDFC0E4908600420FFF7C8FC7E
:1026E0000B4948600820FFF7C3FC094988600C20AB
:1026F000FFF7BEFC0649C8600024204675E70000CD
:102700005C000020400A0020B0090020600000208A
:10271000A009002030B58FB005460C464FF0FA51A5
:102720001D48FDF7F3FF00211B48FEF723F81A4868
:10273000FEF72CF84FF000600090184801900295C9
:1027400000200390049405904FF480600690800070
:10275000079080000890002009904FF440300A90C4
:1027600004200B9003200C904FF400000D9080107B
:102770000E9069460848FEF711F90122102106481B
:10278000FEF7EEF820210448FEF7ACF801210248DC
:10279000FDF7F0FF0FB030BD58640240802C0140BF
:1027A00030B58FB005460C464FF0FA511E48FDF784
:1027B000ADFF00211C48FDF7DDFF1B48FDF7E6FFDC
:1027C0004FF000600090194801900295402003905E
:1027D0000494002005904FF48060069080000790DC
:1027E00080000890002009904FF440300A900420A7
:1027F0000B9003200C904FF400000D9080100E9071
:1028000069460948FEF7CAF8012210210648FEF77A
:10281000A7F820210448FEF765F801210248FDF7DA
:10282000A9FF0FB030BD000058640240802C014069
:102830001CB501218C20FFF7A3F90C2208212A489E
:10284000FEF7ECF90C2209212748FEF7E7F90C22E4
:102850000A212548FEF7E2F90C220B212248FEF757
:10286000DDF90C2211462048FEF7D8F90C2202218E
:102870001E48FEF7D3F94FF47060009002208DF8E7
:1028800005008DF8040000208DF8060001208DF869
:10289000070069461448FEF779F90420009069465C
:1028A0001248FEF773F94FF48050009000208DF825
:1028B000070069460C48FEF769F94FF40050009094
:1028C00000208DF8040001208DF8070069460848B3
:1028D000FEF75CF90121C802FFF772F901218805B2
:1028E000FFF74EF91CBD000000080240000C02403A
:1028F000001C024008B54FF4C060FEF7DDFF312038
:102900008DF8000000208DF801008DF802000120F4
:102910008DF803006846FEF793FF08BDF8B5002068
:102920000090002500240026002776205F490875C6
:102930000020086048608860C86008610846FFF7AA
:10294000C5FB0320FFF7F6FB0120FFF739FB002052
:102950005749086048608860C8604FF4806008612B
:102960000846FFF7D1FBFDF75BFD00909DF80000E6
:1029700010B19DF80000F8BD4FF4D5704C490860C7
:1029800008204860402088600020C8604FF48060C4
:1029900008610846FFF7B8FBFDF782FE00909DF83E
:1029A000000020B9012043490860870712E0002099
:1029B0003F49086037204860402088600020C86098
:1029C0004FF4806008610846FFF79EFB3720FDF753
:1029D0003DFD0090002036490860372048604020C7
:1029E00088600020C8604FF4806008610846FFF7E7
:1029F0008BFB3720FDF72AFD00909DF80000002892
:102A000051D13BE000202A4908603720486040202F
:102A100088600020C8604FF4806008610846FFF7B6
:102A200073FB3720FDF712FD00909DF8000010B1F8
:102A30009DF800009FE7204838431D490860292081
:102A40004860402088600020C8604FF480600861C2
:102A50000846FFF759FBFDF7B9FD00909DF800000F
:102A600010B19DF8000086E70020FFF701FB054646
:102A7000012080EAD57080F00106641C1EB94FF673
:102A8000FF708442BED34FF6FF70844204D31B20F4
:102A900000909DF800006EE705F08040050002D030
:102AA0000220044908609DF8000064E7280A00201D
:102AB000400A00205C0000200000108010B54FF498
:102AC0008070FFF7C1FA50B10020254908704FF41B
:102AD0008070FFF76FFA01202249086037E002207A
:102AE000FFF7B2FA30B10220FFF764FA02201C4966
:102AF00008702CE00820FFF7A7FA30B10820FFF794
:102B000059FA04201649087021E02020FFF79CFAAA
:102B100030B12020FFF74EFA06201149087016E068
:102B20001020FFF791FA30B11020FFF743FA05208B
:102B30000B4908700BE04FF40070FFF785FA30B1D5
:102B40004FF40070FFF736FA07200549087000219E
:102B50004CF23A30FFF7AAFA0148007810BD0000A5
:102B6000680000206C0000202DE9F04180461446EA
:102B70001D46069E00270020304908703049086035
:102B80003049086030490860012140F22A30FFF7DF
:102B90008DFA0120FFF71AFA31464046FFF7BAFDD9
:102BA0002A480068022808D10602020200232046B3
:102BB0002946FDF705FB04460D4625480660102012
:102BC00023494860402088600020C8604FF480603E
:102BD00008610846FFF798FA1020FDF737FC074612
:102BE00017B13846BDE8F0814FF0FF301949086051
:102BF00008464660902088600220C8600020086176
:102C0000012048610846FFF7E7F9114804601120E8
:102C10000F494860402088600020C8604FF4806001
:102C200008610846FFF770FA1120FDF70FFC074610
:102C30000FB13846D6E73846D4E7000068000020D8
:102C40006C000020640000202C2C01405C0000205F
:102C5000400A0020540A00202DE9F04180460D462C
:102C600014461E46002700202F4908702F4908608F
:102C700001202F49086000202E4908602E48006876
:102C8000022801D1040200E065432C4804601020B2
:102C90002A494860402088600020C8604FF4806066
:102CA00008610846FFF730FA1020FDF7CFFB074612
:102CB00017B13846BDE8F0814FF0FF302049086079
:102CC00006FB04F04860902088600220C860002065
:102CD0000861012048610846FFF77EF91748056042
:102CE000122016494860402088600020C8604FF4D8
:102CF000806008610846FFF707FA1220FDF7A6FB7F
:102D000007460FB13846D5E7012140F22A30FFF7D8
:102D1000CDF90120FFF75AF906FB04F14046FFF711
:102D2000F9FC3846C6E70000680000206C0000206F
:102D3000640000202C2C01405C000020400A002090
:102D4000540A002070B504460D4600260A48046067
:102D5000072009494860402088600020C8604FF47F
:102D6000806008610846FFF7CFF90720FDF76EFB8A
:102D70000646304670BD0000400A002070B504468B
:102D8000002514B92625284670BD0F480088000488
:102D90000E4908600D204860402088600020C8600F
:102DA0004FF4806008610846FFF7AEF90D20FDF78B
:102DB0004DFB05460DB12846E6E70020FFF758F920
:102DC00020602846E0E7000060000020400A002064
:102DD00010B5002400200A4908600C2048604020FB
:102DE00088600020C8604FF4806008610846FFF7E3
:102DF0008BF90C20FDF72AFB0446204610BD00008D
:102E0000400A002070B500256C1E00E0641E1848C2
:102E1000006838B91748006820B91748007808B921
:102E2000002CF3D1002012490860441E00E0641E0B
:102E30001248006800F4005008B1002CF7D1104887
:102E40000068012805D1FFF7C3FF054600200C49A3
:102E500008600CB905B9042540F2FF50FFF7A4F84B
:102E60000548007810B10448007870BD2846FCE79A
:102E7000700000206C00002068000020342C01400D
:102E80006400002070B500256C1E00E0641E184828
:102E9000006838B91748006820B91748007808B9A1
:102EA000002CF3D1002012490860441E00E0641E8B
:102EB0001248006800F4805008B1002CF7D1104887
:102EC0000068012805D1FFF783FF054600200C4963
:102ED00008600CB905B9042540F2FF50FFF764F80B
:102EE0000548007810B10448007870BD2846FCE71A
:102EF000700000206C00002068000020342C01408D
:102F0000640000202DE9F041804614461D46069ECF
:102F1000002700202F4908702F4908602F490860BA
:102F20002F490860012140F22A30FFF7BFF83146EF
:102F30004046FFF735FC0120FFF748F829480068B4
:102F4000022808D106020202002320462946FDF786
:102F500037F904460D46244806601020224948608F
:102F6000402088600020C8604FF4806008610846F7
:102F7000FFF7CAF81020FDF769FA074617B138467F
:102F8000BDE8F081184804601820174948604020C7
:102F900088600020C8604FF4806008610846FFF731
:102FA000B3F81820FDF752FA07460FB13846E7E7A5
:102FB0004FF0FF300D490860084646609020886059
:102FC0000020C8600861012048610846FFF704F846
:102FD0003846D5E7680000206C000020640000201F
:102FE0002C2C01405C000020400A0020540A0020E4
:102FF0002DE9F04180460F4614461E46002500206C
:10300000454908704549086001204549086000208D
:103010004449086044480068022801D1040200E0E5
:10302000674342480460102040494860402088605F
:103030000020C8604FF4806008610846FFF764F81C
:103040001020FDF703FA054615B12846BDE8F081CA
:103050003748008800043549086037204860402020
:1030600088600020C8604FF4806008610846FFF760
:103070004BF83720FDF7EAF905460DB12846E5E79C
:103080002A480660172029494860402088600020AF
:10309000C8604FF4806008610846FFF735F81720D4
:1030A000FDF7D4F905460DB12846CFE71F48076064
:1030B00019201E494860402088600020C8604FF4F5
:1030C000806008610846FFF71FF81920FDF7BEF978
:1030D00005460DB12846B9E74FF0FF3015490860A5
:1030E00006FB04F04860902088600020C8600861FA
:1030F000012048610846FEF76FFF012140F22A30A7
:10310000FEF7D4FF0120FEF761FF06FB04F1404605
:10311000FFF746FB284699E7680000206C00002076
:10312000640000202C2C01405C000020400A00209C
:1031300060000020540A002021B1028842F04002C1
:10314000028004E002884FF6BF731A400280704785
:1031500010B50022028802F441520B884C882343A8
:103160008C882343CC8823430C8923434C892343F5
:103170008C892343CC8923431A430280838B4FF2EB
:10318000FF74234083830B8A038210BD00B587B090
:1031900001210220FEF7F4FC01218803FEF700FD67
:1031A00002208DF8040000208DF806004FF46040E6
:1031B000009001208DF8070002208DF80500694677
:1031C0001C48FDF7E3FC05220D211A48FDF726FDFA
:1031D00005220E211748FDF721FD05220F21154874
:1031E000FDF71CFD0020ADF808004FF48270ADF82B
:1031F0000A004FF40060ADF80C000220ADF80E009C
:103200000120ADF810004002ADF812002820ADF802
:1032100014000020ADF816000720ADF8180002A930
:103220000548FFF795FF01210348FFF785FF07B029
:1032300000BD00000004024000380040704700005C
:103240000CB50020019000903448006840F48030B4
:103250003249086000BF3148006800F40030009037
:103260000198401C0190009818B90198B0F5A06F22
:10327000F1D12A48006800F4003010B1012000901C
:1032800001E0002000900098012846D123484030FA
:10329000006840F0805021494031086020480068B3
:1032A00040F480401E4908601C48083000681B49F3
:1032B000083108600846006840F40040086008468D
:1032C000006840F4A05008601648091F0860081FF5
:1032D000006840F08070091F086000BF0F48006858
:1032E00000F000700028F9D040F205600E49086037
:1032F0000A480830006820F00300084908310860D7
:103300000846006840F00200086000BF034808302B
:10331000006800F00C000828F8D10CBD003802400D
:103320000070004019544007003C0240042808D1B6
:103330004FF0E021096941F004014FF0E0221161F2
:1033400007E04FF0E021096921F004014FF0E0228D
:10335000116170477047000010B51548006840F4CF
:103360007000134908601348006840F001001149DB
:10337000086000200F49083108600E4800680E49B7
:1033800008400C4908600D48091D0860081F0068C6
:1033900020F48020091F0860002006490C310860D5
:1033A000FFF74EFF4FF0006001498039086010BD03
:1033B00088ED00E000380240FFFFF6FE10300024E8
:1033C00010B50121184800F0A2F8012826D10121EA
:1033D0001648FDF746FCD0B915480088401C144932
:1033E0000880084600880A280DDB1248007830B9AA
:1033F00001201149087000200D4908800EE00020CE
:103400000B4908800AE000200B49087006E0002004
:1034100007490880084908700649087001210248D8
:1034200000F066F810BD00000004004000100240EB
:103430000000002002000020030000202DE9FE43D0
:1034400000240121204800F062F8012836D11F48ED
:103450000078002832D01E480088401C1C49088093
:103460001C480068401C1B49086000BF04E00020A5
:1034700019490855601CC4B2322CF8D30220FEF75B
:1034800079FC05460120FEF72FFC06460220FEF7D8
:10349000B7FC07460120FEF7B3FC80460D480068E4
:1034A0003B4642460DA1CDE9006502900A4800F076
:1034B000F1F91E2208490D48FEF7FCFA01210248E5
:1034C00000F016F8BDE8FE8300080040320000203E
:1034D0003000002038000020D4040020256420257E
:1034E000642025642025642025640A008C090020BE
:1034F000CA430282704721B1028842F00102028071
:1035000004E002884FF6FE731A400280704730B51F
:103510000246002000230024158A05EA010395894C
:1035200005EA010413B10CB1012000E0002030BD18
:103530001AB183890B43838102E083898B438381A2
:103540007047000000220288184B98420ED0184B9A
:1035500098420BD0B0F1804F08D0164B984205D05E
:10356000154B984202D0154B984204D14FF68F73F9
:103570001A404B881A43124B984207D0114B98427D
:1035800004D04FF6FF431A400B891A4302804B6860
:10359000C3620B880385054B984202D0044B9842C6
:1035A00001D18B7A0386012383827047000001409A
:1035B000000401400004004000080040000C0040EE
:1035C00000100040001400407FB505460C46012164
:1035D0000420FEF7E5FA0295ADF804400020ADF8AE
:1035E0000600ADF80C0001A90C48FFF7ABFF012263
:1035F00011460A48FFF79CFF1E208DF800000120AD
:103600008DF801008DF802008DF803006846FEF782
:1036100017F901210148FFF76EFF7FBD0008004048
:1036200010B540F22551094800F043F801280BD1AC
:10363000064800F0F7F80649087000BF402103482B
:1036400000F02AF80028F9D010BD00000010014059
:103650000400002010B502460020108A20F470609B
:103660000B884C8823438C882343CC8823431843FE
:10367000108210BD0021018041808180C18070478F
:1036800021B1828942F40052828104E082894DF6A0
:10369000FF731A408281704702460020B1F5007F17
:1036A00000D100BF13880B400BB1012000E00020C7
:1036B000704770B50246002400230025002040F624
:1036C0006A16B14200D100BFC1F3421501F01F03D9
:1036D000012606FA03F3012D02D19689334006E054
:1036E000022D02D1168A334001E0968A33400C1233
:1036F000012606FA04F41688344013B10CB10120F7
:1037000000E0002070BDF0B503460024002600252F
:10371000002040F66A17B94200D100BF1846C1F335
:10372000421401F01F06012707FA06F5012C01D10A
:103730000C3004E0022C01D1103000E014301AB13A
:1037400007682F43076002E00768AF430760F0BDDA
:103750002DE9FF4705460E460024A14600BFA046BE
:10376000B08900B100BF2C8A24F44054F08804438F
:103770002C82AC8941F20C608443B08831890843C3
:10378000718908430443AC81AC8A24F44074B08945
:103790000443AC826846FEF733FA2048854202D0E3
:1037A0001F48854202D1DDF80C9001E0DDF8089059
:1037B000A88900F4004040B109EBC90000EB0910F2
:1037C00031684900B0FBF1F707E009EBC90000EBF5
:1037D000091031688900B0FBF1F76420B7FBF0F005
:1037E00004012009642101FB1078A88900F400403D
:1037F00040B1322000EBC800B0FBF1F000F0070050
:10380000044308E0322000EB08106421B0FBF1F023
:1038100000F00F0004432C81BDE8FF870010014039
:103820000014014001468888C0F308007047C1F3C6
:103830000802828070474FF4165101600021818098
:10384000C18001810C2141810021818170470000EC
:1038500002A000F00FF800BFFEE700000A0D20559F
:10386000736167654661756C745F48616E646C6511
:10387000722000000FB4054B10B503A9044A02984A
:1038800000F02CF810BC5DF814FB0000114E00088D
:10389000740000200FB4084B10B504A902AA0398C5
:1038A00000F01CF8044602A9002000F0C1F82046F0
:1038B00010BC5DF814FB0000313A000802E008C8B3
:1038C000121F08C1002AFAD170477047002001E09A
:1038D00001C1121F002AFBD1704700002DE9FF4FE4
:1038E00089B09B460446002506E025280BD05A46A1
:1038F0000B999047641C6D1C20780028F5D10DB001
:103900002846BDE8F08F0027B8460122474900E06D
:10391000074314F8013F203B02FA03F00842F7D1B5
:1039200020782E2819D114F8010F47F004072A280F
:103930000ED06FF02F022078A0F1300109290CD8A9
:1039400008EB880102EB410100EB0108641CF2E77F
:103950000A98641C50F8048B0A9020780028CED076
:10396000642808D0692806D075281ED05A460B99BD
:1039700090476D1C58E00A994FF00A0901C90A9155
:10398000002802DA40422D2102E0390504D52B211E
:103990008DF82010012103E0F90704D02021F7E77A
:1039A0008A4608AE0DE00021FAE70A994FF00A09AD
:1039B00001C90A91F7E74946FCF733FC303106F8B4
:1039C000011D0028F7D1ADEB060000F120097807B2
:1039D00001D44FF00108C84502DDA8EB090000E062
:1039E00000208046002706E008A85A46C05D0B99D3
:1039F00090476D1C7F1C5745F6DB04E030205A468B
:103A00000B9990476D1CB8F10001A8F10108F5DC95
:103A100005E016F8010B5A460B9990476D1CB9F159
:103A20000001A9F10109F4DC641C65E70928010023
:103A30000A68531C0B6010707047000070B5044694
:103A40000D46607801232A4604F1380100F03BFD61
:103A500008B1032070BD94F8361294F8370241EA99
:103A600000204AF65521884201D00220F2E794F85E
:103A70007100010694F8700041EA004194F86F006B
:103A800041EA002094F86E10084320F07F400E4970
:103A9000884201D10020DDE794F88D00010694F8FA
:103AA0008C0041EA004194F88B0041EA002094F830
:103AB0008A10084320F07F400349884201D100204A
:103AC000C8E70120C6E7000046415400024600E076
:103AD000521C107810B110788842F9D110787047D4
:103AE0002DE9F74F88B00898006801900198007898
:103AF00030380790079809280AD8019840783A2862
:103B000006D10198801C019008990198086002E094
:103B1000D74800780790002109980160079818B1EC
:103B20000B200BB0BDE8F08FD249079851F8204028
:103B30000CB90C20F5E709980460207878B160781A
:103B400000F006FD804608F0010040B90A9820B157
:103B500008F0040008B10A20E3E70020E1E70020B4
:103B6000207007986070607800F08AFC804608F04A
:103B7000010008B10320D4E70A9820B108F004003E
:103B800008B10A20CDE74FF0000949462046FFF76B
:103B900055FF054600BF012D21D14FF0000BBBF1B1
:103BA000000F03D0ABF1010000F0FF0B4FF4DF700A
:103BB00000EB0B1104F138000F18387978B1F87A5E
:103BC0000106B87A41EA0041787A41EA0020397A60
:103BD00040EA010949462046FFF730FF0546032D1C
:103BE00001D101209DE70DB10D209AE74320015D31
:103BF00094F8440041EA0020B0F5007F01D00D2088
:103C00008FE74E20015D94F84F0041EA002ABAF197
:103C1000000F0ED194F85F00010694F85E0041EAAF
:103C2000004194F85D0041EA002094F85C1040EAFD
:103C3000010AC4F820A04820065DE670012E03D0DA
:103C4000022E01D00D206CE70AFB06FA4520005D2C
:103C50000646A07016B1701E304008B10D2060E716
:103C60004920015D94F84A0041EA00202081207A31
:103C700000F00F0008B10D2053E74B20015D94F8D0
:103C80004C0041EA00200690069870B994F85B0059
:103C9000010694F85A0041EA004194F8590041EABB
:103CA000002094F85810084306904620015D94F8CF
:103CB000470041EA00200290029808B90D2030E741
:103CC00002985044218900EB11100590DDE90501AF
:103CD000814201D20D2024E7DDE90510401AA178C8
:103CE000B0FBF1F00490049808B90D2019E7012504
:103CF00040F6F6710498884200D302254FF6F6711B
:103D00000498884200D303250498801CE061C4F81D
:103D1000249002984844A062059848442063032DEB
:103D200016D1208908B10D20FBE694F86700010642
:103D300094F8660041EA004194F8650041EA0020E9
:103D400094F864100843E062E0698000039014E096
:103D5000208908B90D20E4E6A06A5044E062022DF3
:103D600002D1E069400007E0207F00F00100E16936
:103D700001EB410100EB51000390216A039800F22E
:103D8000FF10B1EB502F01D20D20CAE64FF0FF30EB
:103D900020610020E060032D5CD1607194F8681010
:103DA00094F8690041EA002048446061607801238A
:103DB00004F13801626900F086FBE8BB94F8361222
:103DC00094F8370241EA00204AF65521884241D151
:103DD0003B20005D01063A20005D41EA00413920A8
:103DE000005D41EA002094F83810084322498842D7
:103DF00030D194F81F02010694F81E0241EA0041F6
:103E000094F81D0241EA002094F81C1208431B4953
:103E100088421FD194F82702010694F8260241EA4D
:103E2000004194F8250241EA002094F82412084346
:103E3000E06094F8230200E00CE0010694F822020E
:103E400041EA004194F8210241EA002094F820124E
:103E50000843206125700A480088401C80B2084948
:103E60000880E080002060632071A06100BF58E6F8
:103E70005600002050000020525261417272416190
:103E8000540000200246891ED069801E884201D855
:103E9000002070479378106B01FB0300F9E72DE9D0
:103EA000F04704468946B9F1000F06D1E76817B11B
:103EB000E069B84211D801270FE04946204600F0DA
:103EC000B9FF0646022E02D20120BDE8F087E06964
:103ED000B04201D93046F8E74F463D4600BF6D1C61
:103EE000E069A84204D80225BD4201D90020ECE7D0
:103EF0002946204600F09EFF064606B909E0701CE0
:103F000008B1012E01D13046DFE7BD42E7D10020E4
:103F1000DBE700BF6FF070422946204601F051F9FF
:103F20008046B8F1000F08D1B9F1000F05D02A463C
:103F30004946204601F045F98046B8F1000F09D105
:103F4000E5602069401C68B12069401E20610120A5
:103F5000607107E0B8F1010F02D14FF0FF3000E0CF
:103F6000012005462846B0E72DE9F35F8A46DAF8D6
:103F7000007000E07F1C38782F28FBD038785C2850
:103F8000F8D0009886690B222021304601F0F6F81F
:103F90000025A946A8464FF0080B17F808002E2860
:103FA00025D100BF404608F101083C5C2E2C02D10F
:103FB000B8F1030F00D304E0484609F10109345475
:103FC000F0E700BF2F2C06D05C2C04D0202C02DDA3
:103FD0000620BDE8FC9F07EB0800CAF80000202C73
:103FE00001DC242000E02020F0720020F1E700BF77
:103FF000404608F101083C5C202C03DD2F2C01D049
:104000005C2C00D135E02E2C01D0D9450DD3BBF16D
:10401000080F01D12E2C01D00620DAE74FF0080955
:104020004FF00B0BA806050EE2E7802C05DB45F0F0
:104030000305A4F1800023490C5C214622A0FFF770
:1040400045FD08B10620C4E7412C04DB5A2C02DCF4
:1040500045F0020508E0612C06DB7A2C04DC45F013
:104060000105A4F12000C4B2484609F10109345405
:10407000BEE700BF07EB0800CAF80000202C01DCF7
:10408000042000E000200446B9F1000F01D1062011
:104090009FE73078E52801D105203070BBF1080F8B
:1040A00001D1A806050E05F00300012801D144F056
:1040B000100405F00C00042801D144F00804F47247
:1040C000002086E7C0540008222A2B2C3A3B3C3DB6
:1040D0003E3F5B5D7C7F000010B504466FF004003E
:1040E000FFF724F9E11704EB5171C1F3C701074A47
:1040F00011701046007800EB4001C1EBC0104FF684
:10410000FF7101EAC0000249088010BD580000207C
:104110005A00002070B504464FF4077094FBF0F08D
:10412000C6B24FF4077094FBF0F100FB114085B26A
:1041300005E04FF4077000F02FF8701EC6B2002E95
:10414000F7D115B1284600F027F870BD0146114A95
:1041500012784A434FF0E0235A6100229A611A46CE
:10416000126942F001021A6100BF4FF0E0221069AB
:1041700000F001021AB100F48032002AF5D04FF0AD
:10418000E022126922F001024FF0E0231A610022BE
:104190009A617047580000200146114A12884A432C
:1041A0004FF0E0235A6100229A611A46126942F0E8
:1041B00001021A6100BF4FF0E022106900F0010215
:1041C0001AB100F48032002AF5D04FF0E0221269D3
:1041D00022F001024FF0E0231A6100229A61704739
:1041E0005A0000202DE9F04104460E4600212046E9
:1041F00000F0F8F80546EDB9002700BF21692068F6
:1042000000F0C6FF054605B113E060690078E528B7
:1042100002D06069007820B9781C0746B04201D10D
:1042200007E000270121204600F035F80546002D63
:10423000E4D000BF2846BDE8F0812DE9F0410446F6
:104240000021204600F0CEF8054615B12846BDE80D
:10425000F08100BF2169206800F09AFF054605B192
:1042600016E0666937780FB9042511E0F07A00F09E
:10427000080030B90B223046A16900F05FFF00B999
:1042800006E00021204600F006F80546002DE1D0AA
:1042900000BF2846DBE72DE9F0410446884600BF11
:1042A000E088401C86B20EB1206910B90420BDE838
:1042B000F08106F00F0000286DD12069401C2061BC
:1042C000E06828B920680089B04264DC0420EEE789
:1042D00020688078401E00EA161000285BD1E16853
:1042E000206800F0A7FD0546012D01D80220DEE779
:1042F000681C08B90120DAE72068C069A84244D8E0
:10430000B8F1000F01D10420D1E7E1682068FFF780
:10431000C6FD05460DB90720C9E7012D01D10220D0
:10432000C5E7681C08B90120C1E7206801F084F8DE
:1043300008B10120BBE7216801F138004FF4007299
:10434000002100F01BFF29462068FFF79BFD216834
:10435000486300270FE0012021680871206801F000
:104360006BF808B10120A2E72068406B401C21686F
:104370004863781CC7B220688078B842EBDC2068BC
:10438000406BC01B2168486300BFE5602946206878
:10439000FFF778FD2061E6802068383006F00F01D5
:1043A00000EB41106061002081E770B504460121F7
:1043B0002046FFF717FF054695B92169206800F0F0
:1043C000E7FE054665B920220021606900F0D6FEAF
:1043D0000B22D4E9050100F0C4FE01202168087118
:1043E000284670BD2DE9F04104460E46E680A568DA
:1043F000012D03D02068C069A84202D80220BDE880
:10440000F0812DB920680078032801D12068C56AA1
:1044100065B9E56020680089B04201DC0220EEE762
:104420002068C06A00EB1610206120E020688078C8
:10443000070112E02946206800F0FCFC0546681CD4
:1044400008B90120DBE7022D03D32068C069A84228
:1044500001D80220D3E7F01B86B2BE42EADAE5605B
:1044600029462068FFF70EFD00EB1610206120683A
:10447000383006F00F0100EB411060610020BEE70C
:1044800070B50446C4B90D480078012803D100BFB7
:1044900000BF002070BD00BF00BFFEF759F8050047
:1044A00003D000BF00BF0120F4E7012003490870DA
:1044B00000BF00BF0020EDE70120EBE74E00002029
:1044C0000346042070472DE9F84306460F4615467B
:1044D00098464FF00009002E38D100BF00BFB8F158
:1044E000010F19DC00BF00BF4FF4007069020A46DB
:1044F000002300903846FEF737FB044600BF00BF9C
:10450000FEF780FC044600BFFEF713F80028FBD13D
:10451000CCB14FF0010916E000BF00BF690243466D
:104520004FF400723846FEF797FB044600BF00BF09
:10453000FEF768FC044600BFFDF7FBFF0028FBD137
:104540000CB14FF001094846BDE8F8830420FBE7B1
:10455000014631B90448007808B9012070470020AD
:10456000FCE70120FAE700004E0000202DE9F843A7
:1045700006460F46154698464FF00009002E38D1E2
:1045800000BF00BFB8F1010F19DC00BF00BF4FF43E
:10459000007069020A46002300903846FEF7B2FC1C
:1045A000044600BF00BFFEF76DFC044600BFFDF7E8
:1045B000C0FF0028FBD1CCB14FF0010916E000BFCD
:1045C00000BF690243464FF400723846FEF710FD03
:1045D000044600BF00BFFEF755FC044600BFFDF7D0
:1045E000A8FF0028FBD10CB14FF001094846BDE8F7
:1045F000F8830420FBE770B50446204600F052FA29
:1046000005460DB900202060284670BD0246012AEB
:1046100001DB0B207047074850F822300BB1002017
:10462000187009B100200870024840F822100020DC
:10463000F0E70000500000202DE9F7438AB005465E
:1046400016461DB909200DB0BDE8F0830020286092
:1046500006F01F0626F0010203A90BA8FFF740FA97
:104660000746002F7ED1CDF824D003A80B9900F087
:1046700077FB0746089C0FB904B9062706F01C0013
:10468000002851D04FB1042F03D103A8FFF78DFEAE
:10469000074646F00806089C09E0E07A00F01100A1
:1046A00008B1072703E006F0040000B10827002F37
:1046B00039D106F00800002835D000F02DFC8046E6
:1046C00084F80E804FEA1821E1734FEA18412174F3
:1046D0004FEA186161740020E07220770021617751
:1046E000A177E1772146039800F01AFC814600216A
:1046F000204600F035FE012003990871B9F1000F42
:1047000011D00398D0F834804946039800F0F4FDA6
:10471000074647B9A9F101000399C86041460398CB
:1047200000F036FD07460EE06FB9E07A00F01000A9
:1047300008B1042707E006F0020020B1E07A00F09B
:10474000010000B1072747B906F0080008B146F09C
:1047500020060398406BE8612C621FB9AE712146B8
:10476000039800E015E000F0DBFB2861E07F010624
:10477000A07F41EA0041607F41EA0020217F084399
:10478000E8600020A860A861039828600398C088AA
:10479000A880384657E70FB42DE9F04F89B014A828
:1047A00008900020824600903BE1139810F8014BDE
:1047B000139004B93AE1252C0AD02046129900F052
:1047C00043F982460AF1010008B14FF0010A25E1E0
:1047D000002007468346139810F8014B1390302CA5
:1047E00005D10127139810F8014B139006E02D2CEA
:1047F00004D10227139810F8014B139009E00BEB3A
:104800008B0004EB4000A0F1300B139810F8014B23
:104810001390302C01DB392CF1DD6C2C01D04C2CA9
:1048200005D147F00407139810F8014B139004B911
:10483000FCE02546612D04DB7A2D02DCA5F1200089
:10484000C5B24F2D52D006DC422D4CD0432D40D066
:10485000442D55D14DE0532D04D0552D4AD0582D1F
:104860004ED14AE00898006801900898001D089011
:104870004FF0000901E009F10109019810F8090061
:104880000028F8D1002607F0020058B905E02020E2
:10489000129900F0D9F882460644484609F1010908
:1048A0005845F4D31299019800F0E7F8824606447F
:1048B00005E02020129900F0C7F8824606444846D9
:1048C00009F101095845F4D30AF1010000B1B246DB
:1048D000A4E0089911F8042BD0B20891129900F0C5
:1048E000B3F882469AE0022007900FE00820079074
:1048F0000CE000BF0A20079008E01020079005E0B8
:104900002046129900F0A0F8824687E000BF07F029
:10491000040028B1089800680899091D08910CE066
:10492000442D05D1089800680899091D089104E0F4
:10493000089800680899091D08910690442D08D12F
:10494000069800F0004020B106984042069047F0DB
:1049500008074FF0000800BFDDE90601B0FBF1F2E7
:1049600001FB1200C5B2DDE90601B0FBF1F00690D3
:10497000092D06DD782C01D1272000E007202844EE
:10498000C5B205F13000C2B2404608F1010802A9E3
:104990000A54069810B1B8F1100FDDD307F00800E3
:1049A00028B12D22404608F1010802A90A54C14647
:1049B00007F0010008B1302000E020200546002665
:1049C00005E02846129900F03FF88246064407F0B9
:1049D000020020B9484609F101095845F1D300BF4A
:1049E000A8F10101884602AA505C129900F02CF847
:1049F00082460644B8F1000FF2D105E0202012995A
:104A000000F022F882460644484609F1010958455B
:104A1000F4D30AF1010000B1B24600BF009850443F
:104A200000900AF1010000287FF4BFAE00BF002013
:104A300008900AF1010028B9504609B0BDE8F00F0E
:104A40005DF814FB0098F8E77CB504460E460A2C86
:104A500003D131460D20FFF7F7FF8DF80040012507
:104A600001AB2A466946304600F074F80198A84226
:104A700000D17CBD4FF0FF30FBE770B504460E4619
:104A800000250AE020783146FFF7DEFF401C10B910
:104A90004FF0FF3070BD641C6D1C20780028F1D1F0
:104AA0002846F7E72DE9F0410446204600F0EDFCEA
:104AB0000746002F4CD1A07900F02000002847D0F5
:104AC000A07900F0400078B121684878012304F112
:104AD0002401A269FFF74AFD10B10120BDE8F08171
:104AE000A07920F04000A071E169206800F050FB3F
:104AF0000746002F2CD1256AE87A40F02000E872A2
:104B0000207B2877A089010A6977E068010CA977E2
:104B1000E068010EE9772846216900F021FC00F0E9
:104B2000FBF90646AE75310AE975310C2976310E6E
:104B300069760020A8740021E974A07920F0200093
:104B4000A071012021680871206800F011FC07465F
:104B50003846C3E72DE9FF4F83B0044615469B4610
:104B6000049801900020CBF80000204600F08DFC56
:104B70000290029818B1029807B0BDE8F08FA079B2
:104B800000F0800008B10220F6E7A07900F00200F2
:104B900008B90720F0E7E0682844E168884200D2BD
:104BA0000025CDE02089C0F30800002877D12068D7
:104BB0008078401EA16800EA512000F0FF0ABAF197
:104BC000000F2AD1A06858B9D4F81080B8F1000FAE
:104BD0000BD100212068FFF762F98046206104E0D4
:104BE00061692068FFF75BF98046B8F1000F00D1DA
:104BF000A9E0B8F1010F05D1A07940F08000A071C3
:104C00000220B9E708F1010028B9A07940F080003E
:104C1000A0710120B0E7C4F81480A07900F0400032
:104C200090B121684878012304F12401A269FFF7BB
:104C30009DFC28B1A07940F08000A07101209BE785
:104C4000A07920F04000A07161692068FFF71AF98F
:104C500006462EB9A07940F08000A07102208BE7B3
:104C600056444FEA5529B9F1000F2FD00AEB09003D
:104C700021688978884203D920688078A0EB0A09E6
:104C800009F0FF032168487832460199FFF76EFC6E
:104C900030B1A07940F08000A07101206CE72CE0D9
:104CA000A069801B48450ED2A069801B019A02EBC7
:104CB00040214FF4007204F1240000F052FAA07970
:104CC00020F04000A0714FEA49272DE0A069B042D2
:104CD00012D0D4E9020188420ED22168487801231B
:104CE000324604F12401FFF7EEFB28B1A07940F031
:104CF0008000A07101203FE7A6612089C0F3080071
:104D0000C0F50077AF4200D92F462189C1F30802D0
:104D100004F1240150183A46019900F022FAA079D2
:104D200040F04000A07100BF019838440190A06895
:104D30003844A060DBF800003844CBF80000ED1BDD
:104D4000002D7FF42FAF00BFD4E90201884201D9C2
:104D5000A068E060A07940F02000A07100200BE77F
:104D60002DE9F3410446019800782F2803D00198DB
:104D700000785C2805D10198401C01900020A060BB
:104D800002E020688069A06001980078202807D29E
:104D900000212046FFF726FB05460020606133E036
:104DA00000BF01A92046FFF7DFF8054605B12AE05C
:104DB0002046FFF742FA0546A069C67A95B1042D50
:104DC00000D020E006F0200038B10020A060606133
:104DD000002506F0040020B9E3E706F0040000B95E
:104DE000052510E006F0040000B10CE06769F87AD0
:104DF00000F0100008B9052505E03946206800F0EC
:104E00008FF8A060CDE700BF2846BDE8FC81000018
:104E100070B504460D46E1B20548FEF708FD00BF37
:104E200040210348FEF738FC0028F9D0204670BD29
:104E3000001401402DE9F04105460C46022C02D336
:104E4000E869A04202D80120BDE8F0812878012855
:104E500004D002282CD003285AD13DE0274607EB86
:104E60005707A86A00EB5721284600F091F900B1D6
:104E70004EE0C7F3080105F1380010F801807F1CEF
:104E8000A86A00EB5721284600F082F900B13FE004
:104E9000C7F3080105F13800405C48EA002804F037
:104EA000010010B14FEA1810CEE7C8F30B00CBE7B2
:104EB000A86A00EB1421284600F06AF900B127E047
:104EC00040F2FF1000EA440105F138000E18307876
:104ED000717840EA0120B7E7A86A00EBD4112846B0
:104EE00000F056F900B113E040F2FF1000EA84012F
:104EF00005F138000E18F0780006B17840EA01405C
:104F0000717840EA01203178084320F070409BE737
:104F100000BF4FF0FF3097E70048704700681E431E
:104F200010B502468C7ECB7E44EA03201378032B17
:104F300005D10C7D4B7D44EA032340EA034010BDBC
:104F40000025002400265C48008842F2107191FB85
:104F5000F0F6A820FFF7C0F8FCF7BAFCFCF7E8FC75
:104F6000711E88B242F2CF01FEF72EFBFDF7C2FCA4
:104F7000FEF70CF9FBF71AFAFBF7B0F9FBF798F913
:104F8000FCF776F90A20FFF7C5F8FCF7BEFB0A200C
:104F9000FFF7C0F8FBF7B6FE0A20FFF7BBF8FCF7F7
:104FA000A6FA0A20FFF7B6F8FCF708F80A20FFF780
:104FB000B1F8FCF723FB0A20FFF7ACF8FCF798FBED
:104FC0003E490870FCF786FA3D490870FCF709FB7A
:104FD0003C4908704FF480623B493C48FCF75AFD5D
:104FE000364800783649097808403649097808403B
:104FF00028B14FF400713648FBF73CFE04E04FF453
:1050000000713348FBF738FEFDF7A2FA314908601A
:1050100031490020FFF7FAFA2E4908600846016876
:105020002EA0FEF727FC002234A13748FEF732FC01
:105030000A2235493548FFF7FFFA26490860084635
:10504000016833A0FEF716FC2248006810B9012061
:10505000374908702FE0642236491C48FCF763FD8D
:1050600034492A48FFF797FB1A490860002404E0F6
:10507000002030490855601CC4B2782CF8D32E4863
:1050800000880D490988884207DD2048FFF70AFD9E
:10509000002029490880681CC5B23C2D0BDD1B4847
:1050A000FFF7A9FA00250020214908704FF400718C
:1050B0000748FBF7E1FDCEE73C000020330000206D
:1050C00034000020350000208A0500208C090020D3
:1050D0000004024008000020780000205468652089
:1050E000726573756C74206F66205344206C6F6119
:1050F00064206973202564200A000000544553543D
:105100005F25642E545854007E050020B002002014
:1051100054686520726573756C74206F66206F70BB
:10512000656E2066696C65206973202564200A001D
:10513000320000200605002030000020F0B50346B4
:105140001C460D46002000BF1600A2F1010207D048
:1051500014F8017B15F801CBA7EB0C063000F3D057
:10516000F0BD70B503460C4603E014F8015B03F88C
:10517000015B1500A2F10102F7D170BD30B5034605
:1051800001E003F8011B1400A2F10102F9D130BDC6
:1051900070B504460D46606BA84210D0204600F062
:1051A0004BF908B1012070BD607801232A4604F153
:1051B0003801FFF788F908B10120F4E765630020A2
:1051C000F1E72DE9F04705460E461746022E02D3B9
:1051D000E869B04202D84FF002088AE02878012836
:1051E00004D0022841D003287DD154E0B14609EB18
:1051F0005909A86A00EB59212846FFF7C9FF8046E4
:10520000B8F1000F00D071E0C9F3080105F13800D2
:105210000C1806F0010020B1F9B2207861F31F10DC
:1052200000E03846207009F1010901202871A86AC0
:1052300000EB59212846FFF7ABFF8046B8F1000F7D
:1052400000D053E0C9F3080105F138000C1806F04E
:10525000010010B1C7F3071005E0207800F0F0005E
:10526000C7F303210843207040E0A86A00EB162131
:105270002846FFF78DFF8046B8F1000F00D035E0DB
:1052800040F2FF1000EA460105F138000C182770C3
:10529000380A60702AE0A86A00EBD6112846FFF7AA
:1052A00077FF8046B8F1000F00D01FE040F2FF10FA
:1052B00000EA860105F138000C18E0780006A178B4
:1052C00040EA0140617840EA01202178084300F07B
:1052D000704007432770380A6070380CA070380E91
:1052E000E07003E0FFE74FF0020800BF00BF0120BD
:1052F00028714046BDE8F0872DE9F04104460E468E
:10530000022E02D3E069B04201D8022725E000272F
:105310001FE031462046FFF78DFD054605B91BE02D
:10532000012D01D1022717E0681C08B9012713E0FD
:10533000002231462046FFF744FF074607B10BE045
:105340002069401C20B12069401C2061012060714F
:105350002E46E069B042DCD800BF3846BDE8F08197
:1053600081760B0AC3760A0C02750B0E43757047E3
:1053700070B50446204600F05FF80546002D59D16F
:10538000207803284FD1607900284CD0002060633A
:105390004FF40072002104F13800FFF7EFFE5521B1
:1053A00084F83612AA2184F83712522084F8380083
:1053B00052213920015561213A20015541213B20DC
:1053C0000155722184F81C1284F81D12412184F8C1
:1053D0001E12612184F81F12217C84F82012208A79
:1053E000010A84F821122069010C84F82212206934
:1053F000010E84F82312217B84F82412A089010A6B
:1054000084F82512E068010C84F82612E068010E89
:1054100084F827126078012304F138016269FFF7EC
:10542000A5F800206071607800221146FFF748F867
:1054300000B10125284670BD70B50446207910B32F
:10544000656B607801232A4604F13801FFF78EF876
:1054500008B1012070BD00202071A06AA84212D8B6
:10546000216AA06A0844A8420DD9E67809E0206ABA
:105470000544607801232A4604F13801FFF776F8E5
:10548000761E022EF3D20020E4E770B505462C46C6
:105490004CB1206838B12068007820B12068C088FD
:1054A000A188884201D0092070BD21684878FFF7A3
:1054B0004FF800F0010008B10320F5E70020F3E702
:1054C000808182838485868788898A8B8C8D8E8F64
:1054D000909192939495969798999A9B9C9D9E9F54
:1054E000808182838485868788898A8B8C8D8E8F44
:1054F000B0B1B2B3B4B5B6B7B8B9BABBBCBDBEBF34
:10550000C0C1C2C3C4C5C6C7C8C9CACBCCCDCECF23
:10551000D0D1D2D3D4D5D6D7D8D9DADBDCDDDEDF13
:10552000909192939D95969798999A9B9C9D9E9FFA
:10553000F0F0F2F2F4F4F6F6F8F9FAFBFCFDFEFFF7
:10554000605500080000002078000000BC3800080A
:10555000D855000878000020F80D0000CC3800086D
:10556000000000000000000000000000000000003B
:10557000000000000000000000000000000000002B
:105580000000000000000000010100000000000019
:10559000000000000000000000000000FA00000011
:1055A00000000102030401020304060708090000C9
:1055B00000000000000000000000000001000000EA
:1055C00000000000000000000000000000000000DB
:0855D0000000000000000000D3
:040000050800018965
:00000001FF
