:020000040800F2
:10000000E0B00120A501000825180008F10B000848
:100010000118000885040008913E00080000000057
:10002000000000000000000000000000653800082B
:100030005509000800000000B91800087D390008C3
:10004000BF010008BF010008BF010008BF01000890
:10005000BF010008BF010008BF010008BF01000880
:10006000BF010008BF010008BF010008BF01000870
:10007000BF010008BF010008BF010008BF01000860
:10008000BF010008BF010008E9030008BF01000824
:10009000BF010008BF010008BF010008BF01000840
:1000A000BF010008BF010008BF010008BF01000830
:1000B000BF010008E9390008653A0008BF010008DF
:1000C000BF010008BF010008BF010008BF01000810
:1000D000BF010008613C0008BF010008BF01000823
:1000E000BF010008BF010008BF010008BF010008F0
:1000F000BF010008BF010008BF010008BF010008E0
:10010000BF010008B51E0008BF010008BF010008BC
:10011000BF010008BF010008BF010008BF010008BF
:10012000A9060008BF010008BF010008BF010008C0
:10013000BF010008BF010008BF010008BF0100089F
:10014000BF010008BF010008BF010008BF0100088F
:10015000BF010008BF010008BF010008BF0100087F
:10016000BF010008BF010008BF010008BF0100086F
:10017000BF010008BF010008BF010008BF0100085F
:10018000BF010008BF010008DFF80CD000F0B2F892
:10019000004800476D580008E0B0012072B6704773
:1001A00062B670470648804706480047FEE7FEE70C
:1001B000FEE7FEE7FEE7FEE7FEE7FEE7FEE7FEE717
:1001C00081390008890100082DE9F0410024254605
:1001D000002905DA01240027D0EB070067EB0101B5
:1001E000002B05DA0027D2EB0702012567EB03039A
:1001F00000F03FF886460E4617469C46AC4204D0B7
:100200000025D0EB050E65EB010624B10020D2EBF2
:10021000000760EB030C704631463A466346BDE882
:10022000F08140EA01039B0703D009E008C9121FCF
:1002300008C0042AFAD203E011F8013B00F8013BA0
:10024000521EF9D2704730B50B46014600202022DD
:10025000012409E021FA02F59D4205D303FA02F5D3
:10026000491B04FA02F52844151EA2F10102F1DC33
:1002700030BD2DE9F05F0546002092469B4688463A
:100280000646814640241BE0284641464746224612
:1002900000F020F853465A46C01A914110D3114637
:1002A0001846224600F038F82D1A67EB01084F4631
:1002B00022460120002100F02FF817EB00094E41E3
:1002C000201EA4F10104DFDC484631462A4643469D
:1002D000BDE8F09F202A04DB203A21FA02F0002139
:1002E000704721FA02F3D040C2F120029140084346
:1002F00019467047064C074D06E0E06840F00103E0
:1003000094E8070098471034AC42F6D3FFF740FF5B
:100310005C0C03087C0C0308202A04DB203A00FA5A
:1003200002F1002070479140C2F1200320FA03F34C
:10033000194390407047000010B5012004F028F9DF
:100340008021074800F046FC4021054800F044FCAD
:100350002021034800F040FC012004F019F910BDF1
:100360000004024010B501210C4800F033FC0120CC
:1003700004F02AF90121094800F02EFC012004F0C4
:1003800023F90121054800F025FC012004F01CF9A7
:100390004FF48061014800F01FFC10BD00040240D2
:1003A00000220A12D3430360704721B1826842F0F1
:1003B0000102826003E0826822F0010282607047DD
:1003C00070B502460020002300240B125568012658
:1003D0008E4005EA060415681D4015B10CB10120D8
:1003E00000E0002070BD000010B54FF48371094893
:1003F000FFF7E6FF01280BD14FF483710548FFF7A3
:10040000CFFF00210348FFF7D0FF03A003F052FD08
:1004100010BD000000220140496E707574206973A0
:10042000206F7574206F6620746872657264212174
:10043000000000001CB50121022001F021FB40F268
:10044000F350009001208DF8040000208DF8060084
:1004500002208DF805006946094800F047FB04209A
:10046000009000208DF804008DF806008DF807003C
:1004700002208DF805006946014800F037FB1CBDDD
:100480000004024002A003F015FD00BFFEE70000DB
:100490000A0D204275734661756C745F48616E6425
:1004A0006C6572200000000070B500254FF48034A8
:1004B00004E0802001F0EAFC00B103E02000A4F198
:1004C0000104F6D100BF0CB9032070BD40F2FF500B
:1004D00001F0B2FC2846F8E770B5044605E016487E
:1004E000056805F0450000B100E0F8E700BF042012
:1004F00001F0CCFC20B1042001F09EFC032070BD73
:10050000012001F0C3FC20B1012001F095FC012085
:10051000F5E7094824380068A04201D01020EEE732
:1005200040F2FF5001F088FC0348203800680821A1
:100530000840C0B2E3E70000342C014070B500264B
:100540004FF4803505E01148046804F0450000B11F
:1005500003E02800A5F10105F5D100BF15B104F0B5
:10056000040028B10326042001F066FC304670BD6B
:10057000012001F08BFC18B10126012001F05CFC88
:1005800040F2FF5001F058FC3046F0E7342C0140B7
:1005900010B505E00B48046804F0450000B100E028
:1005A000F8E700BF042001F071FC20B1042001F045
:1005B00043FC032010BD40F2FF5001F03DFC002041
:1005C000F8E70000342C01402DE9F04105460E46C5
:1005D0004FF0000805E02048076807F0450000B12B
:1005E00000E0F8E700BF042001F050FC28B104202F
:1005F00001F022FC0320BDE8F081012001F046FC5F
:1006000020B1012001F018FC0120F4E71248243841
:100610000068A84201D01020EDE740F2FF5001F041
:100620000BFC0D482038046804F4604018B9200C15
:1006300030804046DFE704F4005008B11320DAE7C9
:1006400004F4804008B11020D5E704F4004008B15C
:100650000F20D0E74046CEE7342C014070B500268D
:100660004FF4803505E00F48046804F0450000B100
:1006700003E02800A5F10105F5D100BF15B104F094
:10068000040028B10326042001F0D6FB304670BDDB
:1006900004F0400018B10026402001F0CDFB3046A8
:1006A000F5E70000342C014010B50549054800F07D
:1006B000F3F818B10249034800F006F810BD000035
:1006C00020800010106402400246094B9A4201D279
:1006D000084801E00648103801F000531BB1064BF2
:1006E0000B40C36002E0044B0B4083607047000086
:1006F00010640240006002407D0F7D0F21B102684E
:1007000042F00102026003E0026822F0010202608E
:1007100070470000016821F00101016000210160C3
:1007200041608160C1600161212141614A49884283
:1007300004D13D21484A103A91608CE04649183175
:10074000884205D14FF47461434A103A916082E0C7
:1007500041493031884205D14FF474113E4A103A74
:10076000916078E03C494831884205D14FF074618E
:10077000394A103A91606EE037496031884204D1BD
:100780003649354A103AD16065E0334978318842BC
:1007900004D13349304A103AD1605CE02E4990319F
:1007A000884204D12F492C4A103AD16053E02A499B
:1007B000A831884205D14FF03D51274A103AD16007
:1007C00049E02949884204D13D21274A083A11606D
:1007D00041E025491831884205D14FF47461224A1D
:1007E000083A116037E020493031884205D14FF492
:1007F00074111D4A083A11602DE01B4948318842A6
:1008000005D14FF07461184A083A116023E0164987
:100810006031884204D11149134A121F11601AE055
:1008200011497831884204D10D490F4A121F1160D5
:1008300011E00D499031884204D10A490A4A121F39
:10084000116008E00849A831884204D14FF03D51B9
:10085000054A121F11607047106002403D000020E1
:10086000400F002000003D201064024021B10268CA
:1008700042F02002026003E0026822F020020260DF
:100880007047014600200A6802F001020AB1012007
:1008900000E000207047000070B5024600200024F0
:1008A0000025124EB24201D2114B01E00F4B103B1A
:1008B000104E0E4036B11E2606EAD124166806EA0E
:1008C000040502E0566906F0800501F000560EB1FD
:1008D0005C6800E01C68084E344004EA010616B16A
:1008E0000DB1012000E0002070BD00001064024046
:1008F000006002403C0F3C0F7D0F7D0F10B50022C1
:100900000268134B1A40CC680B6823434C6923439D
:100910008C692343CC6923430C6A23434C6A2343E9
:100920008C6A23434C6B23438C6B23431A43026032
:10093000426922F00702D1E90B3423431A43426192
:100940000B6943604B6883608B68C36010BD000017
:100950003F801CF0704700002DE9FC4107460D4622
:100960000026002400200090019008205B490860C8
:1009700010204860402088600020C8604FF48060EC
:100980000861084601F0CEFA1020FFF7A5FD0446E5
:1009900014B12046BDE8FC815148008800044F494D
:1009A000086037204860402088600020C8604FF40D
:1009B00080600861084601F0B5FA3720FFF78CFD2A
:1009C00004460CB12046E5E74FF0FF30454908608A
:1009D00008204860302088600220C860002008613C
:1009E00001204861084601F037FA00203B490860C1
:1009F00033204860402088600020C8604FF4806049
:100A00000861084601F08EFA3320FFF765FD0446C1
:100A10000CB12046BEE70CE04FF4001001F036FAAE
:100A200038B1314800684DF82600761C022E00D3FC
:100A300007E02D484C38006840F22A610840002841
:100A4000EAD000BF082001F021FA20B1082001F00F
:100A5000F3F904209EE7022001F018FA20B10220E9
:100A600001F0EAF9022095E7202001F00FFA20B109
:100A7000202001F0E1F906208CE74FF4007001F02E
:100A800005FA28B14FF4007001F0D6F9072081E78C
:100A900040F2FF5001F0D0F900980006009901F4EF
:100AA0007F4140EA0120009901F47F0140EA1120D2
:100AB000009940EA1160686001980006019901F40C
:100AC0007F4140EA0120019901F47F0140EA1120B1
:100AD000019940EA1160286020465BE738AA0120AE
:100AE0007C0000204CAA0120802C0140F0B50A4671
:100AF00000210023002400BF3DE0012505FA01F399
:100B0000156805EA03049C4234D105684F000326AA
:100B1000BE40B543056015794E00B54006683543C3
:100B200005601579012D02D01579022D16D1856841
:100B30004F000326BE40B543856055794E00B54051
:100B4000866835438560456801268E40B54345601B
:100B5000456896798E40B6B235434560C5684F000A
:100B60000326BE40B543C560D5794E00B540C66882
:100B70003543C560491C1029BFD3F0BDF0B5002333
:100B800000244D07ED0E02FA05F3CE1000F120050A
:100B900055F826504E07F70E0F26BE40B543CF102E
:100BA00000F1200646F82750CE1000F1200555F838
:100BB000265045EA0304CE1000F1200545F82640F2
:100BC000F0BD0246002013690B400BB1012000E08C
:100BD0000020704741837047018370474FF6FF71D3
:100BE00001600021017141718171C1717047000084
:100BF00002A003F05FF900BFFEE700000A0D2048E5
:100C00006172644661756C745F48616E646C657294
:100C10002000000010B500200F4908600F48006850
:100C200020F040700D4908600846006840F0807070
:100C3000086000200A49C1F8B002022003F0C4FC99
:100C4000012005490860022003F0BEFC0020044991
:100C5000C1F8AC0210BD0000AC824042000402406A
:100C6000008040421CB50121022000F009FF4FF432
:100C7000C050009001208DF8040000208DF806007F
:100C800003208DF8050000208DF80700694605480F
:100C9000FFF72CFF0120044908600449C1F8B002A5
:100CA0001CBD000000040240AC8240420080404273
:100CB00010B500200F4908600F48006820F0407010
:100CC0000D4908600846006840F080700860012007
:100CD0000A49C1F8B002022003F076FC0120054960
:100CE0000860022003F070FC00200449C1F8AC0247
:100CF00010BD0000AC82404200040240008040422F
:100D000070B5054600241648006820F0407014496C
:100D10000860084600680860002616E000201149B7
:100D20000860022003F050FC01200F49C1F8AC021A
:100D30006006040E0B487C38006808B1601CC4B221
:100D4000012003F041FC701CC6B2082EE6DB15B989
:100D5000FFF7AEFF01E0FFF75DFF204670BD00002A
:100D600000040240AC8240420080404270B504461C
:100D70001548006820F04070134908600846006874
:100D800040F080700860002010490860002517E0DE
:100D9000E0090E49091D08606006040E022003F0F8
:100DA00013FC01200A49C1F8AC02022003F00CFC3C
:100DB000002006490860022003F006FC681CC5B24A
:100DC000082DE5DB70BD000000040240AC8240420B
:100DD0000080404210B50F48006820F040700D4977
:100DE00008600846006840F08070086001200A49E9
:100DF00008600A49C1F8AC02042003F0E5FB0020BA
:100E000005490860042003F0DFFB00200349C1F816
:100E1000AC0210BD00040240B0824042008040425B
:100E200010B50F48006820F040700D490860084672
:100E3000006840F08070086000200A4908600A4994
:100E4000C1F8B002042003F0BFFB0120054908608F
:100E50000549C1F8B002042003F0B6FB10BD000044
:100E600000040240AC8240420080404210B50024A1
:100E70001348006820F04070114908600846006877
:100E8000086001200F49086003F09EFB01200E4915
:100E9000C1F8AC0203F098FB07E0601CC4B2FA2C66
:100EA00003DDFFF7BDFF012010BD06488038006854
:100EB0000028F2D10349091F086000BFF4E70000D1
:100EC00000040240B08240420080404210B5002041
:100ED0000F4908600F48006820F440700D49086011
:100EE0000846006840F48070086000200A49C1F894
:100EF0009002022003F068FB0120054908600220EF
:100F000003F062FB00200449C1F88C0210BD000010
:100F10008C02414200080240000041421CB5012100
:100F2000042000F0ADFD1820009001208DF8040091
:100F300000208DF8060003208DF8050000208DF8B4
:100F4000070069460448FFF7D1FD01200349086006
:100F50000349C1F890021CBD000802408C024142C6
:100F60000000414210B500200F4908600F4800689A
:100F700020F440700D4908600846006840F4807015
:100F8000086001200A49C1F89002022003F01CFB0E
:100F9000012005490860022003F016FB00200449E7
:100FA000C1F88C0210BD00008C02414200080240D2
:100FB0000000414270B5054600241648006820F440
:100FC000407014490860084600680860002616E072
:100FD000002011490860022003F0F6FA01200F49B1
:100FE000C1F88C026006040E0B487C38006808B11A
:100FF000601CC4B2012003F0E7FA701CC6B2082ED0
:10100000E6DB15B9FFF7AEFF01E0FFF75FFF204613
:1010100070BD0000000802408C02414200004142C5
:1010200070B504461548006820F440701349086004
:101030000846006840F4807008600020104908608D
:10104000002517E0E0090E49091D08606006040E3E
:10105000022003F0B9FA01200A49C1F88C020220EB
:1010600003F0B2FA002006490860022003F0ACFA4F
:10107000681CC5B2082DE5DB70BD00000008024009
:101080008C0241420000414210B50F48006820F434
:1010900040700D4908600846006840F480700860A0
:1010A00001200A4908600A49C1F88C02042003F0B3
:1010B0008BFA002005490860042003F085FA00201F
:1010C0000349C1F88C0210BD000802409002414261
:1010D0000000414210B50F48006820F440700D49EF
:1010E00008600846006840F48070086000200A49E3
:1010F00008600A49C1F89002042003F065FA012053
:10110000054908600549C1F89002042003F05CFA23
:1011100010BD0000000802408C0241420000414224
:1011200010B500241348006820F44070114908608D
:1011300008460068086001200F49086003F044FA7F
:1011400001200E49C1F88C0203F03EFA07E0601C52
:10115000C4B2FA2C03DDFFF7BDFF012010BD064825
:10116000803800680028F2D10349091F086000BFD9
:10117000F4E70000000802409002414200004142B2
:1011800010B500200F4908600F48006820F03000BB
:101190000D4908600846006840F010000860002013
:1011A0000A49C1F88802022003F00EFA012005491D
:1011B0000860022003F008FA00200449C1F8840204
:1011C00010BD00008402414200080240000041427C
:1011D0001CB50121042000F053FC022000900120E6
:1011E0008DF8040000208DF8060003208DF805001E
:1011F00001208DF8070069460448FFF777FC0120BD
:10120000034908600349C1F888021CBD0008024078
:10121000840241420000414210B500200F4908609D
:101220000F48006820F030000D490860084600684B
:1012300040F01000086001200A49C1F8880202202D
:1012400003F0C2F9012005490860022003F0BCF94F
:1012500000200449C1F8840210BD0000840241420C
:10126000000802400000414270B5054600241648BF
:10127000006820F0300014490860084600680860E3
:10128000002616E0002011490860022003F09CF9B6
:1012900001200F49C1F884026006040E0B487C3817
:1012A000006808B1601CC4B2012003F08DF9701C05
:1012B000C6B2082EE6DB15B9FFF7AEFF01E0FFF777
:1012C0005FFF204670BD00000008024084024142DA
:1012D0000000414270B504461548006820F0300017
:1012E000134908600846006840F0100008600020BC
:1012F00010490860002517E0E0090E49091D086043
:101300006006040E022003F05FF901200A49C1F8CB
:101310008402022003F058F90020064908600220E8
:1013200003F052F9681CC5B2082DE5DB70BD000062
:1013300000080240840241420000414210B50F48BB
:10134000006820F030000D4908600846006840F051
:101350001000086001200A4908600A49C1F88402A7
:10136000042003F031F9002005490860042003F04F
:101370002BF900200349C1F8840210BD0008024087
:10138000880241420000414210B50F48006820F039
:1013900030000D4908600846006840F01000086001
:1013A00000200A4908600A49C1F88802042003F0B5
:1013B0000BF90120054908600549C1F8880204209D
:1013C00003F002F910BD000000080240840241420F
:1013D0000000414210B500241348006820F030009E
:1013E0001149086008460068086001200F4908603C
:1013F00003F0EAF801200E49C1F8840203F0E4F892
:1014000007E0601CC4B2FA2C03DDFFF7BDFF01202A
:1014100010BD0648803800680028F2D10349091F32
:10142000086000BFF4E70000000802408802414263
:10143000000041421CB50446002001900090224863
:1014400000880004214908600D2048604020886021
:101450000020C8604FF480600861084600F062FD1B
:101460001B480068009002E019480068009000984E
:1014700000F045000028F7D0012000F007FD20B162
:10148000012000F0D9FC01201CBD042000F0FEFC6E
:1014900020B1042000F0D0FC0320F5E70C482438EC
:1014A00000680D2801D01020EEE740F2FF5000F058
:1014B000C3FC07482038006801900198C0F343201E
:1014C00020700020E0E700007C00002038AA012006
:1014D000342C014010B500247521D02000F049F8CB
:1014E0000446712C01D1012010BD0020FCE710B58D
:1014F00080226B21D02000F05CF8642003F048F8D3
:1015000003226B21D02000F054F8012003F040F8B2
:10151000C0226C21D02000F04CF8012003F038F8F4
:1015200000221921D02000F044F8012003F030F807
:1015300018221B21D02000F03CF8012003F028F8ED
:1015400000221C21D02000F034F8012003F020F804
:1015500008221D21D02000F02CF8012003F018F8FB
:1015600003221A21D02000F024F8012003F010F803
:1015700010BD70B504460D460026FFF72BFC204633
:10158000FFF7F4FBFFF772FC2846FFF7EFFBFFF7CE
:101590006DFCFFF71FFC611CC8B2FFF7E7FBFFF70C
:1015A00065FC0020FFF7ACFB0646FFF739FC304630
:1015B00070BD70B506460C461546FFF70BFC30466D
:1015C000FFF7D4FBFFF752FC2046FFF7CFFBFFF7F6
:1015D0004DFC2846FFF7CAFBFFF748FCFFF720FC4D
:1015E00070BD10B500247521D02000F049F80446E4
:1015F000712C01D1012010BD0020FCE710B5802224
:101600006B21D02000F05CF8642002F0C1FF0322BF
:101610006B21D02000F054F8012002F0B9FFC02265
:101620006C21D02000F04CF8012002F0B1FF002224
:101630001921D02000F044F8012002F0A9FF18225F
:101640001B21D02000F03CF8012002F0A1FF002275
:101650001C21D02000F034F8012002F099FF08226C
:101660001D21D02000F02CF8012002F091FF032270
:101670001A21D02000F024F8012002F089FF10BDCB
:1016800070B504460D460026FFF7FEFC2046FFF726
:10169000C7FCFFF745FD2846FFF7C2FCFFF740FDFA
:1016A000FFF7F2FC611CC8B2FFF7BAFCFFF738FD88
:1016B0000020FFF77FFC0646FFF70CFD304670BDAB
:1016C00070B506460C461546FFF7DEFC3046FFF7C0
:1016D000A7FCFFF725FD2046FFF7A2FCFFF720FD42
:1016E0002846FFF79DFCFFF71BFDFFF7F3FC70BDDD
:1016F00010B500247521D02000F049F80446712C63
:1017000001D1012010BD0020FCE710B580226B2123
:10171000D02000F05CF8642002F03AFF03226B2135
:10172000D02000F054F8012002F032FFC0226C21DA
:10173000D02000F04CF8012002F02AFF00221921ED
:10174000D02000F044F8012002F022FF18221B21D3
:10175000D02000F03CF8012002F01AFF00221C21EA
:10176000D02000F034F8012002F012FF08221D21E1
:10177000D02000F02CF8012002F00AFF03221A21E9
:10178000D02000F024F8012002F002FF10BD70B557
:1017900004460D460026FFF7D1FD2046FFF79AFDCF
:1017A000FFF718FE2846FFF795FDFFF713FEFFF73A
:1017B000C5FD611CC8B2FFF78DFDFFF70BFE0020D1
:1017C000FFF752FD0646FFF7DFFD304670BD70B5EE
:1017D00006460C461546FFF7B1FD3046FFF77AFD89
:1017E000FFF7F8FD2046FFF775FDFFF7F3FD2846EC
:1017F000FFF770FDFFF7EEFDFFF7C6FD70BD0000BF
:1018000002A002F057FB00BFFEE700000A0D204DCA
:10181000656D4D616E6167655F48616E646C657290
:101820002000000010B502A002F044FB10BD000033
:101830000A0D204E4D495F48616E646C6572200050
:1018400070B5002100230F22C4781CB3174C246804
:1018500004F4E064C4F5E064C4F30721C1F10404B6
:10186000E3B20A4144789C40E1B2847814402143B9
:101870000C07210E0E4C05786155047804F01F0505
:101880000124AC4005786D11AD0005F1E025C5F8E7
:10189000004109E0047804F01F050124AC40054D27
:1018A0000678761145F8264070BD00000CED00E08A
:1018B00000E400E080E100E0704700001CB5012179
:1018C000022000F0DDF801208DF8040000208DF8E2
:1018D00006008DF8070003208DF805004FF4007016
:1018E000009069460B48FFF701F90121102000F034
:1018F000C7F800208DF804008DF806008DF8070069
:1019000003208DF805000120009069460248FFF78A
:10191000EDF81CBD000402400010024000B589B083
:101920000121102000F0CCF80121084600F0A8F8B1
:10193000072209214E48FFF721F907220A214C48C6
:10194000FFF71CF907A8FFF749F94FF4007007905B
:1019500002208DF820008DF8210007A94448FFF7E8
:10196000C5F84FF48060079002208DF820008DF8B4
:10197000210007A93E48FFF7B9F803A802F07BFA57
:101980004FF4E13003900020ADF81000ADF81200E4
:10199000ADF81400ADF818000C20ADF8160003A93E
:1019A000344802F0F5F901A802F084F901A93148A0
:1019B00002F070F9012240F225512E4802F0C3F9DD
:1019C00001212C4802F07CF90121202000F078F858
:1019D0000121042000F054F8082206212648FFF7D0
:1019E000CDF8082207212448FFF7C8F807A8FFF719
:1019F000F5F84020079002208DF820008DF8210096
:101A000007A91D48FFF772F88020079002208DF883
:101A100020008DF8210007A91748FFF767F803A8F1
:101A200002F029FA4FF4E13003900020ADF81000E5
:101A3000ADF81200ADF81400ADF818000C20ADF8A8
:101A4000160003A90D4802F0A3F901A802F032F92B
:101A500001A90A4802F01EF9012240F22551074867
:101A600002F071F90121054802F02AF909B000BD20
:101A70000000024000100140000802400014014034
:101A800029B1064A12680243044B1A6004E0034A73
:101A900012688243014B1A607047000030380240E0
:101AA00029B1064A12680243044B1A6004E0034A53
:101AB00012688243014B1A607047000040380240B0
:101AC00029B1064A12680243044B1A6004E0034A33
:101AD00012688243014B1A6070470000443802408C
:101AE00029B1064A12680243044B1A6004E0034A13
:101AF00012688243014B1A6070470000243802408C
:101B0000F0B5002100220024022500260223324FD6
:101B10003F6807F00C0121B1042905D0082937D10D
:101B200005E02E4F076036E02D4F076033E02A4F67
:101B30003F1F3F68C7F38056274F3F1F3F6807F09E
:101B40003F036EB1264FB7FBF3F7DFF88CC0ACF163
:101B5000040CDCF800C0CCF3881C07FB0CF40CE090
:101B60001E4FB7FBF3F7DFF870C0ACF1040CDCF8E4
:101B700000C0CCF3881C07FB0CF4174F3F1F3F68D5
:101B8000C7F301477F1C7D00B4FBF5F7076002E057
:101B9000124F076000BF00BF0F4F3F6807F0F00112
:101BA0000909104F7A5C0768D74047600A4F3F68C1
:101BB00007F4E051890A0B4F7A5C4768D740876089
:101BC000054F3F6807F46041490B064F7A5C476850
:101BD000D740C760F0BD0000083802400024F40080
:101BE00040787D01420000203EB50546012D04D01D
:101BF000022D15D0032D39D125E03C21D020FFF74F
:101C0000B8FC8DF800003B21D020FFF7B2FC8DF826
:101C100001009DF800009DF8011040EA012426E033
:101C20003E21D020FFF7A5FC8DF802003D21D020F9
:101C3000FFF79FFC8DF803009DF802009DF803104C
:101C400040EA012413E04021D020FFF792FC8DF8F8
:101C500004003F21D020FFF78CFC8DF805009DF893
:101C600004009DF8051040EA012400BF00BF00BF3A
:101C700020B23EBD3EB50546012D04D0022D15D043
:101C8000032D39D125E03C21D020FFF7F9FC8DF858
:101C900000003B21D020FFF7F3FC8DF801009DF8F8
:101CA00000009DF8011040EA012426E03E21D020EA
:101CB000FFF7E6FC8DF802003D21D020FFF7E0FCA5
:101CC0008DF803009DF802009DF8031040EA0124FE
:101CD00013E04021D020FFF7D3FC8DF804003F2112
:101CE000D020FFF7CDFC8DF805009DF804009DF88D
:101CF000051040EA012400BF00BF00BF20B23EBD76
:101D00003EB50546012D04D0022D15D0032D39D145
:101D100025E03C21D020FFF73AFD8DF800003B2163
:101D2000D020FFF734FD8DF801009DF800009DF8EC
:101D3000011040EA012426E03E21D020FFF727FDD4
:101D40008DF802003D21D020FFF721FD8DF8030022
:101D50009DF802009DF8031040EA012413E04021A1
:101D6000D020FFF714FD8DF804003F21D020FFF7AD
:101D70000EFD8DF805009DF804009DF8051040EA61
:101D8000012400BF00BF00BF20B23EBD7CB50546A8
:101D9000002400200090019000260DB1022600E0F2
:101DA00000262248006800F0007008B10E207CBDBB
:101DB0001F49098888B26946FEF7CEFD04460CB17A
:101DC0002046F4E7019800F4802060B318480088AA
:101DD00000041849086037204860402088600020CF
:101DE000C8604FF480600861084600F09BF8372017
:101DF000FEF772FB04460CB12046D8E70D4806609A
:101E000006200C494860402088600020C8604FF4DC
:101E100080600861084600F085F80620FEF75CFB4C
:101E200004462046C3E72520C1E70000142C0140EA
:101E30007C00002038AA012001490860704700009A
:101E4000382C01400146034A106820F0FF00084387
:101E500010607047042C014000210B4B02681A608F
:101E60001B1D42681A601A1D116821F0F701D0E9A4
:101E700002231A4303691A4343691A431143024A6E
:101E80000832116070470000242C014001460020F8
:101E9000034A12680A400AB1012000E0002070479E
:101EA000342C01400248006800F003007047000035
:101EB000002C014010B500F08BFC10BD00210A4A37
:101EC000116847F6FF629143027D83681A434368B5
:101ED0001A43C3681A4303681A4303691A43114338
:101EE000014A116070470000042C014000200B499A
:101EF0000860091D0860091D0860091D0860074980
:101F000024310860091D0860091D08600448034960
:101F1000383108600020091D08607047002C01401E
:101F2000FF07C0000021094B02681A601A1D1168E2
:101F30006FF30A01D0E901231A43C3681A43036906
:101F40001A431143014A121D11607047082C0140C9
:101F50000149086070470000002C014070B590B046
:101F600004460E46154600BF1A48FEF78AFC0028B4
:101F7000FAD11848FEF7CEFB4FF0006001901648EA
:101F80000290039404950020059006904FF4806021
:101F90000790800008908000099000200A904FF47C
:101FA00040300B9004200C9003200D904FF4000063
:101FB0000E9080100F9001A90648FEF79FFC20218B
:101FC0000448FEF753FC01210248FEF797FB10B0CE
:101FD00070BD000058640240802C014070B504467A
:101FE000002516480078032802D12725284670BD11
:101FF0001248007838B111480078012803D00F4802
:102000000078022817D1B4F5805F02D12725284631
:10201000EDE7E0B2FFF7BAFE054665B9084800688B
:1020200020F4C05006490860084600682043086054
:102030000846006808602846D9E7000078000020BC
:10204000042C0140F0B5014600200022BE4B1B7855
:1020500081F85630BD4B1B88A1F85430BC4B1B682F
:102060001A0E93090B70C2F383034B7002F0030343
:102070008B70B74B1B68C3F30742CA70B44B1B8805
:10208000C3F307220A71B24B1A784A715B681A0EC1
:102090001301CB80AE4B5B68C3F30742CB8843EAA6
:1020A0001213CB8002F00F030B72A94B9B88C3F372
:1020B0000722D3094B72C2F380138B72C2F3401311
:1020C000CB72C2F300130B7300234B739E4B1B7830
:1020D0003BB19D4B1B78012B03D09B4B1B78032BF3
:1020E0004FD193071B0D0B61994B1A790B6943EA8A
:1020F00082030B61964B9B681A0E0B6943EA92139D
:102100000B61C2F3C2030B7502F007034B75904BD2
:102110009B68C3F3074253098B75C2F38203CB75E7
:1021200093075B0F0B768A4B1B89C3F307220B7E49
:1021300043EAD2130B760B695B1C0024C1E912340D
:102140000B7E9B1C012404FA03F3DC17D1E9125621
:10215000A5FB037C06FB03C305FB0433C1E9127333
:102160000C7A0123A3400B650024D1E912650B6DA5
:10217000A6FB037C05FB03C306FB0433C1E9127312
:102180002EE0714B1B78022B2AD1714B1A799306E2
:102190009B0A0B616E4B9B681A0E0B6943EA022384
:1021A0000B616B4B9B68C3F307420B6913430B61D5
:1021B000674B1B89C3F307220B695B1C4FF4007448
:1021C000A3FB04464FF480630025A4FB037C06FBBD
:1021D00003C304FB0533C1E912734FF400730B65AD
:1021E000C2F3801301F8193F93065B0E4B70584BF6
:1021F0001A7A4B7843EAD2134B7002F07F038B704C
:10220000534BDB681A0ED309CB70C2F341130B7129
:10221000C2F382034B7193071B0F8B714C4BDB682E
:10222000C3F307428B7943EA92138B71C2F34013D5
:10223000CB7100230B7202F001034B72444B9B895C
:10224000C3F30722D3098B72C2F38013CB72C2F39C
:1022500040130B73C2F300134B73C2F381038B73F0
:1022600002F00303CB733A4B1A7B53080B74012320
:102270004B74384B1B681A0ECA741939354B1B68DE
:10228000C3F307421402CC85324B1B88C3F30722E9
:10229000CB8D1343CB852F4B1A7814060C635B68E8
:1022A0001A0E0B6B43EA02440C632A4B5B68C3F3C0
:1022B00007420B6B43EA02240C63264B9B88C3F353
:1022C00007220B6B13430B63224B1A7934235A54A6
:1022D000204B9B681A0E35235A541E4B9B68C3F340
:1022E000074214068C631B4B1B89C3F307228B6BBD
:1022F00043EA02448C63174B1A7A8B6B43EA02243D
:102300008C63144BDB681A0E8B6B13438B63114B7E
:10231000DB68C3F307423C235B5C43EA12143C23B3
:102320005C5413071C0DCC870A4B9B89C3F307220F
:10233000CB8F1343CB87074B1A7B540840235C5445
:10234000012441235C54F0BD780000207C00002073
:1023500064AA012074AA01203EB5002400250121B1
:102360004448FFF78DFB0121C802FFF7A9FB0121BB
:10237000C802FFF7B5FB4FF4F850019002208DF82A
:1023800008008DF8090000208DF80A0001208DF862
:102390000B0001A93848FEF7A9FB0420019001A910
:1023A0003648FEF7A3FB0C2208213348FEF7E6FB74
:1023B0000C2209213048FEF7E1FB0C220A212E48AD
:1023C000FEF7DCFB0C220B212B48FEF7D7FB0C227F
:1023D00011462948FEF7D2FB0C2202212748FEF7BE
:1023E000CDFB00214FF40060FFF77AFBFFF77EFD85
:1023F00031208DF8000000208DF801008DF80200DA
:1024000001208DF803006846FFF71AFA00F0EEF895
:10241000044614B900F038F804461CB91848FFF710
:1024200011FE044634B91649B1F85410080400F0FE
:1024300077FD044624B94FF40060FFF7CFFD044652
:102440001CB110480078032812D10D4890F85600AE
:1024500020B10B4890F85600012801D1022500E078
:1024600000252846FFF7EEFC002000F071FD044631
:1024700020463EBD0C00400000080240000C024017
:1024800088AA01207800002038B50024012000909F
:10249000FFF708FD10B92524204638BD4D480078C7
:1024A000042824D000204C49086002204860C02045
:1024B00088600020C8604FF4806008610846FFF71C
:1024C00031FDFEF73BF804460CB12046E5E74348F2
:1024D0000068434908604148001D006848603F4863
:1024E0000830006888603D480C300068C860394892
:1024F000007858B137480078012807D0354800786F
:10250000062803D033480078022816D1002032492B
:10251000086003204860402088600020C8604FF4B5
:10252000806008610846FFF7FDFC69460320FEF75E
:102530004BF804460CB12046AFE726480078032844
:1025400016D1BDF80000000423490860032048604C
:10255000402088600020C8604FF480600861084611
:10256000FFF7E0FCFDF7EAFF04460CB1204694E7D4
:102570001848007804282AD0BDF8000019490860DE
:10258000BDF8000000041449086009204860C0201C
:1025900088600020C8604FF4806008610846FFF73B
:1025A000C1FCFDF7CBFF04460CB1204675E70B4894
:1025B00000680D4908600948001D00684860074828
:1025C00008300068886005480C300068C86000204A
:1025D00063E700007800002038AA0120142C014095
:1025E00074AA01207C00002064AA01202DE9F04794
:1025F0000027002400260025A046A14676206E492B
:1026000008750020086048608860C8600861084656
:10261000FFF754FC0320FFF79BFC6848006840F478
:1026200080706649086000BF12E0002064490860BD
:1026300048608860C8604FF4806008610846FFF712
:1026400071FCFDF731FF044604B903E0781CC7B202
:102650004A2FEADB00BF14B12046BDE8F0874FF4F3
:10266000D5705749086008204860402088600020E5
:10267000C8604FF4806008610846FFF753FCFDF71F
:10268000EDFF044624B901204E4908704FF08049FF
:1026900000204B49086037204860402088600020B7
:1026A000C8604FF4806008610846FFF73BFC3720A4
:1026B000FDF712FF0446002C4CD135E000204049C4
:1026C000086037204860402088600020C8604FF4D0
:1026D000806008610846FFF725FC3720FDF7FCFE07
:1026E00004460CB12046B8E7374849EA00003449AF
:1026F000086029204860402088600020C8604FF4AE
:10270000806008610846FFF70DFCFDF741FF0446B5
:102710000CB12046A1E7294810300668012080EA64
:10272000D67080F001086D1CB8F1000F03D14FF690
:10273000FF708542C2D34FF6FF70854202D31B243F
:1027400020468AE706F08040060033D002201D496B
:1027500008702FE01DE01D481949086001204860FD
:10276000402088600020C8604FF4806008610846FF
:10277000FFF7D8FBFDF70CFF04460CB120466CE7D1
:102780000E4810300668012080EAD67080F00108FB
:102790006D1CB8F1000F03D14FF6FF708542DAD3FC
:1027A0004FF6FF70854202D31B24204655E70320D5
:1027B00004490870204650E720AA0120042C01405B
:1027C00038AA012078000020000010800080FF80DF
:1027D00010B54FF48070FFF759FB78B34C48007880
:1027E000012814D100204B4908600C20486040208B
:1027F00088600020C8604FF4806008610846FFF7D9
:1028000091FB0C20FDF768FE4349087002E00020B0
:10281000414908704148006840F480703F490860B1
:10282000081D00684CF23A3188433C49091D086094
:1028300001203B4908703848007810BDFFE70220AE
:10284000FFF724FB78B10220FFF7F6FA3348001DAA
:1028500000684CF23A3188433049091D0860022073
:102860002D490870E9E70820FFF710FB78B1082030
:10287000FFF7E2FA2948001D00684CF23A3188431C
:102880002649091D0860042023490870D5E7202047
:10289000FFF7FCFA78B12020FFF7CEFA1F48001DA1
:1028A00000684CF23A3188431C49091D0860062033
:1028B00019490870C1E71020FFF7E8FA78B1102035
:1028C000FFF7BAFA1548001D00684CF23A31884308
:1028D0001249091D086005200F490870ADE74FF443
:1028E0000070FFF7D3FA80B14FF40070FFF7A4FA3D
:1028F0000A48001D00684CF23A3188430749091D17
:10290000086007200449087097E7002095E7000059
:102910008100002038AA012082000020382C0140CC
:10292000830000202DE9F84F8146174698460A9CFF
:102930004FF0000AD3464D464FF0FF36B9F1000F75
:1029400002D12620BDE8F88F00208649086086481D
:102950000078022805D10402780A40EAC8574FEAF5
:1029600068280020814988604860401E0860012076
:1029700048610020C86008610846FFF76DFA794891
:102980001838006800F0007008B10E20DAE7002C5B
:1029900021DDB4F5006F1EDC601E2040D8B9204652
:1029A00001F02CFC009072480460102070494860CF
:1029B000402088600020C8604FF4806008610846AD
:1029C000FFF7B0FA1020FDF787FD8246BAF1000F3D
:1029D00003D05046B6E72620B4E7009800016349CB
:1029E0008860084644604FF0FF300860012048616D
:1029F0000220C860002008610846FFF72DFA5C48F5
:102A0000076011205A494860402088600020C86053
:102A10004FF4806008610846FFF784FA1120FDF743
:102A20005BFD8246BAF1000F01D050468AE751485B
:102A3000007800285CD1FDF7B1FB18E04FF40040AE
:102A4000FFF724FA78B14FF0000B06E04548543008
:102A5000006845F82B000BF1010BBBF1080FF5D313
:102A60002035454E03E00EB904206BE7761E3D4845
:102A70000830006840F22A6108400028DED00820B3
:102A8000FFF704FA20B10820FFF7D6F9042059E730
:102A90000220FFF7FBF920B10220FFF7CDF9022059
:102AA00050E72020FFF7F2F920B12020FFF7C4F90A
:102AB000062047E74FF40070FFF7E8F928B14FF41C
:102AC0000070FFF7B9F907203CE704E025485430CF
:102AD000006828602D1D4FF40010FFF7D7F900287B
:102AE000F4D1FDF75DFB40F2FF50FFF7A5F936E0AA
:102AF00020480078012832D1002020490870204960
:102B000008702049087017481030006840F22A31D8
:102B100008431449103108601248006840F008006A
:102B200010490860002221464846FFF717FA00E0E6
:102B3000761E1548006800F0006038B9114800782A
:102B400020B90E48007808B9002EF1D10EB9042042
:102B5000F8E60A48007810B1084890F800A05046FE
:102B6000F0E600002C2C0140780000204CAA012047
:102B700038AA012080000020FFFF7F008200002093
:102B80008100002083000020006402402DE9FE4FF8
:102B900083460E4691460020029000253446214887
:102BA000007818B1680240EAD45564020BF00300C3
:102BB000F0B14FF0000A18E04FF4007000904FEAB7
:102BC0004A20071945EBE0733A461748FFF7AAFE7B
:102BD00002904FF4007214495846FDF722FB0BF5A2
:102BE000007B0AF1010000F0FF0ACA45E4DB16E0B1
:102BF000B9F1010F09D14FF4007022462B46009025
:102C00005846FFF78FFE029009E04FF4007022460D
:102C10002B46CDE90009584600F008F802900298CA
:102C2000BDE8FE8F78000020E0AA01202DE9FF5FBB
:102C300017469846DDE90E464FF00009CA464FF0A8
:102C4000FF35AC49009808600020AB490860AB48EC
:102C50000078022805D10402780A40EAC8574FEAF2
:102C600068280020A64988604860401E086001204E
:102C700048610020C86008610846FFF7EDF89E48EB
:102C80001838006800F0007018B10E2004B0BDE8DC
:102C9000F09F002C21DDB4F5006F1EDC601E20408B
:102CA000D8B9204601F0AAFA83469648046010205D
:102CB00094494860402088600020C8604FF48060DC
:102CC00008610846FFF72EF91020FDF705FC814644
:102CD000B9F1000F03D04846D8E72620D6E7012EE9
:102CE00071D906FB04F0B0F1007F01D32620CDE7B7
:102CF0004FEA0B108249886006FB04F048604FF0F1
:102D0000FF300860012048610220C860002008618F
:102D10000846FFF7A1F87B48076012207949486010
:102D2000402088600020C8604FF480600861084639
:102D3000FFF7F8F81220FDF7CFFB8146B9F1000F3D
:102D400001D04846A2E77048007800287ED1FDF700
:102D500025FA1EE04FF40040FFF798F8A8B14FF0B5
:102D6000000A08E06448543000686249096841F884
:102D70002A000AF1010ABAF1080FF3D35D4800688E
:102D800020305C490860614D03E00DB904207DE707
:102D90006D1E59480830006840F22A31084000286A
:102DA000D8D00820FFF772F820B10820FFF744F8C8
:102DB00004206BE70220FFF769F828B10220FFF733
:102DC0003BF8022062E792E02020FFF75FF820B195
:102DD0002020FFF731F8062058E74FF40070FFF786
:102DE00055F828B14FF40070FFF726F807204DE79B
:102DF0000AE04148543000683E49096808603D488F
:102E00000068001D3B4908604FF40010FFF73EF8D2
:102E10000028EED14FF48070FFF738F820B3374820
:102E2000007838B135480078012803D0334800785D
:102E3000022819D10020334908600C204860402046
:102E400088600020C8604FF4806000E013E00861F3
:102E50000846FFF767F80C20FDF73EFB8146B9F105
:102E6000000F01D0484611E7FDF79AF940F2FF50F4
:102E7000FEF7E2FF3BE024480078012837D100202C
:102E80002349087001202349087000202249087056
:102E900019481030006840F22A31084316491031B1
:102EA00008601548006840F008001349086006FBF8
:102EB00004F100220098FFF751F800E06D1E17485A
:102EC000006800F0006008B9002DF7D10DB90420AA
:102ED000DCE600BF1048007818B90D4800780028DB
:102EE000F8D00B48007810B1094890F80090484697
:102EF000CCE60000840000202C2C0140780000204B
:102F00004CAA012038AA012080000020FFFF7F008A
:102F10008200002081000020830000200064024025
:102F200010B504460948046007200849486040205D
:102F300088600020C8604FF4806008610846FEF792
:102F4000F1FF0720FDF7C8FA10BD000038AA0120E4
:102F500001460020012900D011B9024B197000E090
:102F600026207047800000202DE9FF5F86B01746BD
:102F70009846149D00260020059004900024814668
:102F80000390824602900195DDF818B0DDF818B084
:102F9000BBF1000F03D126200AB0BDE8F09F00204E
:102FA000C9490860C94988604860401E086001201E
:102FB00048610020C86008610846FEF74DFFC2481E
:102FC0001838006800F0007008B10E20E4E7C0482F
:102FD0000078022805D10502780A40EAC8574FEA6E
:102FE0006828002D1FDDB5F5006F1CDC681E284029
:102FF000C8B9284601F002F90590B64805601020CE
:10300000B4494860402088600020C8604FF4806068
:1030100008610846FEF786FF1020FDF75DFA0646B8
:103020001EB13046B8E72620B6E7AB48008800045A
:10303000A84908600D204860402088600020C860D2
:103040004FF4806008610846FEF76CFF0D20FDF725
:1030500043FA06460EB130469EE79B481838006892
:1030600003904FF0FF341CE0641E9B48008800046E
:10307000984908600D204860402088600020C860A2
:103080004FF4806008610846FEF74CFF0D20FDF705
:1030900023FA06460EB130467EE78B4818380068A2
:1030A0000390039800F4807008B9002CDCD10CB9AF
:1030B000292071E78748076018208649486040202A
:1030C00088600020C8604FF4806008610846FEF701
:1030D00029FF1820FDF700FA06460EB130465BE7DF
:1030E00000207E49087005980001784988600846EC
:1030F00045604FF0FF300860012048610020C86043
:1031000008610846FEF7A8FE4FF0FF3474480078C7
:1031100000287ED1FDF742F845E04FF48040FEF7ED
:10312000B5FED8B30198A0EB0900202822D201985F
:10313000A0EB090000F0030020B90198A0EB090002
:10314000800804E00198A0EB09008008401C029070
:103150004FF0000A0AE05C495431DBF800000860D7
:103160000AF1010A0BF1040B09F1040902988245E6
:10317000F1D310E04FF0000A06E05BF82A00524954
:10318000543108600AF1010ABAF1080FF5D30BF1C6
:10319000200B09F120096FF0404404E0FFE70CB96F
:1031A0000420F9E6641E48480830006840F21A61BD
:1031B00008400028B1D00820FEF768FE20B10820A2
:1031C000FEF73AFE0420E7E60220FEF75FFE20B19C
:1031D0000220FEF731FE0220DEE61020FEF756FE4A
:1031E00020B11020FEF728FE0520D5E64FF4007030
:1031F000FEF74CFE30B14FF40070FEF71DFE0720C5
:10320000CAE606E0FCF7CCFF40F2FF50FEF714FEE2
:1032100041E03348007801283DD100203149087051
:103220002E4908703049087027481030006840F275
:103230001A31084324491031086040222946069873
:10324000FEF78CFE2048006840F008001E49086028
:1032500000E0641E2548006800F0006008B9002CFA
:10326000F7D11CB9FFF778F8042095E64FF0FF344A
:1032700000E0641E1C48007820B91A48007808B99C
:10328000002CF6D10CB9042086E61648007810B15F
:103290001448007880E640F2FF50FEF7CDFD04A808
:1032A000FEF7C8F8064603E004A8FEF7C3F8064692
:1032B0003EB99DF810000728F6D09DF810000628AA
:1032C000F2D0304668E600002C2C01404CAA0120C8
:1032D0007800002038AA01207C0000208100002016
:1032E0008000002082000020830000200064024053
:1032F0002DE9FE4F064689469246002002900025A1
:103300004C462148007818B1680240EAD45564025E
:1033100006F00300F0B14FF0000B18E04FF400721C
:1033200031461A48FCF77DFF4FF4007000904FEAD9
:103330004B20071945EBE0733A461448FFF714FE9B
:10334000029006F500760BF1010000F0FF0BD3456B
:10335000E4DB16E0BAF1010F09D14FF40070224608
:103360002B4600903046FFF7FFFD029009E04FF436
:10337000007022462B46CDE9000A304600F008F8DE
:1033800002900298BDE8FE8F78000020E0AA01209C
:103390002DE9FF5F84B0DDE912470026002003908D
:1033A0000290002580468146019007FB04FBDDF872
:1033B00010A0DDF810A0BAF1000F03D1262008B04C
:1033C000BDE8F09F0020DC490860DC498860486067
:1033D000401E0860012048610020C860086108465E
:1033E000FEF73AFDD4481838006800F0007008B1C4
:1033F0000E20E4E7D2480078022808D10402DDE973
:103400000601400A40EAC1504912CDE90601002CEC
:103410001FDDB4F5006F1CDC601E2040C8B92046DB
:1034200000F0ECFE0390C74804601020C5494860D6
:10343000402088600020C8604FF480600861084622
:10344000FEF770FD1020FDF747F806461EB1304626
:10345000B5E72620B3E7012F6FD907FB04F0B0F1E1
:10346000007F01D32620AAE7B548007838B1B448D8
:103470000078012803D0B248007802282DD1B24844
:1034800000880004AF490860372048604020886009
:103490000020C8604FF4806008610846FEF742FDD6
:1034A0003720FDF719F806460EB1304687E7A548E4
:1034B00007601720A3494860402088600020C8604A
:1034C0004FF4806008610846FEF72CFD1720FDF7D9
:1034D00003F806460EB1304671E79A49069808602F
:1034E00019204860402088600020C8604FF4806048
:1034F00008610846FEF716FD1920FCF7EDFF0646A9
:103500000EB130465BE7039800018C49886007FBE9
:1035100004F048604FF0FF3008600120486100204F
:10352000C86008610846FEF797FC884800780028C4
:1035300074D1451EFCF732FE42E0E4E04FF48040D7
:10354000FEF7A4FCB8B3ABEB080020281FD2ABEB0E
:10355000080000F0030018B9ABEB0800800803E096
:10356000ABEB08008008401C01904FF000090AE016
:1035700071495431DAF80000086009F101090AF1D3
:10358000040A08F1040801988145F1D310E04FF0D6
:10359000000906E05AF8290067495431086009F12A
:1035A0000109B9F1080FF5D30AF1200A08F1200842
:1035B0006FF0404504E0FFE70DB90420FFE66D1E03
:1035C0005D480830006840F21A3108400028B5D044
:1035D0000820FEF75BFC20B10820FEF72DFC04203C
:1035E000EDE60220FEF752FC20B10220FEF724FC9B
:1035F0000220E4E61020FEF749FC20B11020FEF77F
:103600001BFC0520DBE64FF40070FEF73FFC30B1F9
:103610004FF40070FEF710FC0720D0E62CE04FF4CA
:103620008070FEF733FC00B34548007838B1444859
:103630000078012803D042480078022815D10020E4
:10364000404908600C204860402088600020C86025
:103650004FF4806008610846FEF764FC0C20FCF71C
:103660003BFF06460EB13046A9E6FCF799FD40F255
:10367000FF50FEF7E1FB46E034480078012842D1D4
:103680000020334908700120324908700020324977
:10369000087029481030006840F21A310843264962
:1036A0001031086007FB04F140220498FEF756FC35
:1036B0002148006840F008001F4908604FF0FF35BE
:1036C00000E06D1E2548006800F0006008B9002D7C
:1036D000F7D11DB9FEF740FE042070E64FF0FF352C
:1036E00000E06D1E1C48007820B91948007808B920
:1036F000002DF6D10DB9042061E61548007810B10F
:10370000134800785BE640F2FF50FEF795FB02A8F5
:10371000FDF790FE064603E002A8FDF78BFE064685
:103720003EB99DF808000728F6D09DF80800062845
:10373000F2D0304643E600002C2C01404CAA012078
:103740007800002038AA01207C00002080000020A2
:1037500082000020810000208300002000640240DD
:1037600021B1028842F04002028004E002884FF654
:10377000BF731A400280704710B50022028802F41D
:1037800041520B884C8823438C882343CC882343A5
:103790000C8923434C8923438C892343CC892343BD
:1037A0001A430280838B4FF2FF74234083830B8A7A
:1037B000038210BD00B587B001210220FEF760F939
:1037C00001218803FEF76CF902208DF80400002027
:1037D0008DF806004FF46040009001208DF807003E
:1037E00002208DF8050069461C48FDF77FF9052287
:1037F0000D211A48FDF7C2F905220E211748FDF7E1
:10380000BDF905220F211548FDF7B8F90020ADF8E4
:1038100008004FF48270ADF80A004FF40060ADF874
:103820000C000220ADF80E000120ADF8100040029F
:10383000ADF812002820ADF814000020ADF81600F5
:103840000720ADF8180002A90548FFF795FF0121F0
:103850000348FFF785FF07B000BD000000040240E9
:1038600000380040704700000CB500200190009027
:103870003448006840F480303249086000BF314865
:10388000006800F4003000900198401C01900098FE
:1038900018B90198B0F5A06FF1D12A48006800F47A
:1038A000003010B10120009001E00020009000984D
:1038B000012846D123484030006840F0805021491B
:1038C000403108602048006840F480401E4908608C
:1038D0001C48083000681B49083108600846006829
:1038E00040F4004008600846006840F4A0500860BA
:1038F0001648091F0860081F006840F08070091F03
:10390000086000BF0F48006800F000700028F9D080
:1039100040F205600E4908600A480830006820F04F
:1039200003000849083108600846006840F00200BA
:10393000086000BF03480830006800F00C00082849
:10394000F8D10CBD00380240007000401954400707
:10395000003C0240042808D14FF0E021096941F001
:1039600004014FF0E022116107E04FF0E021096906
:1039700021F004014FF0E022116170477047000010
:1039800010B51548006840F47000134908601348EA
:10399000006840F001001149086000200F4908311B
:1039A00008600E4800680E4908400C4908600D4840
:1039B000091D0860081F006820F48020091F0860A6
:1039C000002006490C310860FFF74EFF4FF0006001
:1039D00001498039086010BD88ED00E000380240E0
:1039E000FFFFF6FE1030002410B50121184800F04A
:1039F000ACF8012826D101211648FDF7E2F8D0B92C
:103A000015480088401C14490880084600880A2888
:103A10000DDB1248007830B90120114908700020F0
:103A20000D4908800EE000200B4908800AE00020C4
:103A30000B49087006E00020074908800849087013
:103A4000064908700121024800F070F810BD00001E
:103A5000000400400010024000000020020000208E
:103A6000030000202DE9FC4100240121244800F03E
:103A70006CF801283DD123480078002839D022482D
:103A80000078401C2049087000BF04E000201F4956
:103A90000855601CC4B2322CF8D30220FEF7EAF8B5
:103AA00005460120FEF7A0F806460220FEF728F999
:103AB00007460120FEF724F980463B46424614A102
:103AC0001248CDE9006500F005FA154B32220F4986
:103AD0001448006801F0FCF9134908600A480078AE
:103AE0000A2806DD0F48006801F09AF9002006490F
:103AF00008700121024800F019F8BDE8FC810000BF
:103B0000000800403E0000203D000020E0000020B2
:103B100025642025642025642025640A0000000017
:103B200014000020080000201C000020CA4302826C
:103B3000704721B1028842F00102028004E002884D
:103B40004FF6FE731A400280704730B502460020DF
:103B500000230024158A05EA0103958905EA01047A
:103B600013B10CB1012000E0002030BD1AB18389EF
:103B70000B43838102E083898B438381704700007C
:103B800000220288184B98420ED0184B98420BD056
:103B9000B0F1804F08D0164B984205D0154B984293
:103BA00002D0154B984204D14FF68F731A404B88C0
:103BB0001A43124B984207D0114B984204D04FF64B
:103BC000FF431A400B891A4302804B68C3620B887B
:103BD0000385054B984202D0044B984201D18B7A61
:103BE00003860123838270470000014000040140E6
:103BF0000004004000080040000C0040001000409D
:103C0000001400407FB505460C4601210420FDF755
:103C100047FF0295ADF804400020ADF80600ADF86E
:103C20000C0001A90D48FFF7ABFF012211460B481C
:103C3000FFF79CFF1E208DF8000001208DF8010089
:103C400000208DF8020001208DF803006846FDF782
:103C5000F7FD01210148FFF76CFF7FBD0008004020
:103C600010B540F22551094800F043F801280BD166
:103C7000064800F0F7F80649087000BF40210348E5
:103C800000F02AF80028F9D010BD00000010014013
:103C90000400002010B502460020108A20F4706055
:103CA0000B884C8823438C882343CC8823431843B8
:103CB000108210BD0021018041808180C180704749
:103CC00021B1828942F40052828104E082894DF65A
:103CD000FF731A408281704702460020B1F5007FD1
:103CE00000D100BF13880B400BB1012000E0002081
:103CF000704770B50246002400230025002040F6DE
:103D00006A16B14200D100BFC1F3421501F01F0392
:103D1000012606FA03F3012D02D19689334006E00D
:103D2000022D02D1168A334001E0968A33400C12EC
:103D3000012606FA04F41688344013B10CB10120B0
:103D400000E0002070BDF0B50346002400260025E9
:103D5000002040F66A17B94200D100BF1846C1F3EF
:103D6000421401F01F06012707FA06F5012C01D1C4
:103D70000C3004E0022C01D1103000E014301AB1F4
:103D800007682F43076002E00768AF430760F0BD94
:103D90002DE9FF4705460E460024A14600BFA04678
:103DA000B08900B100BF2C8A24F44054F088044349
:103DB0002C82AC8941F20C608443B088318908437D
:103DC000718908430443AC81AC8A24F44074B089FF
:103DD0000443AC826846FDF793FE2048854202D03A
:103DE0001F48854202D1DDF80C9001E0DDF8089013
:103DF000A88900F4004040B109EBC90000EB0910AC
:103E000031684900B0FBF1F707E009EBC90000EBAE
:103E1000091031688900B0FBF1F76420B7FBF0F0BE
:103E200004012009642101FB1078A88900F40040F6
:103E300040B1322000EBC800B0FBF1F000F0070009
:103E4000044308E0322000EB08106421B0FBF1F0DD
:103E500000F00F0004432C81BDE8FF8700100140F3
:103E60000014014001468888C0F308007047C1F380
:103E70000802828070474FF4165101600021818052
:103E8000C18001810C2141810021818170470000A6
:103E900002A000F00FF800BFFEE700000A0D205559
:103EA000736167654661756C745F48616E646C65CB
:103EB000722000000FB4054B10B503A9044A029804
:103EC00000F02CF810BC5DF814FB0000255600082B
:103ED0008C0000200FB4084B10B504A902AA039867
:103EE00000F01CF8044602A9002000F0C1F82046AA
:103EF00010BC5DF814FB00007140000802E008C827
:103F0000121F08C1002AFAD170477047002001E053
:103F100001C1121F002AFBD1704700002DE9FF4F9D
:103F200089B09B460446002506E025280BD05A465A
:103F30000B999047641C6D1C20780028F5D10DB0BA
:103F40002846BDE8F08F0027B8460122474900E027
:103F5000074314F8013F203B02FA03F00842F7D16F
:103F600020782E2819D114F8010F47F004072A28C9
:103F70000ED06FF02F022078A0F1300109290CD863
:103F800008EB880102EB410100EB0108641CF2E739
:103F90000A98641C50F8048B0A9020780028CED030
:103FA000642808D0692806D075281ED05A460B9977
:103FB00090476D1C58E00A994FF00A0901C90A910F
:103FC000002802DA40422D2102E0390504D52B21D8
:103FD0008DF82010012103E0F90704D02021F7E734
:103FE0008A4608AE0DE00021FAE70A994FF00A0967
:103FF00001C90A91F7E74946FCF725F9303106F87F
:10400000011D0028F7D1ADEB060000F1200978076B
:1040100001D44FF00108C84502DDA8EB090000E01B
:1040200000208046002706E008A85A46C05D0B998C
:1040300090476D1C7F1C5745F6DB04E030205A4644
:104040000B9990476D1CB8F10001A8F10108F5DC4F
:1040500005E016F8010B5A460B9990476D1CB9F113
:104060000001A9F10109F4DC641C65E709280100DD
:104070000A68531C0B6010707047000070B504464E
:104080000D4600202071401EE0622946204601F0C6
:10409000ADFC08B1032070BD94F82E1294F82F02E5
:1040A00041EA00204AF65521884201D00220F2E779
:1040B00094F86900010694F8680041EA004194F818
:1040C000670041EA002094F86610084320F07F4022
:1040D0000D49884201D10020DDE794F885000106F2
:1040E00094F8840041EA004194F8830041EA0020FA
:1040F00094F88210084320F07F400349884201D1A0
:104100000020C8E70120C6E746415400024600E00F
:10411000521C107810B110788842F9D1107870478D
:1041200070B503460D46586A021D680A1E68B678C7
:10413000B0FBF6F400BF02CA09B9002070BD8C4282
:1041400000D202E0641A121DF5E700BF1068204497
:10415000F4E70246891E5069801E884201D800207B
:1041600070479378906A01FB0300F9E72DE9F04767
:1041700005460C46207820F04000401E00EB8001F0
:1041800001EBC00600274FF0010800BF1A48C05DD0
:10419000205C1949C95D2144497840EA0129B8F1F8
:1041A000000F10D0484600F0D5FF8046FF2E07D202
:1041B0003146761C35F8110000F0CCFF404508D0A0
:1041C0000020BDE8F0874FF6FF70814501D0002048
:1041D000F7E7781C07460D28D8D3207800F0400078
:1041E00038B1B8F1000F04D035F8160008B100203E
:1041F000E7E70120E5E70000345F00080146002002
:1042000002E04910421CD0B20129FAD170472DE9D1
:10421000F04704468946B9F1000F06D1E76817B1A7
:104220006069B84215D8012713E04946204601F0DD
:104230006FFA0646022E02D20120BDE8F087701CFC
:1042400008B93046F9E76069B04201D93046F4E771
:104250004F463D4600BF6D1C6069A84204D8022548
:10426000BD4201D90020E8E72946204601F050FA76
:10427000064606B909E0701C08B1012E01D130468E
:10428000DBE7BD42E7D10020D7E700BF6FF0704207
:104290002946204601F0C0FC8046B8F1000F08D145
:1042A000B9F1000F05D02A464946204601F0B4FC7A
:1042B0008046B8F1000F0BD1E5602069401C78B151
:1042C0002069401E2061607940F00100607107E0C4
:1042D000B8F1010F02D14FF0FF3000E00120054698
:1042E0002846AAE72DE9F34F83B081460498006879
:1042F000019002E00198401C0190019800782F285D
:10430000F8D0019800785C28F4D0D9F81CA00025DA
:104310002F4600BF38467F1C01990C5C202C03DB24
:104320002F2C01D05C2C00D132E0FF2D03D30620CE
:1043300005B0BDE8F08FE4B2812C13DBE0B2FE28BB
:1043400010DC38467F1C01990E5C402E01DB7E2E6E
:1043500005DD802E01DBFE2E01DD0620E8E706EB01
:10436000042084B20121204600F0A8FE04460CB9C6
:104370000620DDE7802C06DA214671A0FFF7C6FE95
:1043800008B10620D4E728466D1C2AF81040C1E782
:1043900000BF0198C11904980160202C01DA0420A3
:1043A00000E00020804608E0681E3AF81040202C0B
:1043B00002D02E2C00D002E06D1E002DF4D100BFE3
:1043C0000DB90620B4E700202AF815000B222021A1
:1043D000D9F8180001F000FB002700E07F1C3AF834
:1043E00017002028FAD03AF817002E28F6D00FB17F
:1043F00048F0030800E06D1E25B1681E3AF8100071
:104400002E28F8D10020064602904FF0080B00BF7E
:1044100038467F1C3AF8104004B963E0202C03D0E2
:104420002E2C04D1AF4202D048F00308F0E70298E6
:10443000584501D2AF4214D1BBF10B0F02D148F065
:1044400003084FE0AF4201D048F00308AF4200D963
:1044500048E02F46082002904FF00B0BB006060EE6
:10446000D6E7802C09DB204600F074FE0021009086
:1044700000F024FE044648F00208FF2C11DDABF1E9
:1044800001000299884204D848F00308CDF808B02A
:10449000BEE72212D9F818300298411C02911A5432
:1044A00019E024B1214629A0FFF730FE18B15F249E
:1044B00048F003080FE0412C04DB5A2C02DC46F0E4
:1044C000020608E0612C06DB7A2C04DC46F00106CB
:1044D000A4F1200084B2D9F818300298411C02914E
:1044E0001C5495E700BFD9F818000078E52803D1DF
:1044F0000520D9F818100870BBF1080F01D1B006DB
:10450000060E06F00C000C2803D006F0030003286A
:1045100001D148F0020808F0020058B906F0030083
:10452000012801D148F0100806F00C00042801D140
:1045300048F00808D9F8180080F80B800020F7E64A
:10454000222A3A3C3E3F7C7F000000002B2C3B3D62
:104550005B5D000010B504466FF00400FFF7FAF948
:10456000E11704EB5171C1F3C701074A11701046FE
:10457000007800EB4001C1EBC0104FF6FF7101EA7B
:10458000C0000249088010BD880000208A00002079
:1045900070B504464FF4077094FBF0F0C6B24FF4C8
:1045A000077094FBF0F100FB114085B205E04FF479
:1045B000077000F02FF8701EC6B2002EF7D115B1AB
:1045C000284600F027F870BD0146114A12784A4388
:1045D0004FF0E0235A6100229A611A46126942F0B4
:1045E00001021A6100BF4FF0E022106900F00102E1
:1045F0001AB100F48032002AF5D04FF0E02212699F
:1046000022F001024FF0E0231A6100229A61704704
:10461000880000200146114A12884A434FF0E023E7
:104620005A6100229A611A46126942F001021A6127
:1046300000BF4FF0E022106900F001021AB100F44F
:104640008032002AF5D04FF0E022126922F00102F8
:104650004FF0E0231A6100229A6170478A0000201F
:104660002DE9F04104460E460021204600F0B8F93D
:104670000546EDB9002700BF2169206801F0B6F9B1
:10468000054605B113E060690078E52802D060694D
:10469000007820B9781C0746B04201D107E0002716
:1046A0000121204600F07FF80546002DE4D000BF30
:1046B000042D00D107252846BDE8F0812DE9F047FB
:1046C00004460021204600F08BF9074617B1384612
:1046D000BDE8F0874FF0FF09CA464FF6FF7020840F
:1046E00000BF2169206801F081F9074607B157E052
:1046F00065692E780EB9042752E0E87A00F03F0889
:10470000E52E05D008F0080040B1B8F10F0F05D034
:104710004FF0FF094FF6FF7020843AE0B8F10F0F19
:104720001CD1E06978B306F0400030B195F80DA0D7
:1047300026F04006B146E08820844E450AD1687BC9
:10474000504507D12946E069FFF710FD10B1A9F1E6
:10475000010000E0FF2000F0FF091AE0B9F1000FAE
:1047600005D1284601F031FB504500D118E0A06981
:10477000C07A00F0010038B90B222846A16901F087
:104780000BF908B90CE004E04FF0FF094FF6FF7099
:1047900020840021204600F006F80746002FA0D014
:1047A00000BF384694E72DE9F04104468846E0888A
:1047B000461CB0B208B1206910B90420BDE8F081F0
:1047C00006F00F0000286CD12069401C2061E068D1
:1047D00028B920680089B04263D80420EEE7206839
:1047E0008078401E00EA161000285AD1E16820683F
:1047F00000F08EFF0546012D01D80220DEE7681C7F
:1048000008B90120DAE720684069A84243D8B8F126
:10481000000F01D10420D1E7E1682068FFF7F7FC21
:1048200005460DB90720C9E7012D01D10220C5E7D2
:10483000681C08B90120C1E7206801F03AFB08B103
:104840000120BBE7216801F130004FF40072002124
:1048500001F0C2F829462068FFF77BFC2168C86296
:1048600000270EE0012021680871206801F021FB7B
:1048700008B10120A2E72068C06A401C2168C86214
:104880007F1C20688078B842ECD82068C06AC01BC2
:104890002168C86200BFE56029462068FFF759FC1F
:1048A0002061E6802068303006F00F0100EB4110F7
:1048B0006061002082E72DE9FE4F0446D4F818809D
:1048C000D4F81C900C224146684601F078F800BFED
:1048D0009DF80B0000F0010020B3002088F80B00C9
:1048E000E06101260CE033464A466946404600F046
:1048F000ABFE2046FFF7E2FE054605B102E0761C5E
:10490000642EF0D300BF642E02D10720BDE8FE8FD5
:10491000042D01D02846F9E79DF80B0088F80B001C
:10492000C4F81C909DF80B0000F0020060B1002656
:1049300000E0761C39F816000028FAD106F11900BB
:104940000D21B0FBF1F700E0012739462046FFF7C3
:1049500087FE054645BB781E070025D0E088C11BB1
:10496000204600F03DF80546F5B9A06901F02DFAA2
:10497000824600BF2169206801F038F8054605B17C
:1049800011E0FAB253466169E06900F0C3FD01200D
:104990002168087100212046FFF705FF054615B97B
:1049A000781E0700E6D100BFC5B92169206801F073
:1049B0001DF8054695B920220021606901F00CF828
:1049C0000B22D4E9050100F0FAFFA069C07A00F0DB
:1049D000180061690873012021680871284695E76D
:1049E0002DE9F04104460E46E680A568012D03D06E
:1049F00020684069A84202D80220BDE8F0812DB9A4
:104A000020680078032801D12068456A45B92068EC
:104A10000089B04201D80220EFE72068476A1EE013
:104A2000206880784FEA001812E02946206800F0DC
:104A30006FFE0546681C08B90120DEE7022D03D38E
:104A400020684069A84201D80220D6E7A6EB0806F4
:104A50004645EAD229462068FFF77BFB0746E5601A
:104A60000FB90220C9E707EB16102061206830302B
:104A700006F00F0100EB411060610020BDE770B54A
:104A8000044600251CB9FDF767FC054601E0012539
:104A900000BF00BF0DB1012070BD0020FCE7000089
:104AA0002DE9F04706468946154646BBB9F1000F89
:104AB00009D0B9F1010F13D0B9F1020F05D0B9F146
:104AC000030F19D106E0002418E04FF400702860AD
:104AD000002413E00C48B0F85000288000240DE0BA
:104AE00009484FF400720023D0E912713846FBF7F1
:104AF0006BFB2860002401E0042400BF00E00124D7
:104B00002046BDE8F087000088AA01202DE9F04189
:104B100005460E4617461C464FF0000814B90420FF
:104B2000BDE8F08195B9E2B239463046FEF72EF87D
:104B3000804607E0FDF710FCE2B239463046FEF74A
:104B400025F88046B8F1000FF4D102E04FF00108DB
:104B500000BF00BFB8F1000F01D10020E0E7012045
:104B6000DEE70146002070472DE9F04105460E467C
:104B700017461C464FF0000814B90420BDE8F08128
:104B800095B9E2B239463046FEF7B2FB804607E0FF
:104B9000FDF7E2FBE2B239463046FEF7A9FB80465C
:104BA000B8F1000FF4D102E04FF0010800BF00BFE0
:104BB000B8F1000F01D10020E0E70120DEE700009E
:104BC00010B500240EE04FF40C71002001F006F83F
:104BD000184941F82400084650F8240000B903E0C1
:104BE000601CC4B2032CEEDB00BF4FF40A7100203E
:104BF00000F0F4FF104908604FF40A71002000F043
:104C0000EDFF0E4908604FF40071002000F0E6FF50
:104C10000B490860032C0AD10748006838B10748DF
:104C2000006820B10846006808B1002010BD0120CE
:104C3000FCE7000090000020080000200C0000208D
:104C400018000020F7B582B016460398019001A81D
:104C500000F0D6FD0546002D02DA0B2005B0F0BDB0
:104C60000E4850F825400CB100202070029810B179
:104C70000020029908700949029841F8250002981D
:104C800008B1012E01D00020E8E7002203A902A804
:104C900000F07CFA07463846E0E7000014010020E7
:104CA0002DE9F7478DB0054616461DB9092010B00D
:104CB000BDE8F0870020286006F01F0626F00102FC
:104CC0000EA904A800F062FA0746002F73D14FF432
:104CD000007000F031FA8146B9F1000F01D11120C6
:104CE000E5E7CDF82C9001A80A9004A80E9900F0F1
:104CF00051FC0746099C0FB904B9062706F01C00B1
:104D0000002851D04FB1042F03D104A8FFF7D3FDE1
:104D1000074646F00806099C09E0E07A00F0110019
:104D200008B1072703E006F0040000B10827002FB0
:104D300039D106F00800002835D000F05DFD80462E
:104D400084F80E804FEA1821E1734FEA184121746C
:104D50004FEA186161740020E072207700216177CA
:104D6000A177E1772146049800F06FFD824600218B
:104D7000204601F022F8012004990871BAF1000FD1
:104D800011D00498D0F82C805146049800F0DFFF31
:104D9000074647B9AAF101000499C8604146049842
:104DA00000F024FE07460FE077B9E07A00F010002B
:104DB00010B1042708E031E006F0020020B1E07AEB
:104DC00000F0010000B1072747B906F0080008B15C
:104DD00046F020060498C06AE8612C62484600F05C
:104DE000B2F9DFB9AE710020E8712146049800F0F5
:104DF0002CFD2861E07F0106A07F41EA0041607F31
:104E000041EA0020217F0843E8600020A860A861F3
:104E10006862049828602868C088A880384646E7F9
:104E20002DE9F0410446204601F069F80746002FBD
:104E30004CD1A07900F02000002847D0A07900F0E4
:104E4000400078B121684878012304F12801A26963
:104E5000FFF78AFE10B10120BDE8F081A07920F0B3
:104E60004000A071E169206800F0C0FD0746002FF6
:104E70002CD1256AE87A40F02000E872207B287760
:104E8000A089010A6977E068010CA977E068010E42
:104E9000E9772846216900F090FF00F0ADFC064656
:104EA000AE75310AE975310C2976310E697600202C
:104EB000A8740021E974A07920F02000A0710120DD
:104EC00021680871206800F090FF07463846C3E764
:104ED0002DE9FF4F83B0044615469B460498019088
:104EE0000020CBF80000204601F009F8029002985B
:104EF00018B1029807B0BDE8F08FE07908B1E07909
:104F0000F8E7A07900F0020008B90720F2E7A068EE
:104F10002844A168884200D20025BEE02089C0F361
:104F2000080000287DD120688078401EA16800EA32
:104F3000512000F0FF0ABAF1000F26D1A06838B95D
:104F4000276997B900212068FFF761F907460CE04F
:104F5000606A28B12046A168FFF7E2F8074604E03E
:104F600061692068FFF753F9074607B998E0012FF8
:104F700002D10220E071BDE7781C10B90120E07178
:104F8000B8E76761206900B92761A07900F04000A7
:104F900078B121684878012304F12801A269FFF75C
:104FA000E3FD10B10120E071A4E7A07920F04000FA
:104FB000A07161692068FFF7CCF8064616B9022097
:104FC000E07197E756444FEA5529B9F1000F2CD00C
:104FD0000AEB090021688978884203D92068807823
:104FE000A0EB0A09216848784B4632460199FFF741
:104FF000BBFD10B10120E0717CE7A069801B484532
:105000000ED2A069801B019A02EB40214FF400727E
:1050100004F1280000F0D3FCA07920F04000A0713A
:1050200000E016E04FEA49282AE0A069B0420FD01C
:10503000D4E9020188420BD2216848780123324624
:1050400004F12801FFF762FD10B10120E07151E782
:10505000A6612089C0F30800C0F50078A84500D9F2
:10506000A8462189C1F3080204F1280150184246DC
:10507000019900F0A4FCA07940F04000A07100BFAD
:10508000019840440190A0684044A060DBF8000013
:105090004044CBF80000A5EB0805002D7FF43EAF9F
:1050A00000BFD4E90201884201D9A068E060A0797C
:1050B00040F02000A07100201CE700002DE9F04125
:1050C00002460F46802A01DA10462FE01FB1184B26
:1050D00045F2205602E0174B45F2205600251024D9
:1050E00016E0A6EB050C0CEBDC7805EB68014FEA4B
:1050F000410C33F81CC0944500D10BE04FEA410C41
:1051000033F81CC0944501DA0D4600E00E46641EDB
:10511000002CE6D100BF34B14FF0010C0CEB410C78
:1051200033F81CC001E04FF0000C6046BDE8F08190
:1051300018B40108945F000810B504462146002009
:1051400000F04CFD10BD10B504462146002000F0D3
:1051500033FD10BD0246002100E0491C094830F82B
:10516000110020B1074830F811009042F5D10548F0
:1051700030F8110018B1044830F81100704710469B
:10518000FCE700009C0803087C0A03082DE9F74FA0
:1051900088B0002108980160099800F031FB079061
:1051A0000798002803DA0B200BB0BDE8F08FD54933
:1051B000079851F820400CB90C20F5E708980460D6
:1051C000207878B16078FFF7CCFC804608F00100C9
:1051D00040B90A9820B108F0040008B10A20E3E7BA
:1051E0000020E1E700202070079860706078FFF7EA
:1051F00046FC804608F0010008B10320D4E70A9875
:1052000020B108F0040008B10A20CDE70027394694
:105210002046FEF733FF0546012D01D06DBB2CE083
:10522000002614E004F5F77101EB0610017951B185
:10523000C17A0A06817A42EA0142417A42EA0121B0
:10524000027A114300E000214DF82610761C042E4E
:10525000E8D3002606B1761E00BF5DF8267027B1A0
:1052600039462046FEF70AFF00E0022005461DB140
:10527000701C06460428F0D300BF032D01D1012085
:1052800092E70DB10D208FE73B20015D94F83C00C3
:1052900041EA0020B0F5007F01D00D2084E74620D0
:1052A000015D94F8470041EA0029B9F1000F0ED1E1
:1052B00094F85700010694F8560041EA004194F82A
:1052C000550041EA002094F8541040EA0109C4F85E
:1052D00018904020005DE070E078012804D0E0786C
:1052E000022801D00D205FE7E07809FB00F93D209E
:1052F000005DA070A07818B1A078411E084008B1E8
:105300000D2051E74120015D94F8420041EA002060
:105310002081207A00F00F0008B10D2044E74320DF
:10532000015D94F8440041EA002BBBF1000F0ED15F
:1053300094F85300010694F8520041EA004194F8B1
:10534000510041EA002094F8501040EA010B3E2041
:10535000015D94F83F0041EA00200490049808B9E8
:105360000D2021E704984844218900EB1110069094
:105370000698834501D20D2016E70698ABEB000096
:10538000A178B0FBF1FABAF1000F01D10D200BE7C3
:10539000012540F6F670824500D302254FF6F670DF
:1053A000824500D303250AF102006061E761049899
:1053B0003844206206983844A062032D16D1208913
:1053C00008B10D20F0E694F85F00010694F85E0045
:1053D00041EA004194F85D0041EA002094F85C1035
:1053E0000843606260698000059014E0208908B974
:1053F0000D20D9E6206A48446062022D02D160691E
:10540000400007E0207D00F00100616901EB4101EF
:1054100000EB51000590A169059800F2FF10B1EB77
:10542000502F01D20D20BFE64FF0FF302061E06029
:1054300080206071032D5AD194F8601094F86100B7
:1054400041EA0020012852D1791C204600F0CEFA12
:10545000E8BB0020607194F82E1294F82F0241EA04
:1054600000204AF65521884241D13320005D0106D3
:105470003220005D41EA00413120005D41EA002018
:1054800094F8301008432049884230D194F817022C
:10549000010694F8160241EA004194F8150241EA27
:1054A000002094F814120843184988421FD194F838
:1054B0001B02010694F81A0241EA004194F819020D
:1054C00041EA002094F818120843206100E00EE041
:1054D00094F81F02010694F81E0241EA004194F874
:1054E0001D0241EA002094F81C120843E060257078
:1054F00007480088401C80B205490880E0800020F1
:1055000052E6000014010020525261417272416162
:1055100052000020F0B504461D464D730F27CF7290
:1055200000270F738F76BC4681F81BC0571E07EB10
:10553000870C0CEBC706002738463B4600BF4FF6EA
:10554000FF77B84203D03746761C34F81700DFF8EF
:1055500040C01CF803C001F80C000712DFF830C08F
:105560001CF803C08C448CF8017008B94FF6FF702A
:105570005F1C3B460D2FE2D34FF6FF77B84202D0B7
:1055800034F816700FB942F040020A70F0BD000006
:10559000345F00082DE9F3410446019800782F2874
:1055A00003D0019800785C2802D10198401C01903A
:1055B0000020A06001980078202807D20021204612
:1055C000FFF70EFA05460020606128E000BF01A940
:1055D0002046FEF787FE054605B11FE02046FFF78F
:1055E0006DF80546A069C67A3DB1042D04D100BF0F
:1055F00006F0040000B9052510E006F0040000B133
:105600000CE06769F87A00F0100008B9052505E09C
:105610003946206800F019F9A060D8E700BF284695
:10562000BDE8FC8170B504460D46E1B20548FEF7C1
:105630001EFC00BF40210348FEF74EFB0028F9D0B6
:10564000204670BD001401402DE9FC4707468A46FC
:1056500090461E460B225146384600F0B0F9052E02
:1056600018D9304610E038F8021B00250AE00A4637
:1056700060F35F021046491000F480320AB1234AF9
:1056800050406D1C102DF2D3B8F80020002AEAD14A
:10569000064600BF072500BF06F00F0000F13009E5
:1056A000B9F1390F03DD09F1070000F0FF092846C1
:1056B0006D1E0DF800903609002EEDD17E200DF8FC
:1056C000050000240BE0385D812807DB385DFE28EB
:1056D00004DC681EA04200D106E0641C641CAC42DD
:1056E00002D2385D2028EED100BF00BF082D04D2C1
:1056F00028466D1C1DF8001000E020212046641C87
:105700003954082CF2D3BDE8FC87000021100100B9
:105710002DE9F04105460C46022C02D36869A042EF
:1057200002D80120BDE8F0812878012804D00228A1
:105730002CD003285AD13DE0274607EB5707286AAB
:1057400000EB5721284600F051F900B150E0C7F3B3
:10575000080105F1300010F801807F1C286A00EB79
:105760005721284600F042F900B141E0C7F3080193
:1057700005F13000405C48EA002804F0010010B157
:105780004FEA1810CEE7C8F30B00CBE7286A00EB0E
:105790001421284600F02AF900B129E040F2FF1058
:1057A00000EA440105F130000E183078717840EAC3
:1057B0000120B7E7286A00EBD411284600F016F95B
:1057C00000B115E040F2FF1000EA840105F130005D
:1057D0000E18F0780006B17840EA0140717840EA8E
:1057E00001203178084320F070409BE7012099E7C1
:1057F00000BF4FF0FF3095E70048704700001147A9
:1058000070B502464FF0FF301568E5B1116800E051
:10581000491C0D78202D02D30D783A2DF8D10D7842
:105820003A2D0FD1146814F8015BA5F130030A2B4F
:1058300007D28C4205D1032B03D218464D1C2946B2
:10584000156070BD002000BFFBE710B502468C7EDE
:10585000CB7E44EA03201378032B05D10C7D4B7DCE
:1058600044EA032340EA034010BD0000A820FEF7ED
:1058700071FEFCF723F8FCF751F842F2CF0140F239
:10588000E730FEF7BFF9002000F000F9022000F039
:10589000FDF8FFF795F9FDF78DFFFAF7CBFDFAF765
:1058A00061FDFAF749FDFBF793FC0A20FEF770FE55
:1058B000FBF72BFF0A20FEF76BFEFBF7D3F90A205C
:1058C000FEF766FEFBF713FE0A20FEF761FEFBF70C
:1058D00025FB0A20FEF75CFEFBF790FE0A20FEF790
:1058E00057FEFBF705FF1F490870FBF7F3FD1E4944
:1058F0000870FBF776FE1D4908701A4800781A49AF
:105900000978084019490978084028B14FF4007116
:105910001748FBF75FF904E04FF400711448FBF7F8
:105920005BF9FCF719FD1349086013490122086867
:1059300012A1FFF787F90F490860002210A1134850
:10594000FEF7C8FA0A22114911480068FFF7A8F9C2
:10595000084908600846006810B901200D49087020
:1059600000BFFEE73F000020400000204100002073
:10597000000402401C00002090000020303A00008B
:10598000544553545F25642E54585400E0000020C1
:10599000080000203E000020F0B503461C460D46DE
:1059A000002000BF1600A2F1010207D014F8017B0D
:1059B00015F801CBA7EB0C063000F3D0F0BD70B5A5
:1059C00003460C4603E014F8015B03F8015B150085
:1059D000A2F10102F7D170BD30B5034601E003F832
:1059E000011B1400A2F10102F9D130BD70B50446CB
:1059F0000D46E06AA84210D0204600F05AFA08B1DD
:105A0000012070BD607801232A4604F13001FFF7C0
:105A10007DF808B10120F4E7E5620020F1E700001D
:105A20002DE9F04104460E461548005D38B914488A
:105A300020380168204688470120BDE8F0811148E0
:105A400050F82400B04219D90F4850F82400B6FB92
:105A5000F0F10B480C3850F8240030F811200025E4
:105A600008E0002306480C3850F824004F1920F8AD
:105A700017306D1C9542F4DB0020DEE70220DCE7E6
:105A800074000020885F00087C5F000810B50446A1
:105A90000C4951F824104A000B4951F82400002108
:105AA00000F0B0F8094951F8242007490C3951F8A1
:105AB0002400002100F0A6F8012103480C30015514
:105AC00010BD0000705F000868000020885F0008BB
:105AD0002DE9F04704460F460025A9462348005DFE
