:020000040800F2
:1000000040B10120A5010008190D0008F10B0008FE
:10001000B50C0008850400086D34000800000000DD
:10002000000000000000000000000000412D00085A
:100030005509000800000000C10D0008592E0008F5
:10004000BF010008BF010008BF010008BF01000890
:10005000BF010008BF010008BF010008BF01000880
:10006000BF010008BF010008BF010008BF01000870
:10007000BF010008BF010008BF010008BF01000860
:10008000BF010008BF010008E9030008BF01000824
:10009000BF010008BF010008BF010008BF01000840
:1000A000BF010008BF010008BF010008BF01000830
:1000B000BF010008C52E0008452F0008BF01000839
:1000C000BF010008BF010008BF010008BF01000810
:1000D000BF01000875310008BF010008BF0100081A
:1000E000BF010008BF010008BF010008BF010008F0
:1000F000BF010008BF010008BF010008BF010008E0
:10010000BF01000819120008BF010008BF01000864
:10011000BF010008BF010008BF010008BF010008BF
:10012000A9060008BF010008BF010008BF010008C0
:10013000BF010008BF010008BF010008BF0100089F
:10014000BF010008BF010008BF010008BF0100088F
:10015000BF010008BF010008BF010008BF0100087F
:10016000BF010008BF010008BF010008BF0100086F
:10017000BF010008BF010008BF010008BF0100085F
:10018000BF010008BF010008DFF80CD000F0A2F8A2
:10019000004800476D4E000840B1012072B670471C
:1001A00062B670470648804706480047FEE7FEE70C
:1001B000FEE7FEE7FEE7FEE7FEE7FEE7FEE7FEE717
:1001C0005D2E0008890100082DE9F0410024254634
:1001D000002905DA01240027D0EB070067EB0101B5
:1001E000002B05DA0027D2EB0702012567EB03039A
:1001F00000F03FF886460E4617469C46AC4204D0B7
:100200000025D0EB050E65EB010624B10020D2EBF2
:10021000000760EB030C704631463A466346BDE882
:10022000F08140EA01039B0703D009E008C9121FCF
:1002300008C0042AFAD203E011F8013B00F8013BA0
:10024000521EF9D2704730B50B46014600202022DD
:10025000012409E021FA02F59D4205D303FA02F5D3
:10026000491B04FA02F52844151EA2F10102F1DC33
:1002700030BD2DE9F05F0546002092469B4688463A
:100280000646814640241BE0284641464746224612
:1002900000F041F853465A46C01A914110D3114616
:1002A0001846224600F028F82D1A67EB01084F4641
:1002B00022460120002100F01FF817EB00094E41F3
:1002C000201EA4F10104DFDC484631462A4643469D
:1002D000BDE8F09F064C074D06E0E06840F00103E2
:1002E00094E8070098471034AC42F6D3FFF750FF6C
:1002F000EC0203080C030308202A04DB203A00FA6E
:1003000002F1002070479140C2F1200320FA03F36C
:10031000194390407047202A04DB203A21FA02F06A
:100320000021704721FA02F3D040C2F1200291402F
:10033000084319467047000010B5012003F016FC71
:100340008021074800F046FC4021054800F044FCAD
:100350002021034800F040FC012003F007FC10BD01
:100360000004024010B501210C4800F033FC0120CC
:1003700003F018FC0121094800F02EFC012003F0D5
:1003800011FC0121054800F025FC012003F00AFCC6
:100390004FF48061014800F01FFC10BD00040240D2
:1003A00000220A12D3430360704721B1826842F0F1
:1003B0000102826003E0826822F0010282607047DD
:1003C00070B502460020002300240B125568012658
:1003D0008E4005EA060415681D4015B10CB10120D8
:1003E00000E0002070BD000010B54FF48371094893
:1003F000FFF7E6FF01280BD14FF483710548FFF7A3
:10040000CFFF00210348FFF7D0FF03A003F040F81F
:1004100010BD000000220140496E707574206973A0
:10042000206F7574206F6620746872657264212174
:10043000000000001CB50121022000F0A5FD40F2E3
:10044000F350009001208DF8040000208DF8060084
:1004500002208DF805006946094800F047FB04209A
:10046000009000208DF804008DF806008DF807003C
:1004700002208DF805006946014800F037FB1CBDDD
:100480000004024002A003F003F800BFFEE70000F2
:100490000A0D204275734661756C745F48616E6425
:1004A0006C6572200000000070B500254FF48034A8
:1004B00004E0802000F09CFE00B103E02000A4F1E5
:1004C0000104F6D100BF0CB9032070BD40F2FF500B
:1004D00000F064FE2846F8E770B5044605E01648CB
:1004E000056805F0450000B100E0F8E700BF042012
:1004F00000F07EFE20B1042000F050FE032070BD0D
:10050000012000F075FE20B1012000F047FE01201F
:10051000F5E7094824380068A04201D01020EEE732
:1005200040F2FF5000F03AFE0348203800680821EE
:100530000840C0B2E3E70000342C014070B500264B
:100540004FF4803505E01148046804F0450000B11F
:1005500003E02800A5F10105F5D100BF15B104F0B5
:10056000040028B10326042000F018FE304670BDB8
:10057000012000F03DFE18B10126012000F00EFE22
:1005800040F2FF5000F00AFE3046F0E7342C014004
:1005900010B505E00B48046804F0450000B100E028
:1005A000F8E700BF042000F023FE20B1042000F093
:1005B000F5FD032010BD40F2FF5000F0EFFD0020DC
:1005C000F8E70000342C01402DE9F04105460E46C5
:1005D0004FF0000805E02048076807F0450000B12B
:1005E00000E0F8E700BF042000F002FE28B104207C
:1005F00000F0D4FD0320BDE8F081012000F0F8FDFB
:1006000020B1012000F0CAFD0120F4E7124824388F
:100610000068A84201D01020EDE740F2FF5000F042
:10062000BDFD0D482038046804F4604018B9200C62
:1006300030804046DFE704F4005008B11320DAE7C9
:1006400004F4804008B11020D5E704F4004008B15C
:100650000F20D0E74046CEE7342C014070B500268D
:100660004FF4803505E00F48046804F0450000B100
:1006700003E02800A5F10105F5D100BF15B104F094
:10068000040028B10326042000F088FD304670BD28
:1006900004F0400018B10026402000F07FFD3046F5
:1006A000F5E70000342C014010B50549054800F07D
:1006B000F3F818B10249034800F006F810BD000035
:1006C00020800010106402400246094B9A4201D279
:1006D000084801E00648103801F000531BB1064BF2
:1006E0000B40C36002E0044B0B4083607047000086
:1006F00010640240006002407D0F7D0F21B102684E
:1007000042F00102026003E0026822F0010202608E
:1007100070470000016821F00101016000210160C3
:1007200041608160C1600161212141614A49884283
:1007300004D13D21484A103A91608CE04649183175
:10074000884205D14FF47461434A103A916082E0C7
:1007500041493031884205D14FF474113E4A103A74
:10076000916078E03C494831884205D14FF074618E
:10077000394A103A91606EE037496031884204D1BD
:100780003649354A103AD16065E0334978318842BC
:1007900004D13349304A103AD1605CE02E4990319F
:1007A000884204D12F492C4A103AD16053E02A499B
:1007B000A831884205D14FF03D51274A103AD16007
:1007C00049E02949884204D13D21274A083A11606D
:1007D00041E025491831884205D14FF47461224A1D
:1007E000083A116037E020493031884205D14FF492
:1007F00074111D4A083A11602DE01B4948318842A6
:1008000005D14FF07461184A083A116023E0164987
:100810006031884204D11149134A121F11601AE055
:1008200011497831884204D10D490F4A121F1160D5
:1008300011E00D499031884204D10A490A4A121F39
:10084000116008E00849A831884204D14FF03D51B9
:10085000054A121F11607047106002403D000020E1
:10086000400F002000003D201064024021B10268CA
:1008700042F02002026003E0026822F020020260DF
:100880007047014600200A6802F001020AB1012007
:1008900000E000207047000070B5024600200024F0
:1008A0000025124EB24201D2114B01E00F4B103B1A
:1008B000104E0E4036B11E2606EAD124166806EA0E
:1008C000040502E0566906F0800501F000560EB1FD
:1008D0005C6800E01C68084E344004EA010616B16A
:1008E0000DB1012000E0002070BD00001064024046
:1008F000006002403C0F3C0F7D0F7D0F10B50022C1
:100900000268134B1A40CC680B6823434C6923439D
:100910008C692343CC6923430C6A23434C6A2343E9
:100920008C6A23434C6B23438C6B23431A43026032
:10093000426922F00702D1E90B3423431A43426192
:100940000B6943604B6883608B68C36010BD000017
:100950003F801CF0704700002DE9FC4107460D4622
:100960000026002400200090019008205B490860C8
:1009700010204860402088600020C8604FF48060EC
:100980000861084600F080FC1020FFF7A5FD044632
:1009900014B12046BDE8FC815148008800044F494D
:1009A000086037204860402088600020C8604FF40D
:1009B00080600861084600F067FC3720FFF78CFD77
:1009C00004460CB12046E5E74FF0FF30454908608A
:1009D00008204860302088600220C860002008613C
:1009E00001204861084600F0E9FB00203B4908600F
:1009F00033204860402088600020C8604FF4806049
:100A00000861084600F040FC3320FFF765FD04460E
:100A10000CB12046BEE70CE04FF4001000F0E8FBFC
:100A200038B1314800684DF82600761C022E00D3FC
:100A300007E02D484C38006840F22A610840002841
:100A4000EAD000BF082000F0D3FB20B1082000F05E
:100A5000A5FB04209EE7022000F0CAFB20B1022083
:100A600000F09CFB022095E7202000F0C1FB20B1A4
:100A7000202000F093FB06208CE74FF4007000F07C
:100A8000B7FB28B14FF4007000F088FB072081E726
:100A900040F2FF5000F082FB00980006009901F43C
:100AA0007F4140EA0120009901F47F0140EA1120D2
:100AB000009940EA1160686001980006019901F40C
:100AC0007F4140EA0120019901F47F0140EA1120B1
:100AD000019940EA1160286020465BE798AA01204E
:100AE00088000020ACAA0120802C0140F0B50A4605
:100AF00000210023002400BF3DE0012505FA01F399
:100B0000156805EA03049C4234D105684F000326AA
:100B1000BE40B543056015794E00B54006683543C3
:100B200005601579012D02D01579022D16D1856841
:100B30004F000326BE40B543856055794E00B54051
:100B4000866835438560456801268E40B54345601B
:100B5000456896798E40B6B235434560C5684F000A
:100B60000326BE40B543C560D5794E00B540C66882
:100B70003543C560491C1029BFD3F0BDF0B5002333
:100B800000244D07ED0E02FA05F3CE1000F120050A
:100B900055F826504E07F70E0F26BE40B543CF102E
:100BA00000F1200646F82750CE1000F1200555F838
:100BB000265045EA0304CE1000F1200545F82640F2
:100BC000F0BD0246002013690B400BB1012000E08C
:100BD0000020704741837047018370474FF6FF71D3
:100BE00001600021017141718171C1717047000084
:100BF00002A002F04DFC00BFFEE700000A0D2048F5
:100C00006172644661756C745F48616E646C657294
:100C1000200000001CB504460020019000902248EE
:100C200000880004214908600D2048604020886049
:100C30000020C8604FF480600861084600F024FB83
:100C40001B480068009002E0194800680090009876
:100C500000F045000028F7D0012000F0C9FA20B1CB
:100C6000012000F09BFA01201CBD042000F0C0FA16
:100C700020B1042000F092FA0320F5E70C48243854
:100C800000680D2801D01020EEE740F2FF5000F080
:100C900085FA07482038006801900198C0F3432086
:100CA00020700020E0E700008800002098AA0120C2
:100CB000342C014002A002F0EBFB00BFFEE7000075
:100CC0000A0D204D656D4D616E6167655F48616E0F
:100CD000646C65722000000038B50446002084F87A
:100CE0002000A060E0600022226162610021A16119
:100CF000E16120704FF4C06000F058F825208DF8B5
:100D0000000001208DF801008DF802008DF803002D
:100D1000684600F00FF838BD10B502A002F0B8FB2D
:100D200010BD00000A0D204E4D495F48616E646C95
:100D30006572200070B5002100230F22C4781CB317
:100D4000174C246804F4E064C4F5E064C4F307219C
:100D5000C1F10404E3B20A4144789C40E1B28478D2
:100D6000144021430C07210E0E4C05786155047880
:100D700004F01F050124AC4005786D11AD0005F1AC
:100D8000E025C5F8004109E0047804F01F050124BE
:100D9000AC40054D0678761145F8264070BD000040
:100DA0000CED00E000E400E080E100E002490143D6
:100DB000024A1160704700000000FA050CED00E0E7
:100DC000704700001CB50121022000F0DDF8012071
:100DD0008DF8040000208DF806008DF80700032030
:100DE0008DF805004FF40070009069460B48FFF73E
:100DF0007DFE0121102000F0C7F800208DF80400CE
:100E00008DF806008DF8070003208DF805000120FD
:100E1000009069460248FFF769FE1CBD00040240CD
:100E20000010024000B589B00121102000F0CCF87C
:100E30000121084600F0A8F8072209214E48FFF7D3
:100E40009DFE07220A214C48FFF798FE07A8FFF7EE
:100E5000C5FE4FF40070079002208DF820008DF839
:100E6000210007A94448FFF741FE4FF48060079036
:100E700002208DF820008DF8210007A93E48FFF7D9
:100E800035FE03A802F0E5FA4FF4E13003900020AC
:100E9000ADF81000ADF81200ADF81400ADF8180070
:100EA0000C20ADF8160003A9344802F05FFA01A83F
:100EB00002F0EEF901A9314802F0DAF9012240F21C
:100EC00025512E4802F02DFA01212C4802F0E6F9B6
:100ED0000121202000F078F80121042000F054F8CE
:100EE000082206212648FFF749FE08220721244848
:100EF000FFF744FE07A8FFF771FE4020079002208D
:100F00008DF820008DF8210007A91D48FFF7EEFDA0
:100F10008020079002208DF820008DF8210007A97D
:100F20001748FFF7E3FD03A802F093FA4FF4E1300E
:100F300003900020ADF81000ADF81200ADF81400D9
:100F4000ADF818000C20ADF8160003A90D4802F00A
:100F50000DFA01A802F09CF901A90A4802F088F9EB
:100F6000012240F22551074802F0DBF90121054832
:100F700002F094F909B000BD0000024000100140E9
:100F8000000802400014014029B1064A12680243D9
:100F9000044B1A6004E0034A12688243014B1A6052
:100FA000704700003038024029B1064A12680243F7
:100FB000044B1A6004E0034A12688243014B1A6032
:100FC000704700004038024029B1064A12680243C7
:100FD000044B1A6004E0034A12688243014B1A6012
:100FE000704700004438024029B1064A12680243A3
:100FF000044B1A6004E0034A12688243014B1A60F2
:101000007047000024380240F0B50021002200247F
:10101000022500260223324F3F6807F00C0121B160
:10102000042905D0082937D105E02E4F076036E0A6
:101030002D4F076033E02A4F3F1F3F68C7F38056AC
:10104000274F3F1F3F6807F03F036EB1264FB7FBA6
:10105000F3F7DFF88CC0ACF1040CDCF800C0CCF383
:10106000881C07FB0CF40CE01E4FB7FBF3F7DFF80E
:1010700070C0ACF1040CDCF800C0CCF3881C07FB9A
:101080000CF4174F3F1F3F68C7F301477F1C7D00DB
:10109000B4FBF5F7076002E0124F076000BF00BF26
:1010A0000F4F3F6807F0F0010909104F7A5C07689D
:1010B000D74047600A4F3F6807F4E051890A0B4F59
:1010C0007A5C4768D7408760054F3F6807F4604106
:1010D000490B064F7A5C4768D740C760F0BD0000F7
:1010E000083802400024F40040787D014E000020C2
:1010F0007CB50546002400200090019000260DB12B
:10110000022600E000262248006800F0007008B1C6
:101110000E207CBD1F49098888B26946FFF71CFC78
:1011200004460CB12046F4E7019800F4802060B337
:10113000184800880004184908603720486040209B
:1011400088600020C8604FF480600861084600F0A5
:101150009BF83720FFF7C0F904460CB12046D8E7CA
:101160000D48066006200C49486040208860002039
:10117000C8604FF480600861084600F085F80620DA
:10118000FFF7AAF904462046C3E72520C1E700007F
:10119000142C01408800002098AA01200149086011
:1011A00070470000382C01400146034A106820F0C7
:1011B000FF00084310607047042C014000210B4BD6
:1011C00002681A601B1D42681A601A1D116821F01E
:1011D000F701D0E902231A4303691A4343691A430A
:1011E0001143024A0832116070470000242C01406C
:1011F00001460020034A12680A400AB1012000E0BB
:1012000000207047342C01400248006800F00300C1
:1012100070470000002C014010B500F08BFC10BDA1
:1012200000210A4A116847F6FF629143027D8368F4
:101230001A4343681A43C3681A4303681A4303698D
:101240001A431143014A116070470000042C014009
:1012500000200B490860091D0860091D0860091D70
:101260000860074924310860091D0860091D0860ED
:1012700004480349383108600020091D08607047A0
:10128000002C0140FF07C0000021094B02681A60D2
:101290001A1D11686FF30A01D0E901231A43C368CC
:1012A0001A4303691A431143014A121D1160704722
:1012B000082C01400149086070470000002C0140E3
:1012C00070B590B004460E46154600BF1A48FFF7A9
:1012D000D8FA0028FAD11848FFF71CFA4FF000603E
:1012E0000190164802900394049500200590069002
:1012F0004FF48060079080000890800009900020E3
:101300000A904FF440300B9004200C9003200D9075
:101310004FF400000E9080100F9001A90648FFF7CF
:10132000EDFA20210448FFF7A1FA01210248FFF756
:10133000E5F910B070BD000058640240802C0140F7
:1013400070B50446002516480078032802D12725E9
:10135000284670BD1248007838B11148007801283D
:1013600003D00F480078022817D1B4F5805F02D16E
:1013700027252846EDE7E0B2FFF7BAFE054665B936
:101380000848006820F4C050064908600846006814
:10139000204308600846006808602846D9E7000036
:1013A00084000020042C0140F0B5014600200022FA
:1013B000BE4B1B7881F85630BD4B1B88A1F85430CA
:1013C000BC4B1B681A0E93090B70C2F383034B705E
:1013D00002F003038B70B74B1B68C3F30742CA705C
:1013E000B44B1B88C3F307220A71B24B1A784A71B7
:1013F0005B681A0E1301CB80AE4B5B68C3F30742E8
:10140000CB8843EA1213CB8002F00F030B72A94B77
:101410009B88C3F30722D3094B72C2F380138B72EC
:10142000C2F34013CB72C2F300130B7300234B7350
:101430009E4B1B783BB19D4B1B78012B03D09B4BE4
:101440001B78032B4FD193071B0D0B61994B1A7916
:101450000B6943EA82030B61964B9B681A0E0B697A
:1014600043EA92130B61C2F3C2030B7502F0070348
:101470004B75904B9B68C3F3074253098B75C2F3BE
:101480008203CB7593075B0F0B768A4B1B89C3F3E3
:1014900007220B7E43EAD2130B760B695B1C0024F8
:1014A000C1E912340B7E9B1C012404FA03F3DC1700
:1014B000D1E91256A5FB037C06FB03C305FB0433ED
:1014C000C1E912730C7A0123A3400B650024D1E912
:1014D00012650B6DA6FB037C05FB03C306FB0433FF
:1014E000C1E912732EE0714B1B78022B2AD1714B8C
:1014F0001A7993069B0A0B616E4B9B681A0E0B6957
:1015000043EA02230B616B4B9B68C3F307420B69F1
:1015100013430B61674B1B89C3F307220B695B1CE9
:101520004FF40074A3FB04464FF480630025A4FB32
:10153000037C06FB03C304FB0533C1E912734FF4BC
:1015400000730B65C2F3801301F8193F93065B0E1D
:101550004B70584B1A7A4B7843EAD2134B7002F017
:101560007F038B70534BDB681A0ED309CB70C2F329
:1015700041130B71C2F382034B7193071B0F8B71E5
:101580004C4BDB68C3F307428B7943EA92138B71B0
:10159000C2F34013CB7100230B7202F001034B72B4
:1015A000444B9B89C3F30722D3098B72C2F3801388
:1015B000CB72C2F340130B73C2F300134B73C2F32D
:1015C00081038B7302F00303CB733A4B1A7B5308EE
:1015D0000B7401234B74384B1B681A0ECA741939EB
:1015E000354B1B68C3F307421402CC85324B1B8872
:1015F000C3F30722CB8D1343CB852F4B1A781406E8
:101600000C635B681A0E0B6B43EA02440C632A4BB3
:101610005B68C3F307420B6B43EA02240C63264B5F
:101620009B88C3F307220B6B13430B63224B1A797E
:1016300034235A54204B9B681A0E35235A541E4BA0
:101640009B68C3F3074214068C631B4B1B89C3F3CF
:1016500007228B6B43EA02448C63174B1A7A8B6B1D
:1016600043EA02248C63144BDB681A0E8B6B134322
:101670008B63114BDB68C3F307423C235B5C43EA9B
:1016800012143C235C5413071C0DCC870A4B9B8916
:10169000C3F30722CB8F1343CB87074B1A7B540826
:1016A00040235C54012441235C54F0BD840000209D
:1016B00088000020C4AA0120D4AA01203EB500243D
:1016C000002501214448FFF75FFC0121C802FFF714
:1016D0007BFC0121C802FFF787FC4FF4F850019012
:1016E00002208DF808008DF8090000208DF80A000E
:1016F00001208DF80B0001A93848FFF7F7F9042005
:10170000019001A93648FFF7F1F90C22082133486E
:10171000FFF734FA0C2209213048FFF72FFA0C2288
:101720000A212E48FFF72AFA0C220B212B48FFF73B
:1017300025FA0C2211462948FFF720FA0C22022133
:101740002748FFF71BFA00214FF40060FFF74CFC1D
:10175000FFF77EFD31208DF8000000208DF801009C
:101760008DF8020001208DF803006846FFF7E2FAC9
:1017700000F0EEF8044614B900F038F804461CB93D
:101780001848FFF711FE044634B91649B1F8541051
:10179000080400F077FD044624B94FF40060FFF719
:1017A000CFFD04461CB110480078032812D10D4823
:1017B00090F8560020B10B4890F85600012801D14E
:1017C000022500E000252846FFF7EEFC002000F08F
:1017D00071FD044620463EBD0C004000000802405A
:1017E000000C0240E8AA01208400002038B5002443
:1017F00001200090FFF708FD10B92524204638BDD0
:101800004D480078042824D000204C49086002206C
:101810004860C02088600020C8604FF48060086184
:101820000846FFF731FDFEF789FE04460CB120465D
:10183000E5E743480068434908604148001D0068E7
:1018400048603F480830006888603D480C300068B8
:10185000C8603948007858B137480078012807D067
:1018600035480078062803D033480078022816D17E
:101870000020324908600320486040208860002032
:10188000C8604FF4806008610846FFF7FDFC6946B8
:101890000320FEF799FE04460CB12046AFE7264828
:1018A0000078032816D1BDF8000000042349086021
:1018B00003204860402088600020C8604FF48060AA
:1018C00008610846FFF7E0FCFEF738FE04460CB15D
:1018D000204694E71848007804282AD0BDF8000074
:1018E00019490860BDF80000000414490860092087
:1018F0004860C02088600020C8604FF480600861A4
:101900000846FFF7C1FCFEF719FE04460CB120465D
:1019100075E70B4800680D4908600948001D00681C
:101920004860074808300068886005480C30006847
:10193000C860002063E700008400002098AA01200E
:10194000142C0140D4AA012088000020C4AA012040
:101950002DE9F0470027002400260025A046A146D7
:1019600076206E4908750020086048608860C8606D
:1019700008610846FFF754FC0320FFF79BFC68480A
:10198000006840F480706649086000BF12E00020E3
:101990006449086048608860C8604FF480600861EE
:1019A0000846FFF771FCFEF77FFD044604B903E02B
:1019B000781CC7B24A2FEADB00BF14B12046BDE84D
:1019C000F0874FF4D57057490860082048604020E0
:1019D00088600020C8604FF4806008610846FFF707
:1019E00053FCFEF73BFE044624B901204E49087023
:1019F0004FF0804900204B49086037204860402064
:101A000088600020C8604FF4806008610846FFF7D6
:101A10003BFC3720FEF760FD0446002C4CD135E03E
:101A2000002040490860372048604020886000203E
:101A3000C8604FF4806008610846FFF725FC372036
:101A4000FEF74AFD04460CB12046B8E7374849EA9C
:101A50000000344908602920486040208860002048
:101A6000C8604FF4806008610846FFF70DFCFEF780
:101A70008FFD04460CB12046A1E7294810300668C6
:101A8000012080EAD67080F001086D1CB8F1000FCB
:101A900003D14FF6FF708542C2D34FF6FF708542E7
:101AA00002D31B2420468AE706F08040060033D08C
:101AB00002201D4908702FE01DE01D4819490860EB
:101AC00001204860402088600020C8604FF480609A
:101AD00008610846FFF7D8FBFEF75AFD04460CB133
:101AE00020466CE70E4810300668012080EAD67068
:101AF00080F001086D1CB8F1000F03D14FF6FF70A4
:101B00008542DAD34FF6FF70854202D31B2420466C
:101B100055E7032004490870204650E780AA0120B9
:101B2000042C014098AA01208400002000001080AD
:101B30000080FF8010B54FF48070FFF759FB78B339
:101B40004C480078012814D100204B4908600C2033
:101B50004860402088600020C8604FF480600861C1
:101B60000846FFF791FB0C20FEF7B6FC43490870CE
:101B700002E00020414908704148006840F480704C
:101B80003F490860081D00684CF23A3188433C49DF
:101B9000091D086001203B4908703848007810BDD5
:101BA000FFE70220FFF724FB78B10220FFF7F6FAE7
:101BB0003348001D00684CF23A3188433049091D12
:101BC000086002202D490870E9E70820FFF710FBA4
:101BD00078B10820FFF7E2FA2948001D00684CF2AE
:101BE0003A3188432649091D0860042023490870BA
:101BF000D5E72020FFF7FCFA78B12020FFF7CEFAD6
:101C00001F48001D00684CF23A3188431C49091DE9
:101C10000860062019490870C1E71020FFF7E8FAAC
:101C200078B11020FFF7BAFA1548001D00684CF291
:101C30003A3188431249091D086005200F49087090
:101C4000ADE74FF40070FFF7D3FA80B14FF40070A6
:101C5000FFF7A4FA0A48001D00684CF23A318843A5
:101C60000749091D086007200449087097E700200C
:101C700095E700008D00002098AA01208E0000202A
:101C8000382C01408F0000202DE9F84F814617467F
:101C900098460A9C4FF0000AD3464D464FF0FF3657
:101CA000B9F1000F02D12620BDE8F88F0020864947
:101CB000086086480078022805D10402780A40EAC4
:101CC000C8574FEA68280020814988604860401E54
:101CD0000860012048610020C86008610846FFF7DD
:101CE0006DFA79481838006800F0007008B10E20CD
:101CF000DAE7002C21DDB4F5006F1EDC601E204009
:101D0000D8B9204601F068FD0090724804601020A8
:101D100070494860402088600020C8604FF48060AF
:101D200008610846FFF7B0FA1020FEF7D5FB82469F
:101D3000BAF1000F03D05046B6E72620B4E700986A
:101D4000000163498860084644604FF0FF30086036
:101D5000012048610220C860002008610846FFF7A2
:101D60002DFA5C48076011205A494860402088607D
:101D70000020C8604FF4806008610846FFF784FACD
:101D80001120FEF7A9FB8246BAF1000F01D05046A0
:101D90008AE75148007800285CD1FEF7FFF918E087
:101DA0004FF40040FFF724FA78B14FF0000B06E043
:101DB00045485430006845F82B000BF1010BBBF18E
:101DC000080FF5D32035454E03E00EB904206BE72C
:101DD000761E3D480830006840F22A61084000281D
:101DE000DED00820FFF704FA20B10820FFF7D6F96B
:101DF000042059E70220FFF7FBF920B10220FFF78A
:101E0000CDF9022050E72020FFF7F2F920B1202081
:101E1000FFF7C4F9062047E74FF40070FFF7E8F931
:101E200028B14FF40070FFF7B9F907203CE704E050
:101E300025485430006828602D1D4FF40010FFF72E
:101E4000D7F90028F4D1FEF7ABF940F2FF50FFF7C5
:101E5000A5F936E020480078012832D10020204939
:101E60000870204908702049087017481030006831
:101E700040F22A31084314491031086012480068C2
:101E800040F0080010490860002221464846FFF74C
:101E900017FA00E0761E1548006800F0006038B9B7
:101EA0001148007820B90E48007808B9002EF1D109
:101EB0000EB90420F8E60A48007810B1084890F8F6
:101EC00000A05046F0E600002C2C014084000020C9
:101ED000ACAA012098AA01208C000020FFFF7F00FF
:101EE0008E0000208D0000208F0000200064024042
:101EF0002DE9FE4F83460E469146002002900025B4
:101F000034462148007818B1680240EAD45564028A
:101F10000BF00300F0B14FF0000A18E04FF400702E
:101F200000904FEA4A20071945EBE0733A461748FC
:101F3000FFF7AAFE02904FF4007214495846FEF7CC
:101F400070F90BF5007B0AF1010000F0FF0ACA45A9
:101F5000E4DB16E0B9F1010F09D14FF4007022461D
:101F60002B4600905846FFF78FFE029009E04FF491
:101F7000007022462B46CDE90009584600F008F8CB
:101F800002900298BDE8FE8F8400002040AB012043
:101F90002DE9FF5F17469846DDE90E464FF0000930
:101FA000CA464FF0FF35AC49009808600020AB49A5
:101FB0000860AB480078022805D10402780A40EA9C
:101FC000C8574FEA68280020A64988604860401E2C
:101FD0000860012048610020C86008610846FFF7DA
:101FE000EDF89E481838006800F0007018B10E2017
:101FF00004B0BDE8F09F002C21DDB4F5006F1EDCBD
:10200000601E2040D8B9204601F0E6FB8346964882
:102010000460102094494860402088600020C86017
:102020004FF4806008610846FFF72EF91020FEF794
:1020300053FA8146B9F1000F03D04846D8E726206D
:10204000D6E7012E71D906FB04F0B0F1007F01D371
:102050002620CDE74FEA0B108249886006FB04F08A
:1020600048604FF0FF300860012048610220C860DE
:10207000002008610846FFF7A1F87B48076012209E
:1020800079494860402088600020C8604FF4806033
:1020900008610846FFF7F8F81220FEF71DFA81469E
:1020A000B9F1000F01D04846A2E770480078002837
:1020B0007ED1FEF773F81EE04FF40040FFF798F86A
:1020C000A8B14FF0000A08E0644854300068624943
:1020D000096841F82A000AF1010ABAF1080FF3D39E
:1020E0005D48006820305C490860614D03E00DB92F
:1020F00004207DE76D1E59480830006840F22A31FF
:1021000008400028D8D00820FFF772F820B1082036
:10211000FFF744F804206BE70220FFF769F828B1C5
:102120000220FFF73BF8022062E792E02020FFF751
:102130005FF820B12020FFF731F8062058E74FF470
:102140000070FFF755F828B14FF40070FFF726F83C
:1021500007204DE70AE04148543000683E490968CD
:1021600008603D480068001D3B4908604FF40010BE
:10217000FFF73EF80028EED14FF48070FFF738F8F3
:1021800020B33748007838B135480078012803D0AB
:1021900033480078022819D10020334908600C2008
:1021A0004860402088600020C8604FF4806000E0F4
:1021B00013E008610846FFF767F80C20FEF78CF97A
:1021C0008146B9F1000F01D0484611E7FDF7E8FF5D
:1021D00040F2FF50FEF7E2FF3BE024480078012880
:1021E00037D10020234908700120234908700020BE
:1021F0002249087019481030006840F22A3108431B
:102200001649103108601548006840F0080013496D
:10221000086006FB04F100220098FFF751F800E087
:102220006D1E1748006800F0006008B9002DF7D156
:102230000DB90420DCE600BF1048007818B90D483D
:1022400000780028F8D00B48007810B1094890F8C1
:1022500000904846CCE60000900000202C2C014065
:1022600084000020ACAA012098AA01208C00002044
:10227000FFFF7F008E0000208D0000208F000020D7
:102280000064024010B5044609480460072008496C
:102290004860402088600020C8604FF4806008617A
:1022A0000846FEF7F1FF0720FEF716F910BD000003
:1022B00098AA012001460020012900D011B9024B43
:1022C000197000E0262070478C0000202DE9FF5F88
:1022D00086B017469846149D00260020059004906D
:1022E000002481460390824602900195DDF818B0E3
:1022F000DDF818B0BBF1000F03D126200AB0BDE80D
:10230000F09F0020C9490860C94988604860401EA4
:102310000860012048610020C86008610846FEF797
:102320004DFFC2481838006800F0007008B10E2058
:10233000E4E7C0480078022805D10502780A40EA9F
:10234000C8574FEA6828002D1FDDB5F5006F1CDC6B
:10235000681E2840C8B9284601F03EFA0590B648E4
:1023600005601020B4494860402088600020C860A3
:102370004FF4806008610846FEF786FF1020FEF7E4
:10238000ABF806461EB13046B8E72620B6E7AB48A4
:1023900000880004A84908600D204860402088603B
:1023A0000020C8604FF4806008610846FEF76CFFAB
:1023B0000D20FEF791F806460EB130469EE79B4889
:1023C0001838006803904FF0FF341CE0641E9B48EF
:1023D00000880004984908600D204860402088600B
:1023E0000020C8604FF4806008610846FEF74CFF8B
:1023F0000D20FEF771F806460EB130467EE78B4899
:10240000183800680390039800F4807008B9002C15
:10241000DCD10CB9292071E787480760182086496C
:102420004860402088600020C8604FF480600861E8
:102430000846FEF729FF1820FEF74EF806460EB1B3
:1024400030465BE700207E49087005980001784916
:102450008860084645604FF0FF3008600120486101
:102460000020C86008610846FEF7A8FE4FF0FF3460
:102470007448007800287ED1FDF790FE45E04FF4C7
:102480008040FEF7B5FED8B30198A0EB09002028E4
:1024900022D20198A0EB090000F0030020B90198B6
:1024A000A0EB0900800804E00198A0EB0900800877
:1024B000401C02904FF0000A0AE05C495431DBF8FE
:1024C000000008600AF1010A0BF1040B09F104098C
:1024D00002988245F1D310E04FF0000A06E05BF865
:1024E0002A005249543108600AF1010ABAF1080F72
:1024F000F5D30BF1200B09F120096FF0404404E003
:10250000FFE70CB90420F9E6641E4848083000686B
:1025100040F21A6108400028B1D00820FEF768FE9A
:1025200020B10820FEF73AFE0420E7E60220FEF77D
:102530005FFE20B10220FEF731FE0220DEE6102011
:10254000FEF756FE20B11020FEF728FE0520D5E646
:102550004FF40070FEF74CFE30B14FF40070FEF700
:102560001DFE0720CAE606E0FDF71AFE40F2FF5006
:10257000FEF714FE41E03348007801283DD10020E9
:10258000314908702E4908703049087027481030CA
:10259000006840F21A310843244910310860402293
:1025A00029460698FEF78CFE2048006840F0080097
:1025B0001E49086000E0641E2548006800F00060C5
:1025C00008B9002CF7D11CB9FFF778F8042095E67C
:1025D0004FF0FF3400E0641E1C48007820B91A4810
:1025E000007808B9002CF6D10CB9042086E616480C
:1025F000007810B11448007880E640F2FF50FEF7F2
:10260000CDFD04A8FEF706FB064603E004A8FEF78E
:1026100001FB06463EB99DF810000728F6D09DF84C
:1026200010000628F2D0304668E600002C2C01404D
:10263000ACAA01208400002098AA01208800002074
:102640008D0000208C0000208E0000208F000020D4
:10265000006402402DE9FE4F06468946924600205E
:10266000029000254C462148007818B1680240EAE3
:10267000D455640206F00300F0B14FF0000B18E0EF
:102680004FF4007231461A48FDF7CBFD4FF400704D
:1026900000904FEA4B20071945EBE0733A46144887
:1026A000FFF714FE029006F500760BF1010000F032
:1026B000FF0BD345E4DB16E0BAF1010F09D14FF46B
:1026C000007022462B4600903046FFF7FFFD029037
:1026D00009E04FF4007022462B46CDE9000A30464F
:1026E00000F008F802900298BDE8FE8F84000020F8
:1026F00040AB01202DE9FF5F84B0DDE912470026E1
:10270000002003900290002580468146019007FB3F
:1027100004FBDDF810A0DDF810A0BAF1000F03D122
:10272000262008B0BDE8F09F0020DC490860DC49A5
:1027300088604860401E0860012048610020C86031
:1027400008610846FEF73AFDD4481838006800F0E2
:10275000007008B10E20E4E7D2480078022808D1C2
:102760000402DDE90601400A40EAC1504912CDE900
:102770000601002C1FDDB4F5006F1CDC601E20403C
:10278000C8B9204601F028F80390C748046010201B
:10279000C5494860402088600020C8604FF48060D0
:1027A00008610846FEF770FD1020FDF795FE06460D
:1027B0001EB13046B5E72620B3E7012F6FD907FBDE
:1027C00004F0B0F1007F01D32620AAE7B5480078D5
:1027D00038B1B4480078012803D0B2480078022804
:1027E0002DD1B24800880004AF4908603720486006
:1027F000402088600020C8604FF48060086108466F
:10280000FEF742FD3720FDF767FE06460EB1304663
:1028100087E7A54807601720A349486040208860E3
:102820000020C8604FF4806008610846FEF72CFD68
:102830001720FDF751FE06460EB1304671E79A4962
:102840000698086019204860402088600020C86011
:102850004FF4806008610846FEF716FD1920FDF769
:102860003BFE06460EB130465BE7039800018C49FB
:10287000886007FB04F048604FF0FF3008600120DB
:1028800048610020C86008610846FEF797FC884848
:102890000078002874D1451EFDF780FC42E0E4E09A
:1028A0004FF48040FEF7A4FCB8B3ABEB080020283F
:1028B0001FD2ABEB080000F0030018B9ABEB080027
:1028C000800803E0ABEB08008008401C01904FF04B
:1028D00000090AE071495431DAF80000086009F192
:1028E00001090AF1040A08F1040801988145F1D3AD
:1028F00010E04FF0000906E05AF82900674954310A
:10290000086009F10109B9F1080FF5D30AF1200AAD
:1029100008F120086FF0404504E0FFE70DB90420FE
:10292000FFE66D1E5D480830006840F21A3108402D
:102930000028B5D00820FEF75BFC20B10820FEF788
:102940002DFC0420EDE60220FEF752FC20B102200F
:10295000FEF724FC0220E4E61020FEF749FC20B13B
:102960001020FEF71BFC0520DBE64FF40070FEF79D
:102970003FFC30B14FF40070FEF710FC0720D0E6AA
:102980002CE04FF48070FEF733FC00B3454800782C
:1029900038B144480078012803D042480078022822
:1029A00015D10020404908600C2048604020886014
:1029B0000020C8604FF4806008610846FEF764FCA0
:1029C0000C20FDF789FD06460EB13046A9E6FDF75D
:1029D000E7FB40F2FF50FEF7E1FB46E034480078A9
:1029E000012842D100203349087001203249087083
:1029F00000203249087029481030006840F21A312E
:102A0000084326491031086007FB04F1402204986E
:102A1000FEF756FC2148006840F008001F49086096
:102A20004FF0FF3500E06D1E2548006800F00060A3
:102A300008B9002DF7D11DB9FEF740FE042070E65D
:102A40004FF0FF3500E06D1E1C48007820B9194892
:102A5000007808B9002DF6D10DB9042061E61548BB
:102A6000007810B1134800785BE640F2FF50FEF7A3
:102A700095FB02A8FEF7CEF8064603E002A8FEF793
:102A8000C9F806463EB99DF808000728F6D09DF81B
:102A900008000628F2D0304643E600002C2C014006
:102AA000ACAA01208400002098AA01208800002000
:102AB0008C0000208E0000208D0000208F00002060
:102AC0000064024021B1028842F04002028004E02A
:102AD00002884FF6BF731A400280704702460020FA
:102AE00013890B400BB1012000E000207047014624
:102AF000888970478181704710B50022028802F4EE
:102B000041520B884C8823438C882343CC88234331
:102B10000C8923434C8923438C892343CC89234349
:102B20001A430280838B4FF2FF74234083830B8A06
:102B3000038210BD1FB54FF480614048FEF74CF88A
:102B4000022001F02FF802213C48FEF745F84FF42F
:102B500080713A48FEF740F8012001F023F8022185
:102B60003648FEF737F84FF480713448FEF732F8F4
:102B7000012001F017F802213048FEF72DF84FF43C
:102B800080712E48FEF728F8012001F00BF804218F
:102B90002A48FEF716F808B1012000E0002004469C
:102BA0000BE0012000F0FEFF04212448FEF709F8A5
:102BB00008B1012000E000200446002CF1D14FF4C0
:102BC00080611E48FEF706F84AF6AA2000F090F849
:102BD000ADF800004AF6AA2000F08AF8ADF802002D
:102BE0004AF6AA2000F084F8ADF804004AF6AA20BC
:102BF00000F07EF8ADF806004AF6AA2000F078F85A
:102C0000ADF808004AF6AA2000F072F8ADF80A0004
:102C10004AF6AA2000F06CF8ADF80C004AF6AA209B
:102C200000F066F8ADF80E004FF480610348FDF740
:102C3000D3FFBDF8000004B010BD00000004024046
:102C400000B587B001210220FEF79EF9012188031B
:102C5000FEF7AAF902208DF8040000208DF8060086
:102C60004FF46040009001208DF8070002208DF89D
:102C7000050069461C48FDF739FF05220D211A4859
:102C8000FDF77CFF05220E211748FDF777FF05228F
:102C90000F211548FDF772FF0020ADF808004FF432
:102CA0008270ADF80A004FF40060ADF80C0002200D
:102CB000ADF80E000120ADF810004002ADF8120092
:102CC0002820ADF814000020ADF816000720ADF85C
:102CD000180002A90548FFF70FFF01210348FFF77D
:102CE000F1FE07B000BD00000004024000380040C3
:102CF00070B50546002405E0601CC4B2C82C01DD97
:102D0000002070BD02210D48FFF7E8FE0028F3D037
:102D100029460A48FFF7EEFE002405E0601CC4B215
:102D2000C82C01DD0020ECE701210448FFF7D6FEA6
:102D30000028F3D00148FFF7DAFEE2E70038004050
:102D4000704700000CB500200190009034480068E6
:102D500040F480303249086000BF3148006800F418
:102D6000003000900198401C0190009818B901981B
:102D7000B0F5A06FF1D12A48006800F4003010B11E
:102D80000120009001E0002000900098012846D129
:102D900023484030006840F08050214940310860AD
:102DA0002048006840F480401E4908601C480830F4
:102DB00000681B49083108600846006840F400407C
:102DC00008600846006840F4A05008601648091FD3
:102DD0000860081F006840F08070091F086000BF8D
:102DE0000F48006800F000700028F9D040F205603C
:102DF0000E4908600A480830006820F003000849BE
:102E0000083108600846006840F00200086000BF12
:102E100003480830006800F00C000828F8D10CBD09
:102E2000003802400070004019544007003C024046
:102E3000042808D14FF0E021096941F004014FF066
:102E4000E022116107E04FF0E021096921F004015F
:102E50004FF0E022116170477047000010B515482F
:102E6000006840F47000134908601348006840F09F
:102E700001001149086000200F49083108600E4820
:102E800000680E4908400C4908600D48091D08609B
:102E9000081F006820F48020091F086000200649F0
:102EA0000C310860FFF74EFF4FF000600149803998
:102EB000086010BD88ED00E000380240FFFFF6FE1C
:102EC0001030002410B50121194800F09AF80128AB
:102ED00029D101211748FDF774FEE8B9164800888A
:102EE000401C15490880084600880A2810DB134852
:102EF000007848B901201249087000200E49088066
:102F000001200E4908700EE000200B4908800AE0FD
:102F100000200B49087006E0002007490880084996
:102F20000870064908700121014800F05BF810BDE7
:102F300000040040001002400000002002000020B9
:102F40000300002010B5002401211D4800F059F8AD
:102F500001282FD11B48007860B31B480088401C13
:102F600019490880FFF7E6FD1849088000BF04E012
:102F7000002017490855601CC4B2322CF8D31348FE
:102F8000028814A1124800F093FA134B3222104920
:102F90001248006801F09CFA114908600A4800884C
:102FA000B0F5FA6F06DD0D48006801F039FA00202F
:102FB000054908800121024800F014F810BD000006
:102FC00000080040420000204C0000204400002087
:102FD0002801002025640A001400002008000020B9
:102FE0001C000020CA430282704721B1028842F0CF
:102FF0000102028004E002884FF6FE731A4002804C
:10300000704730B50246002000230024158A05EAE7
:103010000103958905EA010413B10CB1012000E018
:10302000002030BD1AB183890B43838102E083897C
:103030008B4383817047000000220288184B98421E
:103040000ED0184B98420BD0B0F1804F08D0164BE1
:10305000984205D0154B984202D0154B984204D1A6
:103060004FF68F731A404B881A43124B984207D081
:10307000114B984204D04FF6FF431A400B891A4374
:1030800002804B68C3620B880385054B984202D0CF
:10309000044B984201D18B7A0386012383827047C7
:1030A000000001400004014000040040000800400E
:1030B000000C004000100040001400407FB50546A1
:1030C0000C4601210220FDF76FFF0295ADF8044088
:1030D0000020ADF80600ADF80C0001A90D48FFF77F
:1030E000ABFF012211460B48FFF79CFF1D208DF816
:1030F000000000208DF8010001208DF802008DF8FD
:1031000003006846FDF716FE01210248FFF76DFF38
:103110007FBD0000000400407FB505460C4601213C
:103120000420FDF741FF0295ADF804400020ADF802
:103130000600ADF80C0001A90D48FFF77DFF012244
:1031400011460B48FFF76EFF1E208DF8000001208E
:103150008DF8010000208DF8020001208DF8030099
:103160006846FDF7E7FD01210148FFF73EFF7FBDFF
:103170000008004010B540F22551364800F0A7F88D
:10318000012865D1334800F05BF9334908703348B2
:103190000078062853D2DFE800F003101C283044E2
:1031A0002D480078FA2807D101202C49087000200A
:1031B0002B4908702B49087042E027480078FF2807
:1031C00003D102202549087002E00020234908703D
:1031D00036E021480078322803D103201F490870C7
:1031E00002E000201D4908702AE01B4800781E49B3
:1031F000087004201949087022E01748017818481F
:1032000002780078401C164B1870184881541648F4
:10321000007819460978884202D105200F490870C4
:103220000EE00D480078104981F8200000200B497D
:1032300008700B49087001200A49087000E000BFBF
:1032400000BF00BF4021034800F034F80028F9D047
:1032500010BD000000100140040000200500002007
:103260000600002007000020000100209C00002034
:1032700010B502460020108A20F470600B884C883C
:1032800023438C882343CC8823431843108210BDEA
:103290000021018041808180C180704721B18289F5
:1032A00042F40052828104E082894DF6FF731A4095
:1032B0008281704702460020B1F5007F00D100BF37
:1032C00013880B400BB1012000E00020704770B55F
:1032D0000246002400230025002040F66A16B14271
:1032E00000D100BFC1F3421501F01F03012606FA09
:1032F00003F3012D02D19689334006E0022D02D15D
:10330000168A334001E0968A33400C12012606FAF1
:1033100004F41688344013B10CB1012000E0002001
:1033200070BDF0B50346002400260025002040F6BD
:103330006A17B94200D100BF1846C1F3421401F028
:103340001F06012707FA06F5012C01D10C3004E015
:10335000022C01D1103000E014301AB107682F435D
:10336000076002E00768AF430760F0BD2DE9FF4743
:1033700005460E460024A14600BFA046B08900B114
:1033800000BF2C8A24F44054F08804432C82AC897A
:1033900041F20C608443B088318908437189084345
:1033A0000443AC81AC8A24F44074B0890443AC82F9
:1033B0006846FDF729FE2048854202D01F48854215
:1033C00002D1DDF80C9001E0DDF80890A88900F446
:1033D000004040B109EBC90000EB09103168490019
:1033E000B0FBF1F707E009EBC90000EB0910316809
:1033F0008900B0FBF1F76420B7FBF0F0040120096D
:10340000642101FB1078A88900F4004040B132200B
:1034100000EBC800B0FBF1F000F00700044308E047
:10342000322000EB08106421B0FBF1F000F00F0037
:1034300004432C81BDE8FF870010014000140140C7
:1034400001468888C0F308007047C1F308028280F3
:1034500070474FF41651016000218180C1800181C5
:103460000C214181002181817047000002A000F001
:103470000FF800BFFEE700000A0D20557361676575
:103480004661756C745F48616E646C657220000003
:103490000FB4054B10B503A9044A029800F02CF8AC
:1034A00010BC5DF814FB0000254C000898000020BB
:1034B0000FB4084B10B504A902AA039800F01CF839
:1034C000044602A9002000F0C1F8204610BC5DF8B7
:1034D00014FB00004D36000802E008C8121F08C1A6
:1034E000002AFAD170477047002001E001C1121F85
:1034F000002AFBD1704700002DE9FF4F89B09B46A1
:103500000446002506E025280BD05A460B99904723
:10351000641C6D1C20780028F5D10DB02846BDE84C
:10352000F08F0027B8460122474900E0074314F80E
:10353000013F203B02FA03F00842F7D120782E2801
:1035400019D114F8010F47F004072A280ED06FF0A4
:103550002F022078A0F1300109290CD808EB88014E
:1035600002EB410100EB0108641CF2E70A98641CBD
:1035700050F8048B0A9020780028CED0642808D018
:10358000692806D075281ED05A460B9990476D1CA5
:1035900058E00A994FF00A0901C90A91002802DA95
:1035A00040422D2102E0390504D52B218DF8201051
:1035B000012103E0F90704D02021F7E78A4608AE8D
:1035C0000DE00021FAE70A994FF00A0901C90A91B2
:1035D000F7E74946FCF737FE303106F8011D0028B1
:1035E000F7D1ADEB060000F12009780701D44FF0C8
:1035F0000108C84502DDA8EB090000E00020804674
:10360000002706E008A85A46C05D0B9990476D1C3C
:103610007F1C5745F6DB04E030205A460B99904753
:103620006D1CB8F10001A8F10108F5DC05E016F801
:10363000010B5A460B9990476D1CB9F10001A9F195
:103640000109F4DC641C65E7092801000A68531CC1
:103650000B6010707047000070B504460D460020E6
:103660002071401EE0622946204601F007FD08B1A6
:10367000032070BD94F82E1294F82F0241EA002026
:103680004AF65521884201D00220F2E794F86900F9
:10369000010694F8680041EA004194F8670041EAA5
:1036A000002094F86610084320F07F400D498842BE
:1036B00001D10020DDE794F88500010694F884002C
:1036C00041EA004194F8830041EA002094F8821016
:1036D000084320F07F400349884201D10020C8E719
:1036E0000120C6E746415400024600E0521C107813
:1036F00010B110788842F9D11078704770B5034640
:103700000D46586A021D680A1E68B678B0FBF6F4CA
:1037100000BF02CA09B9002070BD8C4200D202E08D
:10372000641A121DF5E700BF10682044F4E7024652
:10373000891E5069801E884201D800207047937806
:10374000906A01FB0300F9E72DE9F04705460C46B6
:10375000207820F04000401E00EB800101EBC00605
:1037600000274FF0010800BF1A48C05D205C1949CE
:10377000C95D2144497840EA0129B8F1000F10D011
:10378000484600F0E7FF8046FF2E07D23146761C00
:1037900035F8110000F0DEFF404508D00020BDE8FC
:1037A000F0874FF6FF70814501D00020F7E7781CC5
:1037B00007460D28D8D3207800F0400038B1B8F182
:1037C000000F04D035F8160008B10020E7E701200B
:1037D000E5E70000C45500080146002002E049105A
:1037E000421CD0B20129FAD170472DE9F0470446B6
:1037F0008946B9F1000F06D1E76817B16069B84290
:1038000015D8012713E04946204601F081FA064603
:10381000022E02D20120BDE8F087701C08B93046A4
:10382000F9E76069B04201D93046F4E74F463D46BA
:1038300000BF6D1C6069A84204D80225BD4201D9B1
:103840000020E8E72946204601F062FA064606B95C
:1038500009E0701C08B1012E01D13046DBE7BD4202
:10386000E7D10020D7E700BF6FF07042294620461D
:1038700001F01AFD8046B8F1000F08D1B9F1000F30
:1038800005D02A464946204601F00EFD8046B8F193
:10389000000F0BD1E5602069401C78B12069401E03
:1038A0002061607940F00100607107E0B8F1010F1C
:1038B00002D14FF0FF3000E0012005462846AAE77C
:1038C0002DE9F34F83B0814604980068019002E02F
:1038D0000198401C0190019800782F28F8D0019899
:1038E00000785C28F4D0D9F81CA000252F4600BF32
:1038F00038467F1C01990C5C202C03DB2F2C01D057
:103900005C2C00D132E0FF2D03D3062005B0BDE8CA
:10391000F08FE4B2812C13DBE0B2FE2810DC3846D5
:103920007F1C01990E5C402E01DB7E2E05DD802E72
:1039300001DBFE2E01DD0620E8E706EB042084B261
:103940000121204600F0BAFE04460CB90620DDE74E
:10395000802C06DA214671A0FFF7C6FE08B10620CA
:10396000D4E728466D1C2AF81040C1E700BF019833
:10397000C11904980160202C01DA042000E0002025
:10398000804608E0681E3AF81040202C02D02E2C09
:1039900000D002E06D1E002DF4D100BF0DB906204D
:1039A000B4E700202AF815000B222021D9F81800CE
:1039B00001F05AFB002700E07F1C3AF8170020288E
:1039C000FAD03AF817002E28F6D00FB148F00308C5
:1039D00000E06D1E25B1681E3AF810002E28F8D1BF
:1039E0000020064602904FF0080B00BF38467F1CAF
:1039F0003AF8104004B963E0202C03D02E2C04D1F7
:103A0000AF4202D048F00308F0E70298584501D2CF
:103A1000AF4214D1BBF10B0F02D148F003084FE0C5
:103A2000AF4201D048F00308AF4200D948E02F462A
:103A3000082002904FF00B0BB006060ED6E7802C44
:103A400009DB204600F086FE0021009000F036FEE3
:103A5000044648F00208FF2C11DDABF10100029989
:103A6000884204D848F00308CDF808B0BEE7221217
:103A7000D9F818300298411C02911A5419E024B167
:103A8000214629A0FFF730FE18B15F2448F0030853
:103A90000FE0412C04DB5A2C02DC46F0020608E061
:103AA000612C06DB7A2C04DC46F00106A4F1200030
:103AB00084B2D9F818300298411C02911C5495E741
:103AC00000BFD9F818000078E52803D10520D9F8FF
:103AD00018100870BBF1080F01D1B006060E06F0F1
:103AE0000C000C2803D006F00300032801D148F095
:103AF000020808F0020058B906F00300012801D1BD
:103B000048F0100806F00C00042801D148F008081D
:103B1000D9F8180080F80B800020F7E6222A3A3CFA
:103B20003E3F7C7F000000002B2C3B3D5B5D000096
:103B300010B504466FF00400FFF77AF9E11704EBC3
:103B40005171C1F3C701074A11701046007800EBAC
:103B50004001C1EBC0104FF6FF7101EAC0000249FD
:103B6000088010BD940000209600002070B5044627
:103B70004FF4077094FBF0F0C6B24FF4077094FB5B
:103B8000F0F100FB114085B205E04FF4077000F042
:103B90002FF8701EC6B2002EF7D115B1284600F0DE
:103BA00027F870BD0146114A12784A434FF0E023CE
:103BB0005A6100229A611A46126942F001021A61A2
:103BC00000BF4FF0E022106900F001021AB100F4CA
:103BD0008032002AF5D04FF0E022126922F0010273
:103BE0004FF0E0231A6100229A6170479400002090
:103BF0000146114A12884A434FF0E0235A610022DD
:103C00009A611A46126942F001021A6100BF4FF030
:103C1000E022106900F001021AB100F48032002A9B
:103C2000F5D04FF0E022126922F001024FF0E023BC
:103C30001A6100229A617047960000202DE9F04138
:103C400004460E460021204600F0B8F90546EDB9BD
:103C5000002700BF2169206801F010FA054605B170
:103C600013E060690078E52802D06069007820B927
:103C7000781C0746B04201D107E000270121204609
:103C800000F07FF80546002DE4D000BF042D00D1E0
:103C900007252846BDE8F0812DE9F04704460021BC
:103CA000204600F08BF9074617B13846BDE8F0878B
:103CB0004FF0FF09CA464FF6FF70208400BF21690C
:103CC000206801F0DBF9074607B157E065692E78F7
:103CD0000EB9042752E0E87A00F03F08E52E05D03F
:103CE00008F0080040B1B8F10F0F05D04FF0FF0900
:103CF0004FF6FF7020843AE0B8F10F0F1CD1E06955
:103D000078B306F0400030B195F80DA026F04006DB
:103D1000B146E08820844E450AD1687B504507D1E2
:103D20002946E069FFF710FD10B1A9F1010000E09C
:103D3000FF2000F0FF091AE0B9F1000F05D1284675
:103D400001F08BFB504500D118E0A069C07A00F06B
:103D5000010038B90B222846A16901F065F908B9BC
:103D60000CE004E04FF0FF094FF6FF7020840021C3
:103D7000204600F006F80746002FA0D000BF3846C6
:103D800094E72DE9F04104468846E088461CB0B22D
:103D900008B1206910B90420BDE8F08106F00F00D9
:103DA00000286CD12069401C2061E06828B9206897
:103DB0000089B04263D80420EEE720688078401E76
:103DC00000EA161000285AD1E168206800F0A0FF30
:103DD0000546012D01D80220DEE7681C08B9012044
:103DE000DAE720684069A84243D8B8F1000F01D152
:103DF0000420D1E7E1682068FFF7F7FC05460DB91C
:103E00000720C9E7012D01D10220C5E7681C08B9C8
:103E10000120C1E7206801F094FB08B10120BBE755
:103E2000216801F130004FF40072002101F01CF90B
:103E300029462068FFF77BFC2168C86200270EE056
:103E4000012021680871206801F07BFB08B1012086
:103E5000A2E72068C06A401C2168C8627F1C2068F5
:103E60008078B842ECD82068C06AC01B2168C8625C
:103E700000BFE56029462068FFF759FC2061E68015
:103E80002068303006F00F0100EB41106061002027
:103E900082E72DE9FE4F0446D4F81880D4F81C9030
:103EA0000C224146684601F0D2F800BF9DF80B0095
:103EB00000F0010020B3002088F80B00E06101262B
:103EC0000CE033464A466946404600F0BDFE2046B7
:103ED000FFF7E2FE054605B102E0761C642EF0D342
:103EE00000BF642E02D10720BDE8FE8F042D01D053
:103EF0002846F9E79DF80B0088F80B00C4F81C90E1
:103F00009DF80B0000F0020060B1002600E0761C76
:103F100039F816000028FAD106F119000D21B0FB7E
:103F2000F1F700E0012739462046FFF787FE0546F6
:103F300045BB781E070025D0E088C11B204600F055
:103F40003DF80546F5B9A06901F087FA824600BF41
:103F50002169206801F092F8054605B111E0FAB236
:103F600053466169E06900F0D5FD012021680871C0
:103F700000212046FFF705FF054615B9781E07000A
:103F8000E6D100BFC5B92169206801F077F8054680
:103F900095B920220021606901F066F80B22D4E96E
:103FA000050101F054F8A069C07A00F018006169B9
:103FB0000873012021680871284695E72DE9F04132
:103FC00004460E46E680A568012D03D020684069AE
:103FD000A84202D80220BDE8F0812DB920680078FF
:103FE000032801D12068456A45B920680089B0429C
:103FF00001D80220EFE72068476A1EE02068807839
:104000004FEA001812E02946206800F081FE0546BC
:10401000681C08B90120DEE7022D03D3206840693F
:10402000A84201D80220D6E7A6EB08064645EAD208
:1040300029462068FFF77BFB0746E5600FB90220A1
:10404000C9E707EB161020612068303006F00F0139
:1040500000EB411060610020BDE770B5044600250B
:104060001CB9FDF72BFB054601E0012500BF00BF91
:104070000DB1012070BD0020FCE700002DE9F047E4
:1040800006468946154646BBB9F1000F09D0B9F17D
:10409000010F13D0B9F1020F05D0B9F1030F19D1F7
:1040A00006E0002418E04FF400702860002413E0BC
:1040B0000C48B0F85000288000240DE009484FF467
:1040C00000720023D0E912713846FCF77DF82860B1
:1040D000002401E0042400BF00E001242046BDE8E4
:1040E000F0870000E8AA01202DE9F04105460E46C0
:1040F00017461C464FF0000814B90420BDE8F081B3
:1041000095B9E2B239463046FDF7F2FE804607E047
:10411000FDF7D4FAE2B239463046FDF7E9FE8046B3
:10412000B8F1000FF4D102E04FF0010800BF00BF6A
:10413000B8F1000F01D10020E0E70120DEE70146E1
:10414000002070472DE9F04105460E4617461C46F3
:104150004FF0000814B90420BDE8F08195B9E2B22F
:1041600039463046FEF776FA804607E0FDF7A6FAB4
:10417000E2B239463046FEF76DFA8046B8F1000FDC
:10418000F4D102E04FF0010800BF00BFB8F1000F0A
:1041900001D10020E0E70120DEE7000010B5002497
:1041A0000EE04FF40C71002001F060F8184941F85E
:1041B0002400084650F8240000B903E0601CC4B293
:1041C000032CEEDB00BF4FF40A71002001F04EF823
:1041D000104908604FF40A71002001F047F80E49B9
:1041E00008604FF40071002001F040F80B490860AE
:1041F000032C0AD10748006838B10748006820B18D
:104200000846006808B1002010BD0120FCE700004E
:10421000B0000020080000200C0000201800002042
:1042200070B50546284600F0FBF8044644B9284618
:1042300001F0ADF904460CB900202860204670BD9D
:104240002046FCE7F7B582B016460398019001A816
:1042500000F0D6FD0546002D02DA0B2005B0F0BDBA
:104260000E4850F825400CB100202070029810B183
:104270000020029908700949029841F82500029827
:1042800008B1012E01D00020E8E7002203A902A80E
:1042900000F07CFA07463846E0E700005C010020A9
:1042A0002DE9F7478DB0054616461DB9092010B017
:1042B000BDE8F0870020286006F01F0626F0010206
:1042C0000EA904A800F062FA0746002F73D14FF43C
:1042D000007000F031FA8146B9F1000F01D11120D0
:1042E000E5E7CDF82C9001A80A9004A80E9900F0FB
:1042F00051FC0746099C0FB904B9062706F01C00BB
:10430000002851D04FB1042F03D104A8FFF7C1FDFD
:10431000074646F00806099C09E0E07A00F0110023
:1043200008B1072703E006F0040000B10827002FBA
:1043300039D106F00800002835D000F05DFD804638
:1043400084F80E804FEA1821E1734FEA1841217476
:104350004FEA186161740020E072207700216177D4
:10436000A177E1772146049800F06FFD8246002195
:10437000204601F06AF8012004990871BAF1000F93
:1043800011D00498D0F82C805146049801F027F8F9
:10439000074647B9AAF101000499C860414604984C
:1043A00000F06CFE07460FE077B9E07A00F01000ED
:1043B00010B1042708E031E006F0020020B1E07AF5
:1043C00000F0010000B1072747B906F0080008B166
:1043D00046F020060498C06AE8612C62484600F066
:1043E000B2F9DFB9AE710020E8712146049800F0FF
:1043F0002CFD2861E07F0106A07F41EA0041607F3B
:1044000041EA0020217F0843E8600020A860A861FD
:104410006862049828602868C088A880384646E703
:104420002DE9F0410446204601F0B1F80746002F7F
:104430004CD1A07900F02000002847D0A07900F0EE
:10444000400078B121684878012304F12801A2696D
:10445000FFF778FE10B10120BDE8F081A07920F0CF
:104460004000A071E169206800F008FE0746002FB7
:104470002CD1256AE87A40F02000E872207B28776A
:10448000A089010A6977E068010CA977E068010E4C
:10449000E9772846216900F0D8FF00F0ADFC064618
:1044A000AE75310AE975310C2976310E6976002036
:1044B000A8740021E974A07920F02000A0710120E7
:1044C00021680871206800F0D8FF07463846C3E726
:1044D0002DE9FF4F83B0044615469B460498019092
:1044E0000020CBF80000204601F051F8029002981D
:1044F00018B1029807B0BDE8F08FE07908B1E07913
:10450000F8E7A07900F0020008B90720F2E7A068F8
:104510002844A168884200D20025BEE02089C0F36B
:10452000080000287DD120688078401EA16800EA3C
:10453000512000F0FF0ABAF1000F26D1A06838B967
:10454000276997B900212068FFF74FF907460CE06B
:10455000606A28B12046A168FFF7D0F8074604E05A
:1045600061692068FFF741F9074607B998E0012F14
:1045700002D10220E071BDE7781C10B90120E07182
:10458000B8E76761206900B92761A07900F04000B1
:1045900078B121684878012304F12801A269FFF766
:1045A000D1FD10B10120E071A4E7A07920F0400016
:1045B000A07161692068FFF7BAF8064616B90220B3
:1045C000E07197E756444FEA5529B9F1000F2CD016
:1045D0000AEB090021688978884203D9206880782D
:1045E000A0EB0A09216848784B4632460199FFF74B
:1045F000A9FD10B10120E0717CE7A069801B48454E
:104600000ED2A069801B019A02EB40214FF4007288
:1046100004F1280000F01BFDA07920F04000A071FB
:1046200000E016E04FEA49282AE0A069B0420FD026
:10463000D4E9020188420BD221684878012332462E
:1046400004F12801FFF750FD10B10120E07151E79E
:10465000A6612089C0F30800C0F50078A84500D9FC
:10466000A8462189C1F3080204F1280150184246E6
:10467000019900F0ECFCA07940F04000A07100BF6F
:10468000019840440190A0684044A060DBF800001D
:104690004044CBF80000A5EB0805002D7FF43EAFA9
:1046A00000BFD4E90201884201D9A068E060A07986
:1046B00040F02000A07100201CE700002DE9F0412F
:1046C00002460F46802A01DA10462FE01FB1184B30
:1046D00045F2205602E0174B45F2205600251024E3
:1046E00016E0A6EB050C0CEBDC7805EB68014FEA55
:1046F000410C33F81CC0944500D10BE04FEA410C4B
:1047000033F81CC0944501DA0D4600E00E46641EE5
:10471000002CE6D100BF34B14FF0010C0CEB410C82
:1047200033F81CC001E04FF0000C6046BDE8F0819A
:10473000A8AA01082456000810B504462146002006
:1047400000F094FD10BD10B504462146002000F095
:104750007BFD10BD0246002100E0491C094830F8ED
:10476000110020B1074830F811009042F5D10548FA
:1047700030F8110018B1044830F8110070471046A5
:10478000FCE700002CFF02080C0103082DE9F74F9D
:1047900088B0002108980160099800F031FB07906B
:1047A0000798002803DA0B200BB0BDE8F08FD5493D
:1047B000079851F820400CB90C20F5E708980460E0
:1047C000207878B16078FFF7BAFC804608F00100E5
:1047D00040B90A9820B108F0040008B10A20E3E7C4
:1047E0000020E1E700202070079860706078FFF7F4
:1047F00034FC804608F0010008B10320D4E70A9891
:1048000020B108F0040008B10A20CDE7002739469E
:104810002046FEF721FF0546012D01D06DBB2CE09F
:10482000002614E004F5F77101EB0610017951B18F
:10483000C17A0A06817A42EA0142417A42EA0121BA
:10484000027A114300E000214DF82610761C042E58
:10485000E8D3002606B1761E00BF5DF8267027B1AA
:1048600039462046FEF7F8FE00E0022005461DB15D
:10487000701C06460428F0D300BF032D01D101208F
:1048800092E70DB10D208FE73B20015D94F83C00CD
:1048900041EA0020B0F5007F01D00D2084E74620DA
:1048A000015D94F8470041EA0029B9F1000F0ED1EB
:1048B00094F85700010694F8560041EA004194F834
:1048C000550041EA002094F8541040EA0109C4F868
:1048D00018904020005DE070E078012804D0E07876
:1048E000022801D00D205FE7E07809FB00F93D20A8
:1048F000005DA070A07818B1A078411E084008B1F2
:104900000D2051E74120015D94F8420041EA00206A
:104910002081207A00F00F0008B10D2044E74320E9
:10492000015D94F8440041EA002BBBF1000F0ED169
:1049300094F85300010694F8520041EA004194F8BB
:10494000510041EA002094F8501040EA010B3E204B
:10495000015D94F83F0041EA00200490049808B9F2
:104960000D2021E704984844218900EB111006909E
:104970000698834501D20D2016E70698ABEB0000A0
:10498000A178B0FBF1FABAF1000F01D10D200BE7CD
:10499000012540F6F670824500D302254FF6F670E9
:1049A000824500D303250AF102006061E7610498A3
:1049B0003844206206983844A062032D16D120891D
:1049C00008B10D20F0E694F85F00010694F85E004F
:1049D00041EA004194F85D0041EA002094F85C103F
:1049E0000843606260698000059014E0208908B97E
:1049F0000D20D9E6206A48446062022D02D1606928
:104A0000400007E0207D00F00100616901EB4101F9
:104A100000EB51000590A169059800F2FF10B1EB81
:104A2000502F01D20D20BFE64FF0FF302061E06033
:104A300080206071032D5AD194F8601094F86100C1
:104A400041EA0020012852D1791C204600F016FBD3
:104A5000E8BB0020607194F82E1294F82F0241EA0E
:104A600000204AF65521884241D13320005D0106DD
:104A70003220005D41EA00413120005D41EA002022
:104A800094F8301008432049884230D194F8170236
:104A9000010694F8160241EA004194F8150241EA31
:104AA000002094F814120843184988421FD194F842
:104AB0001B02010694F81A0241EA004194F8190217
:104AC00041EA002094F818120843206100E00EE04B
:104AD00094F81F02010694F81E0241EA004194F87E
:104AE0001D0241EA002094F81C120843E060257082
:104AF00007480088401C80B205490880E0800020FB
:104B000052E600005C010020525261417272416124
:104B10005E000020F0B504461D464D730F27CF728E
:104B200000270F738F76BC4681F81BC0571E07EB1A
:104B3000870C0CEBC706002738463B4600BF4FF6F4
:104B4000FF77B84203D03746761C34F81700DFF8F9
:104B500040C01CF803C001F80C000712DFF830C099
:104B60001CF803C08C448CF8017008B94FF6FF7034
:104B70005F1C3B460D2FE2D34FF6FF77B84202D0C1
:104B800034F816700FB942F040020A70F0BD000010
:104B9000C45500082DE9F3410446019800782F28F8
:104BA00003D0019800785C2802D10198401C019044
:104BB0000020A06001980078202807D2002120461C
:104BC000FFF7FCF905460020606128E000BF01A95D
:104BD0002046FEF775FE054605B11FE02046FFF7AB
:104BE0005BF80546A069C67A3DB1042D04D100BF2B
:104BF00006F0040000B9052510E006F0040000B13D
:104C00000CE06769F87A00F0100008B9052505E0A6
:104C10003946206800F019F9A060D8E700BF28469F
:104C2000BDE8FC8170B504460D46E1B20548FEF7CB
:104C30000CFC00BF40210348FEF73CFB0028F9D0E4
:104C4000204670BD001401402DE9FC4707468A4606
:104C500090461E460B225146384600F0F8F9052EC4
:104C600018D9304610E038F8021B00250AE00A4641
:104C700060F35F021046491000F480320AB1234A03
:104C800050406D1C102DF2D3B8F80020002AEAD154
:104C9000064600BF072500BF06F00F0000F13009EF
:104CA000B9F1390F03DD09F1070000F0FF092846CB
:104CB0006D1E0DF800903609002EEDD17E200DF806
:104CC000050000240BE0385D812807DB385DFE28F5
:104CD00004DC681EA04200D106E0641C641CAC42E7
:104CE00002D2385D2028EED100BF00BF082D04D2CB
:104CF00028466D1C1DF8001000E020212046641C91
:104D00003954082CF2D3BDE8FC87000021100100C3
:104D10002DE9F04105460C46022C02D36869A042F9
:104D200002D80120BDE8F0812878012804D00228AB
:104D30002CD003285AD13DE0274607EB5707286AB5
:104D400000EB5721284600F099F900B150E0C7F375
:104D5000080105F1300010F801807F1C286A00EB83
:104D60005721284600F08AF900B141E0C7F3080155
:104D700005F13000405C48EA002804F0010010B161
:104D80004FEA1810CEE7C8F30B00CBE7286A00EB18
:104D90001421284600F072F900B129E040F2FF101A
:104DA00000EA440105F130000E183078717840EACD
:104DB0000120B7E7286A00EBD411284600F05EF91D
:104DC00000B115E040F2FF1000EA840105F1300067
:104DD0000E18F0780006B17840EA0140717840EA98
:104DE00001203178084320F070409BE7012099E7CB
:104DF00000BF4FF0FF3095E70048704700001147B3
:104E000070B502464FF0FF301568E5B1116800E05B
:104E1000491C0D78202D02D30D783A2DF8D10D784C
:104E20003A2D0FD1146814F8015BA5F130030A2B59
:104E300007D28C4205D1032B03D218464D1C2946BC
:104E4000156070BD002000BFFBE710B502468C7EE8
:104E5000CB7E44EA03201378032B05D10C7D4B7DD8
:104E600044EA032340EA034010BD00002DE9F0416D
:104E70000027002500260024A820FEF759FEFBF796
:104E8000A1FF5948FBF728FFFBF7CCFF42F2CF0107
:104E90000420FEF741F942F2CF010920FEF70EF996
:104EA000002000F03BF9022000F038F9FFF776F916
:104EB000FDF7C6FEFBF7BEFAFBF754FAFBF73CFA28
:104EC0004FF400714948FBF787FE87E048480078B7
:104ED00000284CD00020464908704648007870B140
:104EE000FCF7ECFB4449086044490122086844A1EE
:104EF000FFF7A8F94049086000203E490870414882
:104F00000078F0B12A4640A14248FEF7D1FA0A22C1
:104F1000404941480068FFF7C3F93749086008462F
:104F2000006868B94FF400713048FBF753FE681C05
:104F300085B200203349087001203849087016E016
:104F40004DE035480068FFF76BF92B4908600846CB
:104F5000006858B94FF400712448FBF73DFE01206A
:104F60002849087000202D49087000E037E02C48DF
:104F70000078012832D1002405E02A48005D304441
:104F800086B2601CC4B20C2CF7DB174890F82000E6
:104F900030441549097808443130C0B288B92148F5
:104FA000007A00061F49497A00EB01401D49897AC1
:104FB00000EB01201B49C97A0844C2170A49C1E91C
:104FC00006020026002404E0002016490855601C53
:104FD000C4B20C2CF8DB00201149087076E700BF42
:104FE0000020BDE8F0810000000100200004024024
:104FF00003000020410000201C000020B000002021
:10500000303A000040000020544553545F25642E80
:1050100054585400280100200800002042000020BD
:10502000070000209C000020F0B503461C460D46FA
:10503000002000BF1600A2F1010207D014F8017B86
:1050400015F801CBA7EB0C063000F3D0F0BD70B51E
:1050500003460C4603E014F8015B03F8015B1500FE
:10506000A2F10102F7D170BD30B5034601E003F8AB
:10507000011B1400A2F10102F9D130BD70B5044644
:105080000D46E06AA84210D0204600F05AFA08B156
:10509000012070BD607801232A4604F13001FFF73A
:1050A00023F808B10120F4E7E5620020F1E70000F1
:1050B0002DE9F04104460E461548005D38B9144804
:1050C00020380168204688470120BDE8F08111485A
:1050D00050F82400B04219D90F4850F82400B6FB0C
:1050E000F0F10B480C3850F8240030F8112000255E
:1050F00008E0002306480C3850F824004F1920F827
:1051000017306D1C9542F4DB0020DEE70220DCE75F
:1051100080000020185600080C56000810B5044600
:105120000C4951F824104A000B4951F82400002181
:1051300000F0B0F8094951F8242007490C3951F81A
:105140002400002100F0A6F8012103480C3001558D
:1051500010BD00000056000874000020185600081A
:105160002DE9F04704460F460025A9462348005D77
:1051700020B9224820380168204688471FB94FF0DF
:10518000FF30BDE8F0871E4850F82400B7FBF0F66A
:105190001B4850F82400B7FBF0F100FB117000B180
:1051A000761C184850F82400451E22E013480C389D
:1051B00050F8240030F8150010B909F1010901E098
:1051C0004FF00009B14513D14FF0000809E00B483A
:1051D0000C3850F8240005EB080220F8126008F1A2
:1051E0000108B045F3D3064850F824006843C8E7E7
:1051F0006D1E002DDADA4FF0FF30C2E7800000208C
:105200000C5600080056000810B501460023002285
:1052100007E00B4850F8210030F8120000B15B1C89
:10522000521C084850F821009042F2D8642058439C
:10523000044C54F82140B0FBF4F0C0B210BD0000A3
:10524000740000200056000870B505460C4604B9ED
:1052500070BD054850F82500261A31462846FFF74C
:1052600027FF00BFF4E700006800002070B5044687
:105270000E4631462046FFF773FF0546681C08B905
:10528000002070BD024850F824002844F9E70000CF
:105290006800002030B5034601E003F8011B14004C
:1052A000A2F10102F9D130BD2DE9F04705460E46C5
:1052B0001746022E02D36869B04202D84FF00208A6
:1052C0008AE02878012804D0022841D003287DD123
:1052D00054E0B14609EB5909286A00EB59212846E8
:1052E000FFF7CCFE8046B8F1000F00D071E0C9F3A3
:1052F000080105F130000C1806F0010020B1F9B2E8
:10530000207861F31F1000E03846207009F1010990
:1053100001202871286A00EB59212846FFF7AEFECC
:105320008046B8F1000F00D053E0C9F3080105F141
:1053300030000C1806F0010010B1C7F3071005E0AB
:10534000207800F0F000C7F303210843207040E00C
:10535000286A00EB16212846FFF790FE8046B8F138
:10536000000F00D035E040F2FF1000EA460105F1E1
:1053700030000C182770380A60702AE0286A00EBA9
:10538000D6112846FFF77AFE8046B8F1000F00D00C
:105390001FE040F2FF1000EA860105F130000C1812
:1053A000E0780006A17840EA0140617840EA0120F7
:1053B0002178084300F0704007432770380A607076
:1053C000380CA070380EE07003E0FFE74FF00208E1
:1053D00000BF00BF012028714046BDE8F0872DE9DD
:1053E000F04104460E46022E02D36069B04201D855
:1053F000022727E0002721E031462046FFF788FCFE
:10540000054605B91DE0012D01D1022719E0681CF0
:1054100008B9012715E0002231462046FFF744FF76
:10542000074607B10DE02069401C30B12069401CDF
:105430002061607940F0010060712E466069B042E1
:10544000DAD800BF3846BDE8F08181760B0AC37612
:105450000A0C02750B0E4375704730B501460020EB
:105460000B2200BF431003EBC01411F8015B63195A
:10547000D8B2531E1A00F5D130BD70B5044620468F
:1054800000F05FF80546002D59D1207803284FD150
:10549000607901284CD14202002104F13000FFF76D
:1054A000E3FD552184F82E12AA2184F82F125220F0
:1054B00084F83000522131200155612132200155FC
:1054C000412133200155722184F8141284F81512F9
:1054D000412184F81612612184F81712217C84F886
:1054E0001812208A010A84F819122069010C84F824
:1054F0001A122069010E84F81B12217B84F81C12F9
:10550000A089010A84F81D12E068010C84F81E12BB
:10551000E068010E84F81F12E069401CE0626078C8
:10552000012304F13001E26AFEF70CFE00206071F5
:10553000607800221146FEF7A1FD00B10125284642
:1055400070BD70B504462079F8B1E56A6078012332
:105550002A4604F13001FEF7F5FD08B1012070BDC7
:1055600000202071206A281AA16988420DD2E678AD
:1055700009E0A0690544607801232A4604F130015E
:10558000FEF7E0FD761E022EF3D20020E7E770B5AD
:1055900005462C464CB1206838B12068007820B10F
:1055A0002068C088A188884201D0092070BD216888
:1055B0004878FEF7C4FD00F0010008B10320F5E7CC
:1055C0000020F3E701030507090E10121416181C3A
:1055D0001E000004000200018000400020001000B6
:1055E00008000400020000000080004000200010BD
:1055F0000008004000200010000800040002000025
:10560000800C0000007800008007000020000000EF
:1056100020000000200000000090010000000F00AA
:1056200000F00000A400E8A1A700ECA1A800A7A139
:10563000B000E3A1B100C0A1B700A4A1D700C1A1EF
:10564000E000A4A8E100A2A8E800A8A8E900A6A894
:10565000EA00BAA8EC00ACA8ED00AAA8F200B0A835
:10566000F300AEA8F700C2A1F900B4A8FA00B2A8EE
:10567000FC00B9A80101A1A81301A5A81B01A7A8B6
:105680002B01A9A84401BDA84801BEA84D01ADA8A1
:105690006B01B1A8CE01A3A8D001ABA8D201AFA8DD
:1056A000D401B3A8D601B5A8D801B6A8DA01B7A825
:1056B000DC01B8A85102BBA86102C0A8C702A6A11C
:1056C000C902A5A1CA0240A8CB0241A8D90242A89A
:1056D0009103A1A69203A2A69303A3A69403A4A652
:1056E0009503A5A69603A6A69703A7A69803A8A622
:1056F0009903A9A69A03AAA69B03ABA69C03ACA6F2
:105700009D03ADA69E03AEA69F03AFA6A003B0A6C1
:10571000A103B1A6A303B2A6A403B3A6A503B4A68E
:10572000A603B5A6A703B6A6A803B7A6A903B8A65D
:10573000B103C1A6B203C2A6B303C3A6B403C4A6F1
:10574000B503C5A6B603C6A6B703C7A6B803C8A6C1
:10575000B903C9A6BA03CAA6BB03CBA6BC03CCA691
:10576000BD03CDA6BE03CEA6BF03CFA6C003D0A661
:10577000C103D1A6C303D2A6C403D3A6C503D4A62E
:10578000C603D5A6C703D6A6C803D7A6C903D8A6FD
:105790000104A7A71004A1A71104A2A71204A3A79C
:1057A0001304A4A71404A5A71504A6A71604A8A764
:1057B0001704A9A71804AAA71904ABA71A04ACA731
:1057C0001B04ADA71C04AEA71D04AFA71E04B0A701
:1057D0001F04B1A72004B2A72104B3A72204B4A7D1
:1057E0002304B5A72404B6A72504B7A72604B8A7A1
:1057F0002704B9A72804BAA72904BBA72A04BCA771
:105800002B04BDA72C04BEA72D04BFA72E04C0A740
:105810002F04C1A73004D1A73104D2A73204D3A7E3
:105820003304D4A73404D5A73504D6A73604D8A7A3
:105830003704D9A73804DAA73904DBA73A04DCA770
:105840003B04DDA73C04DEA73D04DFA73E04E0A740
:105850003F04E1A74004E2A74104E3A74204E4A710
:105860004304E5A74404E6A74504E7A74604E8A7E0
:105870004704E9A74804EAA74904EBA74A04ECA7B0
:105880004B04EDA74C04EEA74D04EFA74E04F0A780
:105890004F04F1A75104D7A710205CA9132043A8F7
:1058A0001420AAA1152044A81620ACA11820AEA14E
:1058B0001920AFA11C20B0A11D20B1A1252045A811
:1058C0002620ADA13020EBA13220E4A13320E5A1B8
:1058D000352046A83B20F9A1AC2080000321E6A199
:1058E000052147A8092148A81621EDA1212159A980
:1058F0006021F1A26121F2A26221F3A26321F4A24C
:105900006421F5A26521F6A26621F7A26721F8A21B
:105910006821F9A26921FAA26A21FBA26B21FCA2EB
:105920007021A1A27121A2A27221A3A27321A4A21B
:105930007421A5A27521A6A27621A7A27721A8A2EB
:105940007821A9A27921AAA29021FBA19121FCA1F1
:105950009221FAA19321FDA1962149A897214AA855
:1059600098214BA899214CA80822CAA10F22C7A1AF
:105970001122C6A115224DA81A22CCA11D22D8A100
:105980001E22DEA11F224EA82022CFA123224FA833
:105990002522CEA12722C4A12822C5A12922C9A13E
:1059A0002A22C8A12B22D2A12E22D3A13422E0A1E7
:1059B0003522DFA13622C3A13722CBA13D22D7A1B8
:1059C0004822D6A14C22D5A1522250A86022D9A1AA
:1059D0006122D4A16422DCA16522DDA1662251A846
:1059E000672252A86E22DAA16F22DBA1952292A82B
:1059F0009922D1A1A522CDA1BF2253A81223D0A1C3
:105A00006024D9A26124DAA26224DBA26324DCA28E
:105A10006424DDA26524DEA26624DFA26724E0A25E
:105A20006824E1A26924E2A27424C5A27524C6A256
:105A30007624C7A27724C8A27824C9A27924CAA24E
:105A40007A24CBA27B24CCA27C24CDA27D24CEA21E
:105A50007E24CFA27F24D0A28024D1A28124D2A2EE
:105A60008224D3A28324D4A28424D5A28524D6A2BE
:105A70008624D7A28724D8A28824B1A28924B2A2DE
:105A80008A24B3A28B24B4A28C24B5A28D24B6A2FE
:105A90008E24B7A28F24B8A29024B9A29124BAA2CE
:105AA0009224BBA29324BCA29424BDA29524BEA29E
:105AB0009624BFA29724C0A29824C1A29924C2A26E
:105AC0009A24C3A29B24C4A20025A4A90125A5A9A8
:105AD0000225A6A90325A7A90425A8A90525A9A9E2
